{"abi":[{"type":"constructor","inputs":[],"stateMutability":"nonpayable"},{"type":"receive","stateMutability":"payable"},{"type":"function","name":"UPGRADE_INTERFACE_VERSION","inputs":[],"outputs":[{"name":"","type":"string","internalType":"string"}],"stateMutability":"view"},{"type":"function","name":"aprOffset","inputs":[],"outputs":[{"name":"","type":"uint256","internalType":"uint256"}],"stateMutability":"view"},{"type":"function","name":"dayTimeStamp","inputs":[],"outputs":[{"name":"","type":"uint256","internalType":"uint256"}],"stateMutability":"view"},{"type":"function","name":"depositIntoStaking","inputs":[{"name":"amount","type":"uint256","internalType":"uint256"},{"name":"stakingType","type":"uint8","internalType":"uint8"},{"name":"isAutoRenew","type":"bool","internalType":"bool"}],"outputs":[],"stateMutability":"nonpayable"},{"type":"function","name":"fccAddress","inputs":[],"outputs":[{"name":"","type":"address","internalType":"address"}],"stateMutability":"view"},{"type":"function","name":"feManagerAddress","inputs":[],"outputs":[{"name":"","type":"address","internalType":"contract IFishcakeEventManager"}],"stateMutability":"view"},{"type":"function","name":"getStakingAprFunding","inputs":[{"name":"amount","type":"uint256","internalType":"uint256"},{"name":"messageNonce","type":"uint256","internalType":"uint256"}],"outputs":[{"name":"","type":"uint256","internalType":"uint256"}],"stateMutability":"view"},{"type":"function","name":"halfAprTimeStamp","inputs":[],"outputs":[{"name":"","type":"uint256","internalType":"uint256"}],"stateMutability":"view"},{"type":"function","name":"initialize","inputs":[{"name":"_initialOwner","type":"address","internalType":"address"},{"name":"_fccAddress","type":"address","internalType":"address"},{"name":"_feManagerAddress","type":"address","internalType":"contract IFishcakeEventManager"},{"name":"_nftManagerAddress","type":"address","internalType":"contract INftManager"}],"outputs":[],"stateMutability":"nonpayable"},{"type":"function","name":"lockHalfYears","inputs":[],"outputs":[{"name":"","type":"uint256","internalType":"uint256"}],"stateMutability":"view"},{"type":"function","name":"lockNinetyDays","inputs":[],"outputs":[{"name":"","type":"uint256","internalType":"uint256"}],"stateMutability":"view"},{"type":"function","name":"lockOneYears","inputs":[],"outputs":[{"name":"","type":"uint256","internalType":"uint256"}],"stateMutability":"view"},{"type":"function","name":"lockSixtyDays","inputs":[],"outputs":[{"name":"","type":"uint256","internalType":"uint256"}],"stateMutability":"view"},{"type":"function","name":"lockThirtyDays","inputs":[],"outputs":[{"name":"","type":"uint256","internalType":"uint256"}],"stateMutability":"view"},{"type":"function","name":"messageNonce","inputs":[],"outputs":[{"name":"","type":"uint256","internalType":"uint256"}],"stateMutability":"view"},{"type":"function","name":"minStakeAmount","inputs":[],"outputs":[{"name":"","type":"uint256","internalType":"uint256"}],"stateMutability":"view"},{"type":"function","name":"nftManagerAddress","inputs":[],"outputs":[{"name":"","type":"address","internalType":"contract INftManager"}],"stateMutability":"view"},{"type":"function","name":"owner","inputs":[],"outputs":[{"name":"","type":"address","internalType":"address"}],"stateMutability":"view"},{"type":"function","name":"proxiableUUID","inputs":[],"outputs":[{"name":"","type":"bytes32","internalType":"bytes32"}],"stateMutability":"view"},{"type":"function","name":"renounceOwnership","inputs":[],"outputs":[],"stateMutability":"nonpayable"},{"type":"function","name":"totalStakingAmount","inputs":[],"outputs":[{"name":"","type":"uint256","internalType":"uint256"}],"stateMutability":"view"},{"type":"function","name":"transferOwnership","inputs":[{"name":"newOwner","type":"address","internalType":"address"}],"outputs":[],"stateMutability":"nonpayable"},{"type":"function","name":"upgradeToAndCall","inputs":[{"name":"newImplementation","type":"address","internalType":"address"},{"name":"data","type":"bytes","internalType":"bytes"}],"outputs":[],"stateMutability":"payable"},{"type":"function","name":"withdrawETHFromContract","inputs":[{"name":"to","type":"address","internalType":"address"},{"name":"amount","type":"uint256","internalType":"uint256"}],"outputs":[],"stateMutability":"nonpayable"},{"type":"function","name":"withdrawFromStakingWithAprIncome","inputs":[{"name":"amount","type":"uint256","internalType":"uint256"},{"name":"messageNonce","type":"uint256","internalType":"uint256"}],"outputs":[],"stateMutability":"nonpayable"},{"type":"event","name":"Initialized","inputs":[{"name":"version","type":"uint64","indexed":false,"internalType":"uint64"}],"anonymous":false},{"type":"event","name":"OwnershipTransferred","inputs":[{"name":"previousOwner","type":"address","indexed":true,"internalType":"address"},{"name":"newOwner","type":"address","indexed":true,"internalType":"address"}],"anonymous":false},{"type":"event","name":"Received","inputs":[{"name":"receiver","type":"address","indexed":true,"internalType":"address"},{"name":"_value","type":"uint256","indexed":false,"internalType":"uint256"}],"anonymous":false},{"type":"event","name":"StakeHolderDepositStaking","inputs":[{"name":"staker","type":"address","indexed":true,"internalType":"address"},{"name":"amount","type":"uint256","indexed":false,"internalType":"uint256"},{"name":"stakingType","type":"uint8","indexed":false,"internalType":"uint8"},{"name":"startStakingTime","type":"uint256","indexed":false,"internalType":"uint256"},{"name":"endStakingTime","type":"uint256","indexed":false,"internalType":"uint256"},{"name":"bindingNft","type":"uint256","indexed":false,"internalType":"uint256"},{"name":"nftApr","type":"uint256","indexed":false,"internalType":"uint256"},{"name":"isAutoRenew","type":"bool","indexed":false,"internalType":"bool"},{"name":"messageNonce","type":"uint256","indexed":false,"internalType":"uint256"}],"anonymous":false},{"type":"event","name":"StakeHolderWithdrawStaking","inputs":[{"name":"recipant","type":"address","indexed":true,"internalType":"address"},{"name":"withdrawAmount","type":"uint256","indexed":false,"internalType":"uint256"},{"name":"messageNonce","type":"uint256","indexed":false,"internalType":"uint256"},{"name":"messageHash","type":"bytes32","indexed":false,"internalType":"bytes32"},{"name":"rewardAprFunding","type":"uint256","indexed":false,"internalType":"uint256"}],"anonymous":false},{"type":"event","name":"Upgraded","inputs":[{"name":"implementation","type":"address","indexed":true,"internalType":"address"}],"anonymous":false},{"type":"event","name":"WithdrawETHFromContract","inputs":[{"name":"to","type":"address","indexed":true,"internalType":"address"},{"name":"amount","type":"uint256","indexed":false,"internalType":"uint256"}],"anonymous":false},{"type":"error","name":"AddressEmptyCode","inputs":[{"name":"target","type":"address","internalType":"address"}]},{"type":"error","name":"AddressInsufficientBalance","inputs":[{"name":"account","type":"address","internalType":"address"}]},{"type":"error","name":"ERC1967InvalidImplementation","inputs":[{"name":"implementation","type":"address","internalType":"address"}]},{"type":"error","name":"ERC1967NonPayable","inputs":[]},{"type":"error","name":"FailedInnerCall","inputs":[]},{"type":"error","name":"FundingUnderStaking","inputs":[{"name":"amount","type":"uint256","internalType":"uint256"},{"name":"endTime","type":"uint256","internalType":"uint256"}]},{"type":"error","name":"InvalidInitialization","inputs":[]},{"type":"error","name":"NoFundingForStaking","inputs":[]},{"type":"error","name":"NotInitializing","inputs":[]},{"type":"error","name":"OwnableInvalidOwner","inputs":[{"name":"owner","type":"address","internalType":"address"}]},{"type":"error","name":"OwnableUnauthorizedAccount","inputs":[{"name":"account","type":"address","internalType":"address"}]},{"type":"error","name":"ReentrancyGuardReentrantCall","inputs":[]},{"type":"error","name":"SafeERC20FailedOperation","inputs":[{"name":"token","type":"address","internalType":"address"}]},{"type":"error","name":"UUPSUnauthorizedCallContext","inputs":[]},{"type":"error","name":"UUPSUnsupportedProxiableUUID","inputs":[{"name":"slot","type":"bytes32","internalType":"bytes32"}]}],"bytecode":{"object":"0x60a080604052346100fc57636955b9005f556103e860015562015180600255306080527ff0c57e16840df040f15088dc2f81fe391c3923bec73e23a9662efc9c229c6a005460ff8160401c166100ed576002600160401b03196001600160401b03821601610087575b60405161181390816101018239608051818181610f290152610ff90152f35b6001600160401b0319166001600160401b039081177ff0c57e16840df040f15088dc2f81fe391c3923bec73e23a9662efc9c229c6a005581527fc7f505b2f371ae2175ee4913f4499e1f2633a7b5936321eed1cdaeb6115181d290602090a15f80610068565b63f92ee8a960e01b5f5260045ffd5b5f80fdfe6080806040526004361015610048575b50361561001a575f80fd5b6040513481527f88a5966d370b9919b20f3e2c13ff65706f196a4e32cc2c12bf57088f8852587460203392a2005b5f905f3560e01c9081631979e37f146111ce5750806341971eb2146111b15780634bc92c86146111895780634f1ef28614610f7d57806352d1902d14610f1757806358e5aca614610efa5780636a8049f814610edc578063715018a614610e755780637970e73f14610ab55780638da5cb5b14610a8057806394e2daba14610a6257806395fbba0b14610984578063a678129d146107b2578063ad3cb1cc14610756578063c837d04614610738578063d201114a1461071a578063d5aa93c8146106f1578063de8ad38f146106d4578063ecc70428146106b6578063ed07f5651461047f578063ee65347314610456578063f188768414610438578063f2fde38b1461040b578063f8956f49146103ed5763f8c8765e0361000f57346103ea5760803660031901126103ea5761017c6111e9565b6024356001600160a01b03811691908290036103e6576044356001600160a01b03811691908290036103e2576064356001600160a01b03811693908490036103de575f805160206117be833981519152549360ff8560401c16159467ffffffffffffffff8116801590816103d6575b60011490816103cc575b1590816103c3575b506103b45767ffffffffffffffff1981166001175f805160206117be8339815191525585610388575b506001600160a01b0383161561031d57610291936001600160601b0360a01b60065416176006556001600160601b0360a01b60075416176007556001600160601b0360a01b600454161760045561027b6116d4565b6102836116d4565b61028c816112b0565b611310565b6102996116d4565b6102a16116d4565b60015f8051602061179e833981519152556102ba6116d4565b816005556102c55780f35b68ff0000000000000000195f805160206117be83398151915254165f805160206117be833981519152557fc7f505b2f371ae2175ee4913f4499e1f2633a7b5936321eed1cdaeb6115181d2602060405160018152a180f35b60405162461bcd60e51b815260206004820152603e60248201527f5374616b696e674d616e6167657220696e697469616c697a653a205f696e697460448201527f69616c4f776e65722063616e2774206265207a65726f206164647265737300006064820152608490fd5b68ffffffffffffffffff191668010000000000000001175f805160206117be833981519152555f610226565b63f92ee8a960e01b8752600487fd5b9050155f6101fd565b303b1591506101f5565b8791506101eb565b8480fd5b8380fd5b8280fd5b80fd5b50346103ea57806003193601126103ea57602060405162ed4e008152f35b50346103ea5760203660031901126103ea576104356104286111e9565b6104306112dd565b6112b0565b80f35b50346103ea57806003193601126103ea576020604051629896808152f35b50346103ea57806003193601126103ea576006546040516001600160a01b039091168152602090f35b50346103ea5761048e3661123d565b610496611364565b6004546040805133602082019081526001600160a01b039093169181019190915260608101849052608081018390526104dc8160a081015b03601f1981018352826111ff565b519020338452600860205260408420818552602052600360408520015480421061069f575033845260086020526040842081855260205260ff6004604086200154166106665761052e836003546112a3565b60035533845260086020526040842081855260205260046040852001600160ff198254161790553384526008602052604084208185526020526105e8600160408620015433865260086020526040862083875260205260ff600460408820015460081c163387526008602052604087208488526020526040872054338852600860205260408820858952602052600560408920015491338952600860205260408920868a5260205260ff600660408b20015416933361155c565b916105fe843360018060a01b0360045416611625565b60045461061790849033906001600160a01b0316611625565b6040519384526020840152604083015260608201527f14040216a07a7cbe47a104adec603100a42f8d5ad1dab9b72982a67f8ac4ebda60803392a260015f8051602061179e8339815191525580f35b60405162461bcd60e51b815260206004820152601160248201527030b63932b0b23c903bb4ba34323930bbb760791b6044820152606490fd5b635383244560e11b85526004849052602452604484fd5b50346103ea57806003193601126103ea576020600554604051908152f35b50346103ea57806003193601126103ea5760209054604051908152f35b50346103ea57806003193601126103ea576007546040516001600160a01b039091168152602090f35b50346103ea57806003193601126103ea576020600354604051908152f35b50346103ea57806003193601126103ea576020600254604051908152f35b50346103ea57806003193601126103ea576040805161077582826111ff565b6005815260208101640352e302e360dc1b81528251938492602084525180928160208601528585015e828201840152601f01601f19168101030190f35b50346103ea5760403660031901126103ea576107cc6111e9565b6024356107d76112dd565b6001600160a01b03821691821561091a5747821161089e578380808481945af16107ff611274565b50156108335760207f10bf05c0c841bf1cc64c2e5bb3f7beceba9587003356ef84b4670ea3fc982cce91604051908152a280f35b60405162461bcd60e51b815260206004820152603760248201527f5374616b696e674d616e6167657220776974686472617745544846726f6d436f60448201527f6e74726163743a205769746864726177206661696c65640000000000000000006064820152608490fd5b60405162461bcd60e51b815260206004820152604860248201527f5374616b696e674d616e6167657220776974686472617745544846726f6d436f60448201527f6e74726163743a20616d6f756e74206d757374206265206c657373207468616e6064820152672062616c616e636560c01b608482015260a490fd5b608460405162461bcd60e51b815260206004820152604060248201527f5374616b696e674d616e6167657220776974686472617745544846726f6d436f60448201527f6e74726163743a20746f2063616e2774206265207a65726f20616464726573736064820152fd5b50346103ea57610a5a6020916109993661123d565b60045460408051338882019081526001600160a01b039093166020840152908201939093526060810191909152906109d481608084016104ce565b519020338252600884526040822081835284526001604083200154913381526008855260408120828252855260ff600460408320015460081c163382526008865260408220838352865260ff60066040808520549433815260088a528181208782528a52600582822001549633825260088b528282209082528a5220015416933361155c565b604051908152f35b50346103ea57806003193601126103ea576020600154604051908152f35b50346103ea57806003193601126103ea575f8051602061175e833981519152546040516001600160a01b039091168152602090f35b5034610da4576060366003190112610da4576024359060ff8216600435818403610da457604435801515809103610da457610aee611364565b629896808210610df0576004546040516323b872dd60e01b602082015233602482015230604482015260648082018590528152610b3e916001600160a01b0316610b396084836111ff565b611660565b6004546005546040805133602082019081526001600160a01b03909416918101919091526060810185905260808101829052909691610b9991610b929190610b898160a081016104ce565b5190209261139c565b5042611253565b6007546040516311d61ae760e21b815233600482015291906001600160a01b0316602083602481845afa928315610d99575f93610dbc575b50610bdb83611489565b9360405190610100820182811067ffffffffffffffff821117610da857604052428252602082019a888c5260408301908152606083019085825260808401915f835260a08501918c835260c086019489865260e08701978c8952803b15610da4575f8091602460405180948193631c91ae0760e21b83523360048401525af18015610d9957610d76575b509e8e9f600698999a9b9c9d9e9f6040913382526008602052828220908252602052209651875551600187015551600286015551600385015560ff6004850192511660ff198354161782555161ff0082549160081b169061ff001916179055516005820155019051151560ff80198354169116179055610ce785600354611253565b6003556005549560405195865260208601524260408601526060850152608084015260a083015260c08201528160e08201527f0c1c260f1025eef714f221f5eaf7f127b645e853b7bc9e9e6c57e06d2d0cf6086101003392a25f198114610d625760010160055560015f8051602061179e8339815191525580f35b634e487b7160e01b82526011600452602482fd5b610d8a9198999a9b9c9d9e9f505f906111ff565b5f9d9c9b9a999897965f610c65565b6040513d5f823e3d90fd5b5f80fd5b634e487b7160e01b5f52604160045260245ffd5b9092506020813d602011610de8575b81610dd8602093836111ff565b81010312610da45751915f610bd1565b3d9150610dcb565b60405162461bcd60e51b815260206004820152605160248201527f5374616b696e674d616e61676572204465706f736974496e746f5374616b696e60448201527f673a207374616b696e6720616d6f756e74206d757374206265206174206c65616064820152701cdd081b5a5b94dd185ad9505b5bdd5b9d607a1b608482015260a490fd5b34610da4575f366003190112610da457610e8d6112dd565b5f8051602061175e83398151915280546001600160a01b031981169091555f906001600160a01b03167f8be0079c531659141344cd1fd0a4f28419497f9722a3daafe3b4186f6b6457e08280a3005b34610da4575f366003190112610da45760206040516301da9c008152f35b34610da4575f366003190112610da45760206040516276a7008152f35b34610da4575f366003190112610da4577f00000000000000000000000000000000000000000000000000000000000000006001600160a01b03163003610f6e5760206040515f8051602061177e8339815191528152f35b63703e46dd60e11b5f5260045ffd5b6040366003190112610da457610f916111e9565b6024359067ffffffffffffffff8211610da45736602383011215610da457816004013590610fbe82611221565b91610fcc60405193846111ff565b80835260208301933660248383010111610da457815f926024602093018737840101526001600160a01b037f000000000000000000000000000000000000000000000000000000000000000016308114908115611167575b50610f6e576110316112dd565b6040516352d1902d60e01b81526001600160a01b0382169390602081600481885afa5f9181611133575b506110735784634c9c8ce360e01b5f5260045260245ffd5b805f8051602061177e8339815191528692036111215750823b1561110f575f8051602061177e83398151915280546001600160a01b031916821790557fbc7cd75a20ee27fd9adebab32041f755214dbc6bffa90cc0225b39da2e5c2d3b5f80a28251156110f6575f80916110f4945190845af46110ee611274565b916116ff565b005b5050503461110057005b63b398979f60e01b5f5260045ffd5b634c9c8ce360e01b5f5260045260245ffd5b632a87526960e21b5f5260045260245ffd5b9091506020813d60201161115f575b8161114f602093836111ff565b81010312610da45751908661105b565b3d9150611142565b5f8051602061177e833981519152546001600160a01b03161415905084611024565b34610da4575f366003190112610da4576004546040516001600160a01b039091168152602090f35b34610da4575f366003190112610da457602060405162278d008152f35b34610da4575f366003190112610da45780624f1a0060209252f35b600435906001600160a01b0382168203610da457565b90601f8019910116810190811067ffffffffffffffff821117610da857604052565b67ffffffffffffffff8111610da857601f01601f191660200190565b6040906003190112610da4576004359060243590565b9190820180921161126057565b634e487b7160e01b5f52601160045260245ffd5b3d1561129e573d9061128582611221565b9161129360405193846111ff565b82523d5f602084013e565b606090565b9190820391821161126057565b6001600160a01b038116156112ca576112c890611310565b565b631e4fbdf760e01b5f525f60045260245ffd5b5f8051602061175e833981519152546001600160a01b031633036112fd57565b63118cdaa760e01b5f523360045260245ffd5b5f8051602061175e83398151915280546001600160a01b039283166001600160a01b0319821681179092559091167f8be0079c531659141344cd1fd0a4f28419497f9722a3daafe3b4186f6b6457e05f80a3565b60025f8051602061179e833981519152541461138d5760025f8051602061179e83398151915255565b633ee5aeb560e01b5f5260045ffd5b60ff168015158061147f575b156113ee57600181036113c0575062278d0090600390565b600281036113d35750624f1a0090600690565b6003036113e4576276a70090600990565b62ed4e0090600f90565b60405162461bcd60e51b815260206004820152605760248201527f5374616b696e674d616e61676572206765745374616b696e67506572696f643a60448201527f207374616b696e675479706520616d6f756e74206d757374206265206d6f726560648201527f207468616e203020616e64206c657373207468616e2035000000000000000000608482015260a490fd5b50600581106113a8565b600754604051631510f4f760e01b81526004810192909252602090829060249082906001600160a01b03165afa8015610d99575f9061150c575b60ff169050600681036114d65750601490565b600581036114e45750600f90565b600481036114f25750600990565b600381036115005750600590565b611508575f90565b5f90565b506020813d602011611541575b81611526602093836111ff565b81010312610da4575160ff81168103610da45760ff906114c3565b3d9150611519565b8181029291811591840414171561126057565b5091929361158861157861157261158197611489565b9361139c565b80979194611253565b94426112a3565b908282119081159161161d575b501561161557935b818510156115d2575050916115ba6115bf9263bbf81e0094611549565b611549565b045b5f5442106115cf5760011c90565b90565b93611603826115fd6116109763bbf81e006115f6611609976115ba8a9b849b611549565b0497611549565b926112a3565b90611549565b0490611253565b6115c1565b50809361159d565b90505f611595565b60405163a9059cbb60e01b60208201526001600160a01b0390921660248301526044808301939093529181526112c891610b396064836111ff565b5f806116889260018060a01b03169360208151910182865af1611681611274565b90836116ff565b80519081151591826116b0575b505061169e5750565b635274afe760e01b5f5260045260245ffd5b8192509060209181010312610da45760200151801590811503610da4575f80611695565b60ff5f805160206117be8339815191525460401c16156116f057565b631afcd79f60e31b5f5260045ffd5b90611723575080511561171457805190602001fd5b630a12f52160e11b5f5260045ffd5b81511580611754575b611734575090565b639996b31560e01b5f9081526001600160a01b0391909116600452602490fd5b50803b1561172c56fe9016d09d72d40fdae2fd8ceac6b6234c7706214fd39c1cd1e609a0528c199300360894a13ba1a3210667c828492db98dca3e2076cc3735a920a3ca505d382bbc9b779b17422d0df92223018b32b4d1fa46e071723d6817e2486d003becc55f00f0c57e16840df040f15088dc2f81fe391c3923bec73e23a9662efc9c229c6a00a2646970667358221220c20187512d3e1b5b9fa9e09e48701fb9c1a994be74c8697cfbc003171b49c36764736f6c634300081a0033","linkReferences":{}},"methodIdentifiers":{"UPGRADE_INTERFACE_VERSION()":"ad3cb1cc","aprOffset()":"94e2daba","dayTimeStamp()":"c837d046","depositIntoStaking(uint256,uint8,bool)":"7970e73f","fccAddress()":"4bc92c86","feManagerAddress()":"ee653473","getStakingAprFunding(uint256,uint256)":"95fbba0b","halfAprTimeStamp()":"de8ad38f","initialize(address,address,address,address)":"f8c8765e","lockHalfYears()":"f8956f49","lockNinetyDays()":"58e5aca6","lockOneYears()":"6a8049f8","lockSixtyDays()":"1979e37f","lockThirtyDays()":"41971eb2","messageNonce()":"ecc70428","minStakeAmount()":"f1887684","nftManagerAddress()":"d5aa93c8","owner()":"8da5cb5b","proxiableUUID()":"52d1902d","renounceOwnership()":"715018a6","totalStakingAmount()":"d201114a","transferOwnership(address)":"f2fde38b","upgradeToAndCall(address,bytes)":"4f1ef286","withdrawETHFromContract(address,uint256)":"a678129d","withdrawFromStakingWithAprIncome(uint256,uint256)":"ed07f565"},"storageLayout":{"storage":[{"astId":54738,"contract":"src/contracts/core/StakingManager.sol:StakingManager","label":"halfAprTimeStamp","offset":0,"slot":"0","type":"t_uint256"},{"astId":54741,"contract":"src/contracts/core/StakingManager.sol:StakingManager","label":"aprOffset","offset":0,"slot":"1","type":"t_uint256"},{"astId":54744,"contract":"src/contracts/core/StakingManager.sol:StakingManager","label":"dayTimeStamp","offset":0,"slot":"2","type":"t_uint256"},{"astId":54746,"contract":"src/contracts/core/StakingManager.sol:StakingManager","label":"totalStakingAmount","offset":0,"slot":"3","type":"t_uint256"},{"astId":54748,"contract":"src/contracts/core/StakingManager.sol:StakingManager","label":"fccAddress","offset":0,"slot":"4","type":"t_address"},{"astId":54750,"contract":"src/contracts/core/StakingManager.sol:StakingManager","label":"messageNonce","offset":0,"slot":"5","type":"t_uint256"},{"astId":54753,"contract":"src/contracts/core/StakingManager.sol:StakingManager","label":"feManagerAddress","offset":0,"slot":"6","type":"t_contract(IFishcakeEventManager)62725"},{"astId":54756,"contract":"src/contracts/core/StakingManager.sol:StakingManager","label":"nftManagerAddress","offset":0,"slot":"7","type":"t_contract(INftManager)62850"},{"astId":54780,"contract":"src/contracts/core/StakingManager.sol:StakingManager","label":"stakingQueued","offset":0,"slot":"8","type":"t_mapping(t_address,t_mapping(t_bytes32,t_struct(stakeHolderStakingInfo)54773_storage))"},{"astId":54784,"contract":"src/contracts/core/StakingManager.sol:StakingManager","label":"__gap","offset":0,"slot":"9","type":"t_array(t_uint256)100_storage"}],"types":{"t_address":{"encoding":"inplace","label":"address","numberOfBytes":"20"},"t_array(t_uint256)100_storage":{"encoding":"inplace","label":"uint256[100]","numberOfBytes":"3200","base":"t_uint256"},"t_bool":{"encoding":"inplace","label":"bool","numberOfBytes":"1"},"t_bytes32":{"encoding":"inplace","label":"bytes32","numberOfBytes":"32"},"t_contract(IFishcakeEventManager)62725":{"encoding":"inplace","label":"contract IFishcakeEventManager","numberOfBytes":"20"},"t_contract(INftManager)62850":{"encoding":"inplace","label":"contract INftManager","numberOfBytes":"20"},"t_mapping(t_address,t_mapping(t_bytes32,t_struct(stakeHolderStakingInfo)54773_storage))":{"encoding":"mapping","key":"t_address","label":"mapping(address => mapping(bytes32 => struct StakingManagerStorage.stakeHolderStakingInfo))","numberOfBytes":"32","value":"t_mapping(t_bytes32,t_struct(stakeHolderStakingInfo)54773_storage)"},"t_mapping(t_bytes32,t_struct(stakeHolderStakingInfo)54773_storage)":{"encoding":"mapping","key":"t_bytes32","label":"mapping(bytes32 => struct StakingManagerStorage.stakeHolderStakingInfo)","numberOfBytes":"32","value":"t_struct(stakeHolderStakingInfo)54773_storage"},"t_struct(stakeHolderStakingInfo)54773_storage":{"encoding":"inplace","label":"struct StakingManagerStorage.stakeHolderStakingInfo","numberOfBytes":"224","members":[{"astId":54758,"contract":"src/contracts/core/StakingManager.sol:StakingManager","label":"startStakingTime","offset":0,"slot":"0","type":"t_uint256"},{"astId":54760,"contract":"src/contracts/core/StakingManager.sol:StakingManager","label":"amount","offset":0,"slot":"1","type":"t_uint256"},{"astId":54762,"contract":"src/contracts/core/StakingManager.sol:StakingManager","label":"messageNonce","offset":0,"slot":"2","type":"t_uint256"},{"astId":54764,"contract":"src/contracts/core/StakingManager.sol:StakingManager","label":"endStakingTime","offset":0,"slot":"3","type":"t_uint256"},{"astId":54766,"contract":"src/contracts/core/StakingManager.sol:StakingManager","label":"stakingStatus","offset":0,"slot":"4","type":"t_uint8"},{"astId":54768,"contract":"src/contracts/core/StakingManager.sol:StakingManager","label":"stakingType","offset":1,"slot":"4","type":"t_uint8"},{"astId":54770,"contract":"src/contracts/core/StakingManager.sol:StakingManager","label":"bindingNft","offset":0,"slot":"5","type":"t_uint256"},{"astId":54772,"contract":"src/contracts/core/StakingManager.sol:StakingManager","label":"isAutoRenew","offset":0,"slot":"6","type":"t_bool"}]},"t_uint256":{"encoding":"inplace","label":"uint256","numberOfBytes":"32"},"t_uint8":{"encoding":"inplace","label":"uint8","numberOfBytes":"1"}}},"id":83}