{
    "abi": [
        {
            "type": "constructor",
            "inputs": [],
            "stateMutability": "nonpayable"
        },
        {
            "type": "receive",
            "stateMutability": "payable"
        },
        {
            "type": "function",
            "name": "UPGRADE_INTERFACE_VERSION",
            "inputs": [],
            "outputs": [
                {
                    "name": "",
                    "type": "string",
                    "internalType": "string"
                }
            ],
            "stateMutability": "view"
        },
        {
            "type": "function",
            "name": "aprOffset",
            "inputs": [],
            "outputs": [
                {
                    "name": "",
                    "type": "uint256",
                    "internalType": "uint256"
                }
            ],
            "stateMutability": "view"
        },
        {
            "type": "function",
            "name": "dayTimeStamp",
            "inputs": [],
            "outputs": [
                {
                    "name": "",
                    "type": "uint256",
                    "internalType": "uint256"
                }
            ],
            "stateMutability": "view"
        },
        {
            "type": "function",
            "name": "depositIntoStaking",
            "inputs": [
                {
                    "name": "amount",
                    "type": "uint256",
                    "internalType": "uint256"
                },
                {
                    "name": "stakingType",
                    "type": "uint8",
                    "internalType": "uint8"
                },
                {
                    "name": "isAutoRenew",
                    "type": "bool",
                    "internalType": "bool"
                },
                {
                    "name": "tokenId",
                    "type": "uint256",
                    "internalType": "uint256"
                }
            ],
            "outputs": [],
            "stateMutability": "nonpayable"
        },
        {
            "type": "function",
            "name": "fccAddress",
            "inputs": [],
            "outputs": [
                {
                    "name": "",
                    "type": "address",
                    "internalType": "address"
                }
            ],
            "stateMutability": "view"
        },
        {
            "type": "function",
            "name": "feManagerAddress",
            "inputs": [],
            "outputs": [
                {
                    "name": "",
                    "type": "address",
                    "internalType": "contract IFishcakeEventManager"
                }
            ],
            "stateMutability": "view"
        },
        {
            "type": "function",
            "name": "getStakingAprFunding",
            "inputs": [
                {
                    "name": "amount",
                    "type": "uint256",
                    "internalType": "uint256"
                },
                {
                    "name": "messageNonce",
                    "type": "uint256",
                    "internalType": "uint256"
                }
            ],
            "outputs": [
                {
                    "name": "",
                    "type": "uint256",
                    "internalType": "uint256"
                }
            ],
            "stateMutability": "view"
        },
        {
            "type": "function",
            "name": "halfAprTimeStamp",
            "inputs": [],
            "outputs": [
                {
                    "name": "",
                    "type": "uint256",
                    "internalType": "uint256"
                }
            ],
            "stateMutability": "view"
        },
        {
            "type": "function",
            "name": "initialize",
            "inputs": [
                {
                    "name": "_initialOwner",
                    "type": "address",
                    "internalType": "address"
                },
                {
                    "name": "_fccAddress",
                    "type": "address",
                    "internalType": "address"
                },
                {
                    "name": "_feManagerAddress",
                    "type": "address",
                    "internalType": "contract IFishcakeEventManager"
                },
                {
                    "name": "_nftManagerAddress",
                    "type": "address",
                    "internalType": "contract INftManager"
                }
            ],
            "outputs": [],
            "stateMutability": "nonpayable"
        },
        {
            "type": "function",
            "name": "lockHalfYears",
            "inputs": [],
            "outputs": [
                {
                    "name": "",
                    "type": "uint256",
                    "internalType": "uint256"
                }
            ],
            "stateMutability": "view"
        },
        {
            "type": "function",
            "name": "lockNinetyDays",
            "inputs": [],
            "outputs": [
                {
                    "name": "",
                    "type": "uint256",
                    "internalType": "uint256"
                }
            ],
            "stateMutability": "view"
        },
        {
            "type": "function",
            "name": "lockOneYears",
            "inputs": [],
            "outputs": [
                {
                    "name": "",
                    "type": "uint256",
                    "internalType": "uint256"
                }
            ],
            "stateMutability": "view"
        },
        {
            "type": "function",
            "name": "lockSixtyDays",
            "inputs": [],
            "outputs": [
                {
                    "name": "",
                    "type": "uint256",
                    "internalType": "uint256"
                }
            ],
            "stateMutability": "view"
        },
        {
            "type": "function",
            "name": "lockThirtyDays",
            "inputs": [],
            "outputs": [
                {
                    "name": "",
                    "type": "uint256",
                    "internalType": "uint256"
                }
            ],
            "stateMutability": "view"
        },
        {
            "type": "function",
            "name": "messageNonce",
            "inputs": [],
            "outputs": [
                {
                    "name": "",
                    "type": "uint256",
                    "internalType": "uint256"
                }
            ],
            "stateMutability": "view"
        },
        {
            "type": "function",
            "name": "minStakeAmount",
            "inputs": [],
            "outputs": [
                {
                    "name": "",
                    "type": "uint256",
                    "internalType": "uint256"
                }
            ],
            "stateMutability": "view"
        },
        {
            "type": "function",
            "name": "nftManagerAddress",
            "inputs": [],
            "outputs": [
                {
                    "name": "",
                    "type": "address",
                    "internalType": "contract INftManager"
                }
            ],
            "stateMutability": "view"
        },
        {
            "type": "function",
            "name": "owner",
            "inputs": [],
            "outputs": [
                {
                    "name": "",
                    "type": "address",
                    "internalType": "address"
                }
            ],
            "stateMutability": "view"
        },
        {
            "type": "function",
            "name": "proxiableUUID",
            "inputs": [],
            "outputs": [
                {
                    "name": "",
                    "type": "bytes32",
                    "internalType": "bytes32"
                }
            ],
            "stateMutability": "view"
        },
        {
            "type": "function",
            "name": "renounceOwnership",
            "inputs": [],
            "outputs": [],
            "stateMutability": "nonpayable"
        },
        {
            "type": "function",
            "name": "setHalfAprTimeStamp",
            "inputs": [
                {
                    "name": "t",
                    "type": "uint256",
                    "internalType": "uint256"
                }
            ],
            "outputs": [],
            "stateMutability": "nonpayable"
        },
        {
            "type": "function",
            "name": "totalStakingAmount",
            "inputs": [],
            "outputs": [
                {
                    "name": "",
                    "type": "uint256",
                    "internalType": "uint256"
                }
            ],
            "stateMutability": "view"
        },
        {
            "type": "function",
            "name": "transferOwnership",
            "inputs": [
                {
                    "name": "newOwner",
                    "type": "address",
                    "internalType": "address"
                }
            ],
            "outputs": [],
            "stateMutability": "nonpayable"
        },
        {
            "type": "function",
            "name": "upgradeToAndCall",
            "inputs": [
                {
                    "name": "newImplementation",
                    "type": "address",
                    "internalType": "address"
                },
                {
                    "name": "data",
                    "type": "bytes",
                    "internalType": "bytes"
                }
            ],
            "outputs": [],
            "stateMutability": "payable"
        },
        {
            "type": "function",
            "name": "withdrawETHFromContract",
            "inputs": [
                {
                    "name": "to",
                    "type": "address",
                    "internalType": "address"
                },
                {
                    "name": "amount",
                    "type": "uint256",
                    "internalType": "uint256"
                }
            ],
            "outputs": [],
            "stateMutability": "nonpayable"
        },
        {
            "type": "function",
            "name": "withdrawFromStakingWithAprIncome",
            "inputs": [
                {
                    "name": "amount",
                    "type": "uint256",
                    "internalType": "uint256"
                },
                {
                    "name": "messageNonce",
                    "type": "uint256",
                    "internalType": "uint256"
                }
            ],
            "outputs": [],
            "stateMutability": "nonpayable"
        },
        {
            "type": "event",
            "name": "Initialized",
            "inputs": [
                {
                    "name": "version",
                    "type": "uint64",
                    "indexed": false,
                    "internalType": "uint64"
                }
            ],
            "anonymous": false
        },
        {
            "type": "event",
            "name": "OwnershipTransferred",
            "inputs": [
                {
                    "name": "previousOwner",
                    "type": "address",
                    "indexed": true,
                    "internalType": "address"
                },
                {
                    "name": "newOwner",
                    "type": "address",
                    "indexed": true,
                    "internalType": "address"
                }
            ],
            "anonymous": false
        },
        {
            "type": "event",
            "name": "Received",
            "inputs": [
                {
                    "name": "receiver",
                    "type": "address",
                    "indexed": true,
                    "internalType": "address"
                },
                {
                    "name": "_value",
                    "type": "uint256",
                    "indexed": false,
                    "internalType": "uint256"
                }
            ],
            "anonymous": false
        },
        {
            "type": "event",
            "name": "StakeHolderDepositStaking",
            "inputs": [
                {
                    "name": "staker",
                    "type": "address",
                    "indexed": true,
                    "internalType": "address"
                },
                {
                    "name": "amount",
                    "type": "uint256",
                    "indexed": false,
                    "internalType": "uint256"
                },
                {
                    "name": "stakingType",
                    "type": "uint8",
                    "indexed": false,
                    "internalType": "uint8"
                },
                {
                    "name": "startStakingTime",
                    "type": "uint256",
                    "indexed": false,
                    "internalType": "uint256"
                },
                {
                    "name": "endStakingTime",
                    "type": "uint256",
                    "indexed": false,
                    "internalType": "uint256"
                },
                {
                    "name": "bindingNft",
                    "type": "uint256",
                    "indexed": false,
                    "internalType": "uint256"
                },
                {
                    "name": "nftApr",
                    "type": "uint256",
                    "indexed": false,
                    "internalType": "uint256"
                },
                {
                    "name": "isAutoRenew",
                    "type": "bool",
                    "indexed": false,
                    "internalType": "bool"
                },
                {
                    "name": "messageNonce",
                    "type": "uint256",
                    "indexed": false,
                    "internalType": "uint256"
                }
            ],
            "anonymous": false
        },
        {
            "type": "event",
            "name": "StakeHolderWithdrawStaking",
            "inputs": [
                {
                    "name": "recipant",
                    "type": "address",
                    "indexed": true,
                    "internalType": "address"
                },
                {
                    "name": "withdrawAmount",
                    "type": "uint256",
                    "indexed": false,
                    "internalType": "uint256"
                },
                {
                    "name": "messageNonce",
                    "type": "uint256",
                    "indexed": false,
                    "internalType": "uint256"
                },
                {
                    "name": "messageHash",
                    "type": "bytes32",
                    "indexed": false,
                    "internalType": "bytes32"
                },
                {
                    "name": "rewardAprFunding",
                    "type": "uint256",
                    "indexed": false,
                    "internalType": "uint256"
                }
            ],
            "anonymous": false
        },
        {
            "type": "event",
            "name": "Upgraded",
            "inputs": [
                {
                    "name": "implementation",
                    "type": "address",
                    "indexed": true,
                    "internalType": "address"
                }
            ],
            "anonymous": false
        },
        {
            "type": "event",
            "name": "WithdrawETHFromContract",
            "inputs": [
                {
                    "name": "to",
                    "type": "address",
                    "indexed": true,
                    "internalType": "address"
                },
                {
                    "name": "amount",
                    "type": "uint256",
                    "indexed": false,
                    "internalType": "uint256"
                }
            ],
            "anonymous": false
        },
        {
            "type": "error",
            "name": "AddressEmptyCode",
            "inputs": [
                {
                    "name": "target",
                    "type": "address",
                    "internalType": "address"
                }
            ]
        },
        {
            "type": "error",
            "name": "AddressInsufficientBalance",
            "inputs": [
                {
                    "name": "account",
                    "type": "address",
                    "internalType": "address"
                }
            ]
        },
        {
            "type": "error",
            "name": "ERC1967InvalidImplementation",
            "inputs": [
                {
                    "name": "implementation",
                    "type": "address",
                    "internalType": "address"
                }
            ]
        },
        {
            "type": "error",
            "name": "ERC1967NonPayable",
            "inputs": []
        },
        {
            "type": "error",
            "name": "FailedInnerCall",
            "inputs": []
        },
        {
            "type": "error",
            "name": "FundingUnderStaking",
            "inputs": [
                {
                    "name": "amount",
                    "type": "uint256",
                    "internalType": "uint256"
                },
                {
                    "name": "endTime",
                    "type": "uint256",
                    "internalType": "uint256"
                }
            ]
        },
        {
            "type": "error",
            "name": "InvalidInitialization",
            "inputs": []
        },
        {
            "type": "error",
            "name": "NoFundingForStaking",
            "inputs": []
        },
        {
            "type": "error",
            "name": "NotInitializing",
            "inputs": []
        },
        {
            "type": "error",
            "name": "OwnableInvalidOwner",
            "inputs": [
                {
                    "name": "owner",
                    "type": "address",
                    "internalType": "address"
                }
            ]
        },
        {
            "type": "error",
            "name": "OwnableUnauthorizedAccount",
            "inputs": [
                {
                    "name": "account",
                    "type": "address",
                    "internalType": "address"
                }
            ]
        },
        {
            "type": "error",
            "name": "ReentrancyGuardReentrantCall",
            "inputs": []
        },
        {
            "type": "error",
            "name": "SafeERC20FailedOperation",
            "inputs": [
                {
                    "name": "token",
                    "type": "address",
                    "internalType": "address"
                }
            ]
        },
        {
            "type": "error",
            "name": "UUPSUnauthorizedCallContext",
            "inputs": []
        },
        {
            "type": "error",
            "name": "UUPSUnsupportedProxiableUUID",
            "inputs": [
                {
                    "name": "slot",
                    "type": "bytes32",
                    "internalType": "bytes32"
                }
            ]
        }
    ],
    "bytecode": {
        "object": "0x60a080604052346100fc57636a1b7a005f556103e860015562015180600255306080527ff0c57e16840df040f15088dc2f81fe391c3923bec73e23a9662efc9c229c6a005460ff8160401c166100ed576002600160401b03196001600160401b03821601610087575b6040516117e890816101018239608051818181610efd0152610fcd0152f35b6001600160401b0319166001600160401b039081177ff0c57e16840df040f15088dc2f81fe391c3923bec73e23a9662efc9c229c6a005581527fc7f505b2f371ae2175ee4913f4499e1f2633a7b5936321eed1cdaeb6115181d290602090a15f80610068565b63f92ee8a960e01b5f5260045ffd5b5f80fdfe6080806040526004361015610048575b50361561001a575f80fd5b6040513481527f88a5966d370b9919b20f3e2c13ff65706f196a4e32cc2c12bf57088f8852587460203392a2005b5f905f3560e01c9081631979e37f146111a25750806341971eb2146111855780634bc92c861461115d5780634f1ef28614610f5157806352d1902d14610eeb57806358e5aca614610ece5780636a8049f814610eb0578063715018a614610e495780638da5cb5b14610e1557806394e2daba14610df857806395fbba0b14610d17578063a678129d14610b47578063ad3cb1cc14610ae9578063c837d04614610acc578063d201114a14610aaf578063d5aa93c814610a87578063de8ad38f14610a6b578063eb44d77514610701578063ecc70428146106e3578063ed07f565146104ac578063ee65347314610483578063f188768414610465578063f2fde38b14610438578063f75e3a9614610416578063f8956f49146103f85763f8c8765e0361000f57346103f55760803660031901126103f5576101876111bd565b6024356001600160a01b03811691908290036103f1576044356001600160a01b03811691908290036103ed576064356001600160a01b03811693908490036103e9575f80516020611793833981519152549360ff8560401c16159467ffffffffffffffff8116801590816103e1575b60011490816103d7575b1590816103ce575b506103bf5767ffffffffffffffff1981166001175f805160206117938339815191525585610393575b506001600160a01b038316156103285761029c936001600160601b0360a01b60065416176006556001600160601b0360a01b60075416176007556001600160601b0360a01b60045416176004556102866116a9565b61028e6116a9565b61029781611284565b6112e4565b6102a46116a9565b6102ac6116a9565b60015f80516020611773833981519152556102c56116a9565b816005556102d05780f35b68ff0000000000000000195f8051602061179383398151915254165f80516020611793833981519152557fc7f505b2f371ae2175ee4913f4499e1f2633a7b5936321eed1cdaeb6115181d2602060405160018152a180f35b60405162461bcd60e51b815260206004820152603e60248201527f5374616b696e674d616e6167657220696e697469616c697a653a205f696e697460448201527f69616c4f776e65722063616e2774206265207a65726f206164647265737300006064820152608490fd5b68ffffffffffffffffff191668010000000000000001175f80516020611793833981519152555f610231565b63f92ee8a960e01b8752600487fd5b9050155f610208565b303b159150610200565b8791506101f6565b8480fd5b8380fd5b8280fd5b80fd5b50346103f557806003193601126103f557602060405162ed4e008152f35b50346103f55760203660031901126103f5576104306112b1565b600435815580f35b50346103f55760203660031901126103f5576104626104556111bd565b61045d6112b1565b611284565b80f35b50346103f557806003193601126103f5576020604051629896808152f35b50346103f557806003193601126103f5576006546040516001600160a01b039091168152602090f35b50346103f5576104bb36611211565b6104c3611414565b6004546040805133602082019081526001600160a01b039093169181019190915260608101849052608081018390526105098160a081015b03601f1981018352826111d3565b51902033845260086020526040842081855260205260036040852001548042106106cc575033845260086020526040842081855260205260ff6004604086200154166106935761055b83600354611277565b60035533845260086020526040842081855260205260046040852001600160ff19825416179055338452600860205260408420818552602052610615600160408620015433865260086020526040862083875260205260ff600460408820015460081c163387526008602052604087208488526020526040872054338852600860205260408820858952602052600560408920015491338952600860205260408920868a5260205260ff600660408b20015416933361134b565b9161062b843360018060a01b03600454166115f9565b60045461064490849033906001600160a01b03166115f9565b6040519384526020840152604083015260608201527f14040216a07a7cbe47a104adec603100a42f8d5ad1dab9b72982a67f8ac4ebda60803392a260015f805160206117738339815191525580f35b60405162461bcd60e51b815260206004820152601160248201527030b63932b0b23c903bb4ba34323930bbb760791b6044820152606490fd5b635383244560e11b85526004849052602452604484fd5b50346103f557806003193601126103f5576020600554604051908152f35b50346109ce5760803660031901126109ce576024359060ff82166004358184036109ce576044358015158091036109ce576064359461073e611414565b6298968083106109e6576004546040516323b872dd60e01b60208201523360248201523060448201526064808201869052815261078e916001600160a01b03166107896084836111d3565b611635565b6004546005546040805133602082019081526001600160a01b039094169181019190915260608101869052608081018290529097916107e9916107e291906107d98160a081016104fb565b5190209361144c565b5042611256565b6107f282611539565b92604051610100810181811067ffffffffffffffff8211176109d2576040524281526020810199878b52604082019081526060820184815260808301905f825260a08401908b825260c085019388855260e08601968b885260018060a01b0360075416803b156109ce5760405163685fbb5160e01b8152336004820152602481018c9052905f908290604490829084905af180156109c3576109a0575b509e8e9f600698999a9b9c9d9e9f6040913382526008602052828220908252602052209651875551600187015551600286015551600385015560ff6004850192511660ff198354161782555161ff0082549160081b169061ff001916179055516005820155019051151560ff8019835416911617905561091185600354611256565b6003556005549560405195865260208601524260408601526060850152608084015260a083015260c08201528160e08201527f0c1c260f1025eef714f221f5eaf7f127b645e853b7bc9e9e6c57e06d2d0cf6086101003392a25f19811461098c5760010160055560015f805160206117738339815191525580f35b634e487b7160e01b82526011600452602482fd5b6109b49198999a9b9c9d9e9f505f906111d3565b5f9d9c9b9a999897965f61088f565b6040513d5f823e3d90fd5b5f80fd5b634e487b7160e01b5f52604160045260245ffd5b60405162461bcd60e51b815260206004820152605160248201527f5374616b696e674d616e61676572204465706f736974496e746f5374616b696e60448201527f673a207374616b696e6720616d6f756e74206d757374206265206174206c65616064820152701cdd081b5a5b94dd185ad9505b5bdd5b9d607a1b608482015260a490fd5b346109ce575f3660031901126109ce5760205f54604051908152f35b346109ce575f3660031901126109ce576007546040516001600160a01b039091168152602090f35b346109ce575f3660031901126109ce576020600354604051908152f35b346109ce575f3660031901126109ce576020600254604051908152f35b346109ce575f3660031901126109ce576040805190610b0881836111d3565b600582526020820191640352e302e360dc1b83528151928391602083525180918160208501528484015e5f828201840152601f01601f19168101030190f35b346109ce5760403660031901126109ce57610b606111bd565b602435610b6b6112b1565b6001600160a01b038216918215610cad57478211610c31575f80808481945af1610b93611227565b5015610bc65760207f10bf05c0c841bf1cc64c2e5bb3f7beceba9587003356ef84b4670ea3fc982cce91604051908152a2005b60405162461bcd60e51b815260206004820152603760248201527f5374616b696e674d616e6167657220776974686472617745544846726f6d436f60448201527f6e74726163743a205769746864726177206661696c65640000000000000000006064820152608490fd5b60405162461bcd60e51b815260206004820152604860248201527f5374616b696e674d616e6167657220776974686472617745544846726f6d436f60448201527f6e74726163743a20616d6f756e74206d757374206265206c657373207468616e6064820152672062616c616e636560c01b608482015260a490fd5b608460405162461bcd60e51b815260206004820152604060248201527f5374616b696e674d616e6167657220776974686472617745544846726f6d436f60448201527f6e74726163743a20746f2063616e2774206265207a65726f20616464726573736064820152fd5b346109ce576020610df0610d2a36611211565b60045460408051338782019081526001600160a01b03909316602084015290820193909352606081019190915290610d6581608084016104fb565b519020335f526008835260405f20815f528352600160405f20015490335f526008845260405f20815f52845260ff600460405f20015460081c16335f526008855260405f20825f52855260405f205490335f526008865260405f20835f528652600560405f20015492335f526008875260405f20905f52865260ff600660405f20015416933361134b565b604051908152f35b346109ce575f3660031901126109ce576020600154604051908152f35b346109ce575f3660031901126109ce575f80516020611733833981519152546040516001600160a01b039091168152602090f35b346109ce575f3660031901126109ce57610e616112b1565b5f8051602061173383398151915280546001600160a01b031981169091555f906001600160a01b03167f8be0079c531659141344cd1fd0a4f28419497f9722a3daafe3b4186f6b6457e08280a3005b346109ce575f3660031901126109ce5760206040516301da9c008152f35b346109ce575f3660031901126109ce5760206040516276a7008152f35b346109ce575f3660031901126109ce577f00000000000000000000000000000000000000000000000000000000000000006001600160a01b03163003610f425760206040515f805160206117538339815191528152f35b63703e46dd60e11b5f5260045ffd5b60403660031901126109ce57610f656111bd565b6024359067ffffffffffffffff82116109ce57366023830112156109ce57816004013590610f92826111f5565b91610fa060405193846111d3565b808352602083019336602483830101116109ce57815f926024602093018737840101526001600160a01b037f00000000000000000000000000000000000000000000000000000000000000001630811490811561113b575b50610f42576110056112b1565b6040516352d1902d60e01b81526001600160a01b0382169390602081600481885afa5f9181611107575b506110475784634c9c8ce360e01b5f5260045260245ffd5b805f805160206117538339815191528692036110f55750823b156110e3575f8051602061175383398151915280546001600160a01b031916821790557fbc7cd75a20ee27fd9adebab32041f755214dbc6bffa90cc0225b39da2e5c2d3b5f80a28251156110ca575f80916110c8945190845af46110c2611227565b916116d4565b005b505050346110d457005b63b398979f60e01b5f5260045ffd5b634c9c8ce360e01b5f5260045260245ffd5b632a87526960e21b5f5260045260245ffd5b9091506020813d602011611133575b81611123602093836111d3565b810103126109ce5751908661102f565b3d9150611116565b5f80516020611753833981519152546001600160a01b03161415905084610ff8565b346109ce575f3660031901126109ce576004546040516001600160a01b039091168152602090f35b346109ce575f3660031901126109ce57602060405162278d008152f35b346109ce575f3660031901126109ce5780624f1a0060209252f35b600435906001600160a01b03821682036109ce57565b90601f8019910116810190811067ffffffffffffffff8211176109d257604052565b67ffffffffffffffff81116109d257601f01601f191660200190565b60409060031901126109ce576004359060243590565b3d15611251573d90611238826111f5565b9161124660405193846111d3565b82523d5f602084013e565b606090565b9190820180921161126357565b634e487b7160e01b5f52601160045260245ffd5b9190820391821161126357565b6001600160a01b0381161561129e5761129c906112e4565b565b631e4fbdf760e01b5f525f60045260245ffd5b5f80516020611733833981519152546001600160a01b031633036112d157565b63118cdaa760e01b5f523360045260245ffd5b5f8051602061173383398151915280546001600160a01b039283166001600160a01b0319821681179092559091167f8be0079c531659141344cd1fd0a4f28419497f9722a3daafe3b4186f6b6457e05f80a3565b8181029291811591840414171561126357565b5091929361137761136761136161137097611539565b9361144c565b80979194611256565b9442611277565b908282119081159161140c575b501561140457935b818510156113c1575050916113a96113ae9263bbf81e0094611338565b611338565b045b5f5442106113be5760011c90565b90565b936113f2826113ec6113ff9763bbf81e006113e56113f8976113a98a9b849b611338565b0497611338565b92611277565b90611338565b0490611256565b6113b0565b50809361138c565b90505f611384565b60025f80516020611773833981519152541461143d5760025f8051602061177383398151915255565b633ee5aeb560e01b5f5260045ffd5b60ff168015158061152f575b1561149e5760018103611470575062278d0090600390565b600281036114835750624f1a0090600690565b600303611494576276a70090600990565b62ed4e0090600f90565b60405162461bcd60e51b815260206004820152605760248201527f5374616b696e674d616e61676572206765745374616b696e67506572696f643a60448201527f207374616b696e675479706520616d6f756e74206d757374206265206d6f726560648201527f207468616e203020616e64206c657373207468616e2035000000000000000000608482015260a490fd5b5060058110611458565b600754604051631510f4f760e01b81526004810192909252602090829060249082906001600160a01b03165afa80156109c3575f906115bc575b60ff169050600681036115865750601490565b600581036115945750600f90565b600481036115a25750600990565b600381036115b05750600590565b6115b8575f90565b5f90565b506020813d6020116115f1575b816115d6602093836111d3565b810103126109ce575160ff811681036109ce5760ff90611573565b3d91506115c9565b60405163a9059cbb60e01b60208201526001600160a01b0392909216602483015260448083019390935291815261129c916107896064836111d3565b5f8061165d9260018060a01b03169360208151910182865af1611656611227565b90836116d4565b8051908115159182611685575b50506116735750565b635274afe760e01b5f5260045260245ffd5b81925090602091810103126109ce57602001518015908115036109ce575f8061166a565b60ff5f805160206117938339815191525460401c16156116c557565b631afcd79f60e31b5f5260045ffd5b906116f857508051156116e957805190602001fd5b630a12f52160e11b5f5260045ffd5b81511580611729575b611709575090565b639996b31560e01b5f9081526001600160a01b0391909116600452602490fd5b50803b1561170156fe9016d09d72d40fdae2fd8ceac6b6234c7706214fd39c1cd1e609a0528c199300360894a13ba1a3210667c828492db98dca3e2076cc3735a920a3ca505d382bbc9b779b17422d0df92223018b32b4d1fa46e071723d6817e2486d003becc55f00f0c57e16840df040f15088dc2f81fe391c3923bec73e23a9662efc9c229c6a00a2646970667358221220517d4224e75385d7b27fd8af941ef165e4d80c62ec67ea228f85ead597b1018664736f6c634300081a0033",
        "linkReferences": {}
    },
    "methodIdentifiers": {
        "UPGRADE_INTERFACE_VERSION()": "ad3cb1cc",
        "aprOffset()": "94e2daba",
        "dayTimeStamp()": "c837d046",
        "depositIntoStaking(uint256,uint8,bool,uint256)": "eb44d775",
        "fccAddress()": "4bc92c86",
        "feManagerAddress()": "ee653473",
        "getStakingAprFunding(uint256,uint256)": "95fbba0b",
        "halfAprTimeStamp()": "de8ad38f",
        "initialize(address,address,address,address)": "f8c8765e",
        "lockHalfYears()": "f8956f49",
        "lockNinetyDays()": "58e5aca6",
        "lockOneYears()": "6a8049f8",
        "lockSixtyDays()": "1979e37f",
        "lockThirtyDays()": "41971eb2",
        "messageNonce()": "ecc70428",
        "minStakeAmount()": "f1887684",
        "nftManagerAddress()": "d5aa93c8",
        "owner()": "8da5cb5b",
        "proxiableUUID()": "52d1902d",
        "renounceOwnership()": "715018a6",
        "setHalfAprTimeStamp(uint256)": "f75e3a96",
        "totalStakingAmount()": "d201114a",
        "transferOwnership(address)": "f2fde38b",
        "upgradeToAndCall(address,bytes)": "4f1ef286",
        "withdrawETHFromContract(address,uint256)": "a678129d",
        "withdrawFromStakingWithAprIncome(uint256,uint256)": "ed07f565"
    },
    "storageLayout": {
        "storage": [
            {
                "astId": 55156,
                "contract": "src/contracts/core/StakingManager.sol:StakingManager",
                "label": "halfAprTimeStamp",
                "offset": 0,
                "slot": "0",
                "type": "t_uint256"
            },
            {
                "astId": 55159,
                "contract": "src/contracts/core/StakingManager.sol:StakingManager",
                "label": "aprOffset",
                "offset": 0,
                "slot": "1",
                "type": "t_uint256"
            },
            {
                "astId": 55162,
                "contract": "src/contracts/core/StakingManager.sol:StakingManager",
                "label": "dayTimeStamp",
                "offset": 0,
                "slot": "2",
                "type": "t_uint256"
            },
            {
                "astId": 55164,
                "contract": "src/contracts/core/StakingManager.sol:StakingManager",
                "label": "totalStakingAmount",
                "offset": 0,
                "slot": "3",
                "type": "t_uint256"
            },
            {
                "astId": 55166,
                "contract": "src/contracts/core/StakingManager.sol:StakingManager",
                "label": "fccAddress",
                "offset": 0,
                "slot": "4",
                "type": "t_address"
            },
            {
                "astId": 55168,
                "contract": "src/contracts/core/StakingManager.sol:StakingManager",
                "label": "messageNonce",
                "offset": 0,
                "slot": "5",
                "type": "t_uint256"
            },
            {
                "astId": 55171,
                "contract": "src/contracts/core/StakingManager.sol:StakingManager",
                "label": "feManagerAddress",
                "offset": 0,
                "slot": "6",
                "type": "t_contract(IFishcakeEventManager)63310"
            },
            {
                "astId": 55174,
                "contract": "src/contracts/core/StakingManager.sol:StakingManager",
                "label": "nftManagerAddress",
                "offset": 0,
                "slot": "7",
                "type": "t_contract(INftManager)63437"
            },
            {
                "astId": 55198,
                "contract": "src/contracts/core/StakingManager.sol:StakingManager",
                "label": "stakingQueued",
                "offset": 0,
                "slot": "8",
                "type": "t_mapping(t_address,t_mapping(t_bytes32,t_struct(stakeHolderStakingInfo)55191_storage))"
            },
            {
                "astId": 55202,
                "contract": "src/contracts/core/StakingManager.sol:StakingManager",
                "label": "__gap",
                "offset": 0,
                "slot": "9",
                "type": "t_array(t_uint256)100_storage"
            }
        ],
        "types": {
            "t_address": {
                "encoding": "inplace",
                "label": "address",
                "numberOfBytes": "20"
            },
            "t_array(t_uint256)100_storage": {
                "encoding": "inplace",
                "label": "uint256[100]",
                "numberOfBytes": "3200",
                "base": "t_uint256"
            },
            "t_bool": {
                "encoding": "inplace",
                "label": "bool",
                "numberOfBytes": "1"
            },
            "t_bytes32": {
                "encoding": "inplace",
                "label": "bytes32",
                "numberOfBytes": "32"
            },
            "t_contract(IFishcakeEventManager)63310": {
                "encoding": "inplace",
                "label": "contract IFishcakeEventManager",
                "numberOfBytes": "20"
            },
            "t_contract(INftManager)63437": {
                "encoding": "inplace",
                "label": "contract INftManager",
                "numberOfBytes": "20"
            },
            "t_mapping(t_address,t_mapping(t_bytes32,t_struct(stakeHolderStakingInfo)55191_storage))": {
                "encoding": "mapping",
                "key": "t_address",
                "label": "mapping(address => mapping(bytes32 => struct StakingManagerStorage.stakeHolderStakingInfo))",
                "numberOfBytes": "32",
                "value": "t_mapping(t_bytes32,t_struct(stakeHolderStakingInfo)55191_storage)"
            },
            "t_mapping(t_bytes32,t_struct(stakeHolderStakingInfo)55191_storage)": {
                "encoding": "mapping",
                "key": "t_bytes32",
                "label": "mapping(bytes32 => struct StakingManagerStorage.stakeHolderStakingInfo)",
                "numberOfBytes": "32",
                "value": "t_struct(stakeHolderStakingInfo)55191_storage"
            },
            "t_struct(stakeHolderStakingInfo)55191_storage": {
                "encoding": "inplace",
                "label": "struct StakingManagerStorage.stakeHolderStakingInfo",
                "numberOfBytes": "224",
                "members": [
                    {
                        "astId": 55176,
                        "contract": "src/contracts/core/StakingManager.sol:StakingManager",
                        "label": "startStakingTime",
                        "offset": 0,
                        "slot": "0",
                        "type": "t_uint256"
                    },
                    {
                        "astId": 55178,
                        "contract": "src/contracts/core/StakingManager.sol:StakingManager",
                        "label": "amount",
                        "offset": 0,
                        "slot": "1",
                        "type": "t_uint256"
                    },
                    {
                        "astId": 55180,
                        "contract": "src/contracts/core/StakingManager.sol:StakingManager",
                        "label": "messageNonce",
                        "offset": 0,
                        "slot": "2",
                        "type": "t_uint256"
                    },
                    {
                        "astId": 55182,
                        "contract": "src/contracts/core/StakingManager.sol:StakingManager",
                        "label": "endStakingTime",
                        "offset": 0,
                        "slot": "3",
                        "type": "t_uint256"
                    },
                    {
                        "astId": 55184,
                        "contract": "src/contracts/core/StakingManager.sol:StakingManager",
                        "label": "stakingStatus",
                        "offset": 0,
                        "slot": "4",
                        "type": "t_uint8"
                    },
                    {
                        "astId": 55186,
                        "contract": "src/contracts/core/StakingManager.sol:StakingManager",
                        "label": "stakingType",
                        "offset": 1,
                        "slot": "4",
                        "type": "t_uint8"
                    },
                    {
                        "astId": 55188,
                        "contract": "src/contracts/core/StakingManager.sol:StakingManager",
                        "label": "bindingNft",
                        "offset": 0,
                        "slot": "5",
                        "type": "t_uint256"
                    },
                    {
                        "astId": 55190,
                        "contract": "src/contracts/core/StakingManager.sol:StakingManager",
                        "label": "isAutoRenew",
                        "offset": 0,
                        "slot": "6",
                        "type": "t_bool"
                    }
                ]
            },
            "t_uint256": {
                "encoding": "inplace",
                "label": "uint256",
                "numberOfBytes": "32"
            },
            "t_uint8": {
                "encoding": "inplace",
                "label": "uint8",
                "numberOfBytes": "1"
            }
        }
    },
    "id": 85
}