{
    "abi": [
        {
            "type": "constructor",
            "inputs": [],
            "stateMutability": "nonpayable"
        },
        {
            "type": "function",
            "name": "FccTokenAddr",
            "inputs": [],
            "outputs": [
                {
                    "name": "",
                    "type": "address",
                    "internalType": "contract IERC20"
                }
            ],
            "stateMutability": "view"
        },
        {
            "type": "function",
            "name": "NTFLastMineTime",
            "inputs": [
                {
                    "name": "",
                    "type": "address",
                    "internalType": "address"
                }
            ],
            "outputs": [
                {
                    "name": "",
                    "type": "uint256",
                    "internalType": "uint256"
                }
            ],
            "stateMutability": "view"
        },
        {
            "type": "function",
            "name": "UsdtTokenAddr",
            "inputs": [],
            "outputs": [
                {
                    "name": "",
                    "type": "address",
                    "internalType": "contract IERC20"
                }
            ],
            "stateMutability": "view"
        },
        {
            "type": "function",
            "name": "activityAdd",
            "inputs": [
                {
                    "name": "_businessName",
                    "type": "string",
                    "internalType": "string"
                },
                {
                    "name": "_activityContent",
                    "type": "string",
                    "internalType": "string"
                },
                {
                    "name": "_latitudeLongitude",
                    "type": "string",
                    "internalType": "string"
                },
                {
                    "name": "_activityDeadLine",
                    "type": "uint256",
                    "internalType": "uint256"
                },
                {
                    "name": "_totalDropAmts",
                    "type": "uint256",
                    "internalType": "uint256"
                },
                {
                    "name": "_dropType",
                    "type": "uint8",
                    "internalType": "uint8"
                },
                {
                    "name": "_dropNumber",
                    "type": "uint256",
                    "internalType": "uint256"
                },
                {
                    "name": "_minDropAmt",
                    "type": "uint256",
                    "internalType": "uint256"
                },
                {
                    "name": "_maxDropAmt",
                    "type": "uint256",
                    "internalType": "uint256"
                },
                {
                    "name": "_tokenContractAddr",
                    "type": "address",
                    "internalType": "address"
                }
            ],
            "outputs": [
                {
                    "name": "",
                    "type": "bool",
                    "internalType": "bool"
                },
                {
                    "name": "",
                    "type": "uint256",
                    "internalType": "uint256"
                }
            ],
            "stateMutability": "nonpayable"
        },
        {
            "type": "function",
            "name": "activityDroppedToAccount",
            "inputs": [
                {
                    "name": "",
                    "type": "uint256",
                    "internalType": "uint256"
                },
                {
                    "name": "",
                    "type": "address",
                    "internalType": "address"
                }
            ],
            "outputs": [
                {
                    "name": "",
                    "type": "bool",
                    "internalType": "bool"
                }
            ],
            "stateMutability": "view"
        },
        {
            "type": "function",
            "name": "activityFinish",
            "inputs": [
                {
                    "name": "_activityId",
                    "type": "uint256",
                    "internalType": "uint256"
                }
            ],
            "outputs": [
                {
                    "name": "",
                    "type": "bool",
                    "internalType": "bool"
                }
            ],
            "stateMutability": "nonpayable"
        },
        {
            "type": "function",
            "name": "activityInfoArrs",
            "inputs": [
                {
                    "name": "",
                    "type": "uint256",
                    "internalType": "uint256"
                }
            ],
            "outputs": [
                {
                    "name": "activityId",
                    "type": "uint256",
                    "internalType": "uint256"
                },
                {
                    "name": "businessAccount",
                    "type": "address",
                    "internalType": "address"
                },
                {
                    "name": "businessName",
                    "type": "string",
                    "internalType": "string"
                },
                {
                    "name": "activityContent",
                    "type": "string",
                    "internalType": "string"
                },
                {
                    "name": "latitudeLongitude",
                    "type": "string",
                    "internalType": "string"
                },
                {
                    "name": "activityCreateTime",
                    "type": "uint256",
                    "internalType": "uint256"
                },
                {
                    "name": "activityDeadLine",
                    "type": "uint256",
                    "internalType": "uint256"
                },
                {
                    "name": "dropType",
                    "type": "uint8",
                    "internalType": "uint8"
                },
                {
                    "name": "dropNumber",
                    "type": "uint256",
                    "internalType": "uint256"
                },
                {
                    "name": "minDropAmt",
                    "type": "uint256",
                    "internalType": "uint256"
                },
                {
                    "name": "maxDropAmt",
                    "type": "uint256",
                    "internalType": "uint256"
                },
                {
                    "name": "tokenContractAddr",
                    "type": "address",
                    "internalType": "address"
                }
            ],
            "stateMutability": "view"
        },
        {
            "type": "function",
            "name": "activityInfoChangedIdx",
            "inputs": [
                {
                    "name": "",
                    "type": "uint256",
                    "internalType": "uint256"
                }
            ],
            "outputs": [
                {
                    "name": "",
                    "type": "uint256",
                    "internalType": "uint256"
                }
            ],
            "stateMutability": "view"
        },
        {
            "type": "function",
            "name": "activityInfoExtArrs",
            "inputs": [
                {
                    "name": "",
                    "type": "uint256",
                    "internalType": "uint256"
                }
            ],
            "outputs": [
                {
                    "name": "activityId",
                    "type": "uint256",
                    "internalType": "uint256"
                },
                {
                    "name": "alreadyDropAmts",
                    "type": "uint256",
                    "internalType": "uint256"
                },
                {
                    "name": "alreadyDropNumber",
                    "type": "uint256",
                    "internalType": "uint256"
                },
                {
                    "name": "businessMinedAmt",
                    "type": "uint256",
                    "internalType": "uint256"
                },
                {
                    "name": "businessMinedWithdrawedAmt",
                    "type": "uint256",
                    "internalType": "uint256"
                },
                {
                    "name": "activityStatus",
                    "type": "uint8",
                    "internalType": "uint8"
                }
            ],
            "stateMutability": "view"
        },
        {
            "type": "function",
            "name": "allowance",
            "inputs": [
                {
                    "name": "owner",
                    "type": "address",
                    "internalType": "address"
                },
                {
                    "name": "spender",
                    "type": "address",
                    "internalType": "address"
                }
            ],
            "outputs": [
                {
                    "name": "",
                    "type": "uint256",
                    "internalType": "uint256"
                }
            ],
            "stateMutability": "view"
        },
        {
            "type": "function",
            "name": "approve",
            "inputs": [
                {
                    "name": "spender",
                    "type": "address",
                    "internalType": "address"
                },
                {
                    "name": "value",
                    "type": "uint256",
                    "internalType": "uint256"
                }
            ],
            "outputs": [
                {
                    "name": "",
                    "type": "bool",
                    "internalType": "bool"
                }
            ],
            "stateMutability": "nonpayable"
        },
        {
            "type": "function",
            "name": "balanceOf",
            "inputs": [
                {
                    "name": "account",
                    "type": "address",
                    "internalType": "address"
                }
            ],
            "outputs": [
                {
                    "name": "",
                    "type": "uint256",
                    "internalType": "uint256"
                }
            ],
            "stateMutability": "view"
        },
        {
            "type": "function",
            "name": "burn",
            "inputs": [
                {
                    "name": "value",
                    "type": "uint256",
                    "internalType": "uint256"
                }
            ],
            "outputs": [],
            "stateMutability": "nonpayable"
        },
        {
            "type": "function",
            "name": "burnFrom",
            "inputs": [
                {
                    "name": "account",
                    "type": "address",
                    "internalType": "address"
                },
                {
                    "name": "value",
                    "type": "uint256",
                    "internalType": "uint256"
                }
            ],
            "outputs": [],
            "stateMutability": "nonpayable"
        },
        {
            "type": "function",
            "name": "decimals",
            "inputs": [],
            "outputs": [
                {
                    "name": "",
                    "type": "uint8",
                    "internalType": "uint8"
                }
            ],
            "stateMutability": "view"
        },
        {
            "type": "function",
            "name": "deleteMinedFishcakePower",
            "inputs": [
                {
                    "name": "_miner",
                    "type": "address",
                    "internalType": "address"
                }
            ],
            "outputs": [],
            "stateMutability": "nonpayable"
        },
        {
            "type": "function",
            "name": "deleteMinerMineAmount",
            "inputs": [
                {
                    "name": "_miner",
                    "type": "address",
                    "internalType": "address"
                }
            ],
            "outputs": [],
            "stateMutability": "nonpayable"
        },
        {
            "type": "function",
            "name": "drop",
            "inputs": [
                {
                    "name": "_activityId",
                    "type": "uint256",
                    "internalType": "uint256"
                },
                {
                    "name": "_userAccount",
                    "type": "address",
                    "internalType": "address"
                },
                {
                    "name": "_dropAmt",
                    "type": "uint256",
                    "internalType": "uint256"
                }
            ],
            "outputs": [
                {
                    "name": "",
                    "type": "bool",
                    "internalType": "bool"
                }
            ],
            "stateMutability": "nonpayable"
        },
        {
            "type": "function",
            "name": "dropInfoArrs",
            "inputs": [
                {
                    "name": "",
                    "type": "uint256",
                    "internalType": "uint256"
                }
            ],
            "outputs": [
                {
                    "name": "activityId",
                    "type": "uint256",
                    "internalType": "uint256"
                },
                {
                    "name": "userAccount",
                    "type": "address",
                    "internalType": "address"
                },
                {
                    "name": "dropTime",
                    "type": "uint256",
                    "internalType": "uint256"
                },
                {
                    "name": "dropAmt",
                    "type": "uint256",
                    "internalType": "uint256"
                }
            ],
            "stateMutability": "view"
        },
        {
            "type": "function",
            "name": "getMinedFishcakePower",
            "inputs": [
                {
                    "name": "_miner",
                    "type": "address",
                    "internalType": "address"
                }
            ],
            "outputs": [
                {
                    "name": "",
                    "type": "uint256",
                    "internalType": "uint256"
                }
            ],
            "stateMutability": "view"
        },
        {
            "type": "function",
            "name": "getMinerMineAmount",
            "inputs": [
                {
                    "name": "_miner",
                    "type": "address",
                    "internalType": "address"
                }
            ],
            "outputs": [
                {
                    "name": "",
                    "type": "uint256",
                    "internalType": "uint256"
                }
            ],
            "stateMutability": "view"
        },
        {
            "type": "function",
            "name": "iNFTManager",
            "inputs": [],
            "outputs": [
                {
                    "name": "",
                    "type": "address",
                    "internalType": "contract INftManager"
                }
            ],
            "stateMutability": "view"
        },
        {
            "type": "function",
            "name": "initialize",
            "inputs": [
                {
                    "name": "_initialOwner",
                    "type": "address",
                    "internalType": "address"
                },
                {
                    "name": "_fccAddress",
                    "type": "address",
                    "internalType": "address"
                },
                {
                    "name": "_usdtTokenAddr",
                    "type": "address",
                    "internalType": "address"
                },
                {
                    "name": "_NFTManagerAddr",
                    "type": "address",
                    "internalType": "address"
                }
            ],
            "outputs": [],
            "stateMutability": "nonpayable"
        },
        {
            "type": "function",
            "name": "isMint",
            "inputs": [],
            "outputs": [
                {
                    "name": "",
                    "type": "bool",
                    "internalType": "bool"
                }
            ],
            "stateMutability": "view"
        },
        {
            "type": "function",
            "name": "maxDeadLine",
            "inputs": [],
            "outputs": [
                {
                    "name": "",
                    "type": "uint256",
                    "internalType": "uint256"
                }
            ],
            "stateMutability": "view"
        },
        {
            "type": "function",
            "name": "merchantOnceMaxMineAmt",
            "inputs": [],
            "outputs": [
                {
                    "name": "",
                    "type": "uint256",
                    "internalType": "uint256"
                }
            ],
            "stateMutability": "view"
        },
        {
            "type": "function",
            "name": "minePercent",
            "inputs": [],
            "outputs": [
                {
                    "name": "",
                    "type": "uint8",
                    "internalType": "uint8"
                }
            ],
            "stateMutability": "view"
        },
        {
            "type": "function",
            "name": "minedAmt",
            "inputs": [],
            "outputs": [
                {
                    "name": "",
                    "type": "uint256",
                    "internalType": "uint256"
                }
            ],
            "stateMutability": "view"
        },
        {
            "type": "function",
            "name": "minedFishcakePower",
            "inputs": [
                {
                    "name": "",
                    "type": "address",
                    "internalType": "address"
                }
            ],
            "outputs": [
                {
                    "name": "",
                    "type": "uint256",
                    "internalType": "uint256"
                }
            ],
            "stateMutability": "view"
        },
        {
            "type": "function",
            "name": "minerMineAmount",
            "inputs": [
                {
                    "name": "",
                    "type": "address",
                    "internalType": "address"
                }
            ],
            "outputs": [
                {
                    "name": "",
                    "type": "uint256",
                    "internalType": "uint256"
                }
            ],
            "stateMutability": "view"
        },
        {
            "type": "function",
            "name": "name",
            "inputs": [],
            "outputs": [
                {
                    "name": "",
                    "type": "string",
                    "internalType": "string"
                }
            ],
            "stateMutability": "view"
        },
        {
            "type": "function",
            "name": "oneDay",
            "inputs": [],
            "outputs": [
                {
                    "name": "",
                    "type": "uint256",
                    "internalType": "uint256"
                }
            ],
            "stateMutability": "view"
        },
        {
            "type": "function",
            "name": "owner",
            "inputs": [],
            "outputs": [
                {
                    "name": "",
                    "type": "address",
                    "internalType": "address"
                }
            ],
            "stateMutability": "view"
        },
        {
            "type": "function",
            "name": "renounceOwnership",
            "inputs": [],
            "outputs": [],
            "stateMutability": "nonpayable"
        },
        {
            "type": "function",
            "name": "symbol",
            "inputs": [],
            "outputs": [
                {
                    "name": "",
                    "type": "string",
                    "internalType": "string"
                }
            ],
            "stateMutability": "view"
        },
        {
            "type": "function",
            "name": "totalMineAmt",
            "inputs": [],
            "outputs": [
                {
                    "name": "",
                    "type": "uint256",
                    "internalType": "uint256"
                }
            ],
            "stateMutability": "view"
        },
        {
            "type": "function",
            "name": "totalSupply",
            "inputs": [],
            "outputs": [
                {
                    "name": "",
                    "type": "uint256",
                    "internalType": "uint256"
                }
            ],
            "stateMutability": "view"
        },
        {
            "type": "function",
            "name": "transfer",
            "inputs": [
                {
                    "name": "to",
                    "type": "address",
                    "internalType": "address"
                },
                {
                    "name": "value",
                    "type": "uint256",
                    "internalType": "uint256"
                }
            ],
            "outputs": [
                {
                    "name": "",
                    "type": "bool",
                    "internalType": "bool"
                }
            ],
            "stateMutability": "nonpayable"
        },
        {
            "type": "function",
            "name": "transferFrom",
            "inputs": [
                {
                    "name": "from",
                    "type": "address",
                    "internalType": "address"
                },
                {
                    "name": "to",
                    "type": "address",
                    "internalType": "address"
                },
                {
                    "name": "value",
                    "type": "uint256",
                    "internalType": "uint256"
                }
            ],
            "outputs": [
                {
                    "name": "",
                    "type": "bool",
                    "internalType": "bool"
                }
            ],
            "stateMutability": "nonpayable"
        },
        {
            "type": "function",
            "name": "transferOwnership",
            "inputs": [
                {
                    "name": "newOwner",
                    "type": "address",
                    "internalType": "address"
                }
            ],
            "outputs": [],
            "stateMutability": "nonpayable"
        },
        {
            "type": "function",
            "name": "userOnceMaxMineAmt",
            "inputs": [],
            "outputs": [
                {
                    "name": "",
                    "type": "uint256",
                    "internalType": "uint256"
                }
            ],
            "stateMutability": "view"
        },
        {
            "type": "event",
            "name": "ActivityAdd",
            "inputs": [
                {
                    "name": "who",
                    "type": "address",
                    "indexed": true,
                    "internalType": "address"
                },
                {
                    "name": "_activityId",
                    "type": "uint256",
                    "indexed": true,
                    "internalType": "uint256"
                },
                {
                    "name": "_totalDropAmts",
                    "type": "uint256",
                    "indexed": false,
                    "internalType": "uint256"
                },
                {
                    "name": "_businessName",
                    "type": "string",
                    "indexed": false,
                    "internalType": "string"
                },
                {
                    "name": "_activityContent",
                    "type": "string",
                    "indexed": false,
                    "internalType": "string"
                },
                {
                    "name": "_latitudeLongitude",
                    "type": "string",
                    "indexed": false,
                    "internalType": "string"
                },
                {
                    "name": "_activityDeadLine",
                    "type": "uint256",
                    "indexed": false,
                    "internalType": "uint256"
                },
                {
                    "name": "_dropType",
                    "type": "uint8",
                    "indexed": false,
                    "internalType": "uint8"
                },
                {
                    "name": "_dropNumber",
                    "type": "uint256",
                    "indexed": false,
                    "internalType": "uint256"
                },
                {
                    "name": "_minDropAmt",
                    "type": "uint256",
                    "indexed": false,
                    "internalType": "uint256"
                },
                {
                    "name": "_maxDropAmt",
                    "type": "uint256",
                    "indexed": false,
                    "internalType": "uint256"
                },
                {
                    "name": "_tokenContractAddr",
                    "type": "address",
                    "indexed": false,
                    "internalType": "address"
                }
            ],
            "anonymous": false
        },
        {
            "type": "event",
            "name": "ActivityFinish",
            "inputs": [
                {
                    "name": "_activityId",
                    "type": "uint256",
                    "indexed": true,
                    "internalType": "uint256"
                },
                {
                    "name": "_tokenContractAddr",
                    "type": "address",
                    "indexed": false,
                    "internalType": "address"
                },
                {
                    "name": "_returnAmount",
                    "type": "uint256",
                    "indexed": false,
                    "internalType": "uint256"
                },
                {
                    "name": "_minedAmount",
                    "type": "uint256",
                    "indexed": false,
                    "internalType": "uint256"
                }
            ],
            "anonymous": false
        },
        {
            "type": "event",
            "name": "AddMineAmt",
            "inputs": [
                {
                    "name": "who",
                    "type": "address",
                    "indexed": true,
                    "internalType": "address"
                },
                {
                    "name": "_addMineAmt",
                    "type": "uint256",
                    "indexed": false,
                    "internalType": "uint256"
                }
            ],
            "anonymous": false
        },
        {
            "type": "event",
            "name": "Approval",
            "inputs": [
                {
                    "name": "owner",
                    "type": "address",
                    "indexed": true,
                    "internalType": "address"
                },
                {
                    "name": "spender",
                    "type": "address",
                    "indexed": true,
                    "internalType": "address"
                },
                {
                    "name": "value",
                    "type": "uint256",
                    "indexed": false,
                    "internalType": "uint256"
                }
            ],
            "anonymous": false
        },
        {
            "type": "event",
            "name": "Drop",
            "inputs": [
                {
                    "name": "who",
                    "type": "address",
                    "indexed": true,
                    "internalType": "address"
                },
                {
                    "name": "_activityId",
                    "type": "uint256",
                    "indexed": true,
                    "internalType": "uint256"
                },
                {
                    "name": "_dropAmt",
                    "type": "uint256",
                    "indexed": false,
                    "internalType": "uint256"
                }
            ],
            "anonymous": false
        },
        {
            "type": "event",
            "name": "Initialized",
            "inputs": [
                {
                    "name": "version",
                    "type": "uint64",
                    "indexed": false,
                    "internalType": "uint64"
                }
            ],
            "anonymous": false
        },
        {
            "type": "event",
            "name": "OwnershipTransferred",
            "inputs": [
                {
                    "name": "previousOwner",
                    "type": "address",
                    "indexed": true,
                    "internalType": "address"
                },
                {
                    "name": "newOwner",
                    "type": "address",
                    "indexed": true,
                    "internalType": "address"
                }
            ],
            "anonymous": false
        },
        {
            "type": "event",
            "name": "SetMinePercent",
            "inputs": [
                {
                    "name": "minePercent",
                    "type": "uint8",
                    "indexed": false,
                    "internalType": "uint8"
                }
            ],
            "anonymous": false
        },
        {
            "type": "event",
            "name": "SetValidTime",
            "inputs": [
                {
                    "name": "who",
                    "type": "address",
                    "indexed": true,
                    "internalType": "address"
                },
                {
                    "name": "_time",
                    "type": "uint256",
                    "indexed": false,
                    "internalType": "uint256"
                }
            ],
            "anonymous": false
        },
        {
            "type": "event",
            "name": "Transfer",
            "inputs": [
                {
                    "name": "from",
                    "type": "address",
                    "indexed": true,
                    "internalType": "address"
                },
                {
                    "name": "to",
                    "type": "address",
                    "indexed": true,
                    "internalType": "address"
                },
                {
                    "name": "value",
                    "type": "uint256",
                    "indexed": false,
                    "internalType": "uint256"
                }
            ],
            "anonymous": false
        },
        {
            "type": "error",
            "name": "ERC20InsufficientAllowance",
            "inputs": [
                {
                    "name": "spender",
                    "type": "address",
                    "internalType": "address"
                },
                {
                    "name": "allowance",
                    "type": "uint256",
                    "internalType": "uint256"
                },
                {
                    "name": "needed",
                    "type": "uint256",
                    "internalType": "uint256"
                }
            ]
        },
        {
            "type": "error",
            "name": "ERC20InsufficientBalance",
            "inputs": [
                {
                    "name": "sender",
                    "type": "address",
                    "internalType": "address"
                },
                {
                    "name": "balance",
                    "type": "uint256",
                    "internalType": "uint256"
                },
                {
                    "name": "needed",
                    "type": "uint256",
                    "internalType": "uint256"
                }
            ]
        },
        {
            "type": "error",
            "name": "ERC20InvalidApprover",
            "inputs": [
                {
                    "name": "approver",
                    "type": "address",
                    "internalType": "address"
                }
            ]
        },
        {
            "type": "error",
            "name": "ERC20InvalidReceiver",
            "inputs": [
                {
                    "name": "receiver",
                    "type": "address",
                    "internalType": "address"
                }
            ]
        },
        {
            "type": "error",
            "name": "ERC20InvalidSender",
            "inputs": [
                {
                    "name": "sender",
                    "type": "address",
                    "internalType": "address"
                }
            ]
        },
        {
            "type": "error",
            "name": "ERC20InvalidSpender",
            "inputs": [
                {
                    "name": "spender",
                    "type": "address",
                    "internalType": "address"
                }
            ]
        },
        {
            "type": "error",
            "name": "InvalidInitialization",
            "inputs": []
        },
        {
            "type": "error",
            "name": "NotInitializing",
            "inputs": []
        },
        {
            "type": "error",
            "name": "OwnableInvalidOwner",
            "inputs": [
                {
                    "name": "owner",
                    "type": "address",
                    "internalType": "address"
                }
            ]
        },
        {
            "type": "error",
            "name": "OwnableUnauthorizedAccount",
            "inputs": [
                {
                    "name": "account",
                    "type": "address",
                    "internalType": "address"
                }
            ]
        },
        {
            "type": "error",
            "name": "ReentrancyGuardReentrantCall",
            "inputs": []
        }
    ],
    "bytecode": {
        "object": "0x6080806040523460d0577ff0c57e16840df040f15088dc2f81fe391c3923bec73e23a9662efc9c229c6a005460ff8160401c1660c1576002600160401b03196001600160401b03821601605c575b6040516131c890816100d58239f35b6001600160401b0319166001600160401b039081177ff0c57e16840df040f15088dc2f81fe391c3923bec73e23a9662efc9c229c6a005581527fc7f505b2f371ae2175ee4913f4499e1f2633a7b5936321eed1cdaeb6115181d290602090a15f80604d565b63f92ee8a960e01b5f5260045ffd5b5f80fdfe60806040526004361015610011575f80fd5b5f3560e01c806306fdde0314612963578063095ea7b3146128be57806313f34fed1461288657806318160ddd1461284a57806323b872dd14612812578063265d3051146117b15780632a916c20146127b5578063313ce5671461279a57806333b3f9441461277557806342966c681461275857806343b22efc14611c725780634ba1332f14611c465780634bd9351b14611c295780634c6681e1146108c35780634d43959d14611bbc5780634dc143d514611b9f57806370a0823114611b5b578063715018a614611af457806379cc679014611ac45780637f17bb6814611aa657806388e40a5a14611a855780638da5cb5b14611a5157806395d89b411461195757806397088e4914611910578063a075282514611809578063a6d93915146117e9578063a731299b146117b1578063a9059cbb14611780578063acae5d2514611737578063b6d18c8c1461170f578063bbe68511146116e7578063c8c1d78d14611197578063cbd596c414610919578063cdd544e3146108fb578063d4621430146108c3578063dd62ed3e1461087c578063f2fde38b14610851578063f74b47091461080a578063f7859c28146107ee578063f8c8765e146102185763fefee0e1146101dc575f80fd5b346102145760203660031901126102145760043560045481101561021457610205602091612c79565b90549060031b1c604051908152f35b5f80fd5b3461021457608036600319011261021457610231612a44565b610239612a5a565b906044356001600160a01b0381169190829003610214576064356001600160a01b0381169390849003610214575f80516020613173833981519152549260ff8460401c1615936001600160401b038116801590816107e6575b60011490816107dc575b1590816107d3575b506107c45767ffffffffffffffff1981166001175f805160206131738339815191525584610798575b506001600160a01b03831615610721576102e5613087565b6102ed613087565b6102f683612d3f565b60409485516103058782612ad8565b60088152674669736843616b6560c01b60208201528651906103278883612ad8565b600382526246434360e81b602083015261033f613087565b610347613087565b8051906001600160401b03821161060a5781906103715f805160206130b383398151915254612ba1565b601f81116106a7575b50602090601f8311600114610629575f9261061e575b50508160011b915f199060031b1c1916175f805160206130b3833981519152555b8051906001600160401b03821161060a576103d95f805160206130f383398151915254612ba1565b601f811161059b575b50602090601f831160011461051257928260329361010096936104ab9998965f92610507575b50508160011b915f199060031b1c1916175f805160206130f3833981519152555b610431613087565b610439613087565b60015f8051602061315383398151915255610452613087565b600154916001600160601b0360a01b60025416176002556001600160601b0360a01b60035416176003555f805561ff00199262010000600160b01b039060101b169061ff01600160b01b03191617171617600155613033565b6104b157005b60207fc7f505b2f371ae2175ee4913f4499e1f2633a7b5936321eed1cdaeb6115181d29168ff0000000000000000195f8051602061317383398151915254165f80516020613173833981519152555160018152a1005b015190508b80610408565b90601f198316915f805160206130f38339815191525f52815f20925f5b81811061058357509361010096936104ab99989693600193836032981061056b575b505050811b015f805160206130f383398151915255610429565b01515f1960f88460031b161c191690558b8080610551565b9293602060018192878601518155019501930161052f565b5f805160206130f38339815191525f527f46a2803e59a4de4e7a4c574b1243f25977ac4c77d5a1a4a609b5394cebb4a2aa601f840160051c81019160208510610600575b601f0160051c01905b8181106105f557506103e2565b5f81556001016105e8565b90915081906105df565b634e487b7160e01b5f52604160045260245ffd5b015190508980610390565b5f805160206130b38339815191525f9081528281209350601f198516905b81811061068f5750908460019594939210610677575b505050811b015f805160206130b3833981519152556103b1565b01515f1960f88460031b161c1916905589808061065d565b92936020600181928786015181550195019301610647565b5f805160206130b38339815191525f529091507f2ae08a8e29253f69ac5d979a101956ab8f8d9d7ded63fa7a83b16fc47648eab0601f840160051c81019160208510610717575b90601f859493920160051c01905b818110610709575061037a565b5f81558493506001016106fc565b90915081906106ee565b60a460405162461bcd60e51b815260206004820152604460248201527f4669736863616b654576656e744d616e6167657220696e697469616c697a653a60448201527f205f696e697469616c4f776e65722063616e2774206265207a65726f206164646064820152637265737360e01b6084820152fd5b68ffffffffffffffffff191668010000000000000001175f8051602061317383398151915255856102cd565b63f92ee8a960e01b5f5260045ffd5b905015876102a4565b303b15915061029c565b869150610292565b34610214575f3660031901126102145760205f54604051908152f35b3461021457602036600319011261021457610823612a44565b61083860018060a01b03600354163314612cc9565b6001600160a01b03165f908152600b6020526040812055005b346102145760203660031901126102145761087a61086d612a44565b610875613000565b612d3f565b005b3461021457604036600319011261021457610895612a44565b6108a66108a0612a5a565b91612a70565b9060018060a01b03165f52602052602060405f2054604051908152f35b34610214576020366003190112610214576001600160a01b036108e4612a44565b165f52600b602052602060405f2054604051908152f35b34610214575f366003190112610214576020604051630e4e1c008152f35b3461021457602036600319011261021457600435610935612fc8565b8015158061118b575b15611120575f198101818111610d7f5761095781612b85565b5061096182612b4e565b5060018201546001600160a01b031633036110bf5760058101600160ff8254160361105457805460ff19166002179055600a82015460088301546109a491612c9e565b6109b46001830191825490612d32565b915f9183610fed575b6001549060ff8260081c1680610fa5575b80610ebe575b610a70575b50505060045492600160401b84101561060a577f32b4fb78ab9b6fcf0181a2a3906e5473b095a3e71595ccc87bd039bbacc6acaf94610a2085600160609701600455612c79565b819291549060031b91821b915f19901b1916179055600b60018060a01b03910154169160405192835260208301526040820152a260015f8051602061315383398151915255602060405160018152f35b5f5490651b48eb57e000821015610e4d57625b8d809263039387009060ff60325b16908160ff821603610e3e575b50506001549360ff85169485151580610e20575b610ac0575b505050506109d9565b60035460405163072f2a0f60e31b81523360048201526001600160a01b0390911696906020816024818b5afa908115610c9a575f91610deb575b5060249260209291421015610ddd5750965b60405163072f2a0f60e31b815233600482015292839182905afa908115610c9a575f91610dab575b50421015610da35750925b600285015490601482029180830460141481151715610d7f576301312d000291808304620f42401490151715610d7f5760ff610b8c92606494548181115f14610d9b5750915b1690612c9e565b0491808311610d93575b5080660110d9316ec00011610baf575b80808080610ab7565b90919250610bbd8282612c91565b660110d9316ec0001115610ca55750600381920155610bdd815f54612c91565b5f90815560015460405163a9059cbb60e01b81523360048201526024810184905291602091839160449183919060101c6001600160a01b03165af18015610c9a57610c6d575b50335f52600a60205260405f20610c3b828254612c91565b9055335f52600b60205260405f20610c54828254612c91565b90555b335f5260086020524260405f2055858080610ba6565b610c8e9060203d602011610c93575b610c868183612ad8565b810190612cb1565b610c23565b503d610c7c565b6040513d5f823e3d90fd5b9050660110d9316ec0000390660110d9316ec0008211610d7f576003610cd19101918083555f54612c91565b5f908155600154825460405163a9059cbb60e01b8152336004820152602481019190915291602091839160449183919060101c6001600160a01b03165af18015610c9a57610d62575b508054335f52600a602052610d3460405f20918254612c91565b90558054335f52600b602052610d4f60405f20918254612c91565b90555461ff001960015416600155610c57565b610d7a9060203d602011610c9357610c868183612ad8565b610d1a565b634e487b7160e01b5f52601160045260245ffd5b915088610b96565b905091610b85565b905092610b3f565b90506020813d602011610dd5575b81610dc660209383612ad8565b8101031261021457518c610b34565b3d9150610db9565b607f915060011c1696610b0c565b9190506020823d602011610e18575b81610e0760209383612ad8565b810103126102145790516024610afa565b3d9150610dfa565b50600b8a0154601082901c6001600160a01b03908116911614610ab2565b60ff1916176001558a80610a9e565b655af3107a4000821015610e6f57622dc6c0926301c9c3809060ff6028610a91565b65b5e620f48000821015610e9057621e84809262e4e1c09060ff6014610a91565b660110d9316ec000821015610eb257620f424092627a12009060ff600a610a91565b5f92839060ff82610a91565b5060035460405163072f2a0f60e31b81523360048201526001600160a01b0390911690602081602481855afa908115610c9a575f91610f73575b504210908115610f09575b506109d4565b604051638dce8b1360e01b81523360048201529150602090829060249082905afa908115610c9a575f91610f41575b50421089610f03565b90506020813d602011610f6b575b81610f5c60209383612ad8565b81010312610214575189610f38565b3d9150610f4f565b90506020813d602011610f9d575b81610f8e60209383612ad8565b8101031261021457518a610ef8565b3d9150610f81565b50335f52600860205260405f2054155f14610fc15760016109ce565b335f52600860205262015180610fdb60405f205442612d32565b10610fe75760016109ce565b5f6109ce565b600b85015460405163a9059cbb60e01b81523360048201526024810186905290602090829060449082905f906001600160a01b03165af18015610c9a57611035575b506109bd565b61104d9060203d602011610c9357610c868183612ad8565b508761102f565b60405162461bcd60e51b815260206004820152603b60248201527f4669736863616b654576656e744d616e6167657220616374697669747946696e60448201527f6973683a20416374697669747920537461747573204572726f722e00000000006064820152608490fd5b60405162461bcd60e51b815260206004820152603360248201527f4669736863616b654576656e744d616e6167657220616374697669747946696e60448201527234b9b41d102737ba102a34329027bbb732b91760691b6064820152608490fd5b60405162461bcd60e51b815260206004820152603760248201527f4669736863616b654576656e744d616e6167657220616374697669747946696e60448201527f6973683a204163746976697479204964204572726f722e0000000000000000006064820152608490fd5b5060055481111561093e565b34610214576060366003190112610214576004356111b3612a5a565b6111bb612fc8565b604435825f52600960205260405f2060018060a01b0383165f5260205260ff60405f20541661168d575f19830190838211610d7f576112036111fc83612b85565b5092612b4e565b50600160ff6005830154160361162e5760018301546001600160a01b031633036115d7576006830154421161157957600783015460ff1660020361156d57600a8301548211158061155f575b15611504575b6008830154926002820193845481111561149957611279600191600a840154612c9e565b920191611287835485612c91565b1161142e57600b015460405163a9059cbb60e01b81526001600160a01b038681166004830152602482018590529091602091839160449183915f91165af18015610c9a57611411575b50845f52600960205260405f2060018060a01b0385165f5260205260405f20600160ff1982541617905560405193608085018581106001600160401b0382111761060a57604052858552602085019060018060a01b031694858252604081014281526060820190858252600754600160401b81101561060a578060016113599201600755612aa8565b9490946113fe579251845591516001840180546001600160a01b0319166001600160a01b039290921691909117905590516002830155516003919091015580546113a4908390612c91565b90558154905f198214610d7f577fd034d7fdd827eb4f41b668e02da1342cb8eced53d850fef72e1b2cd2c8387bac926001602093019055604051908152a360015f8051602061315383398151915255602060405160018152f35b634e487b7160e01b5f525f60045260245ffd5b6114299060203d602011610c9357610c868183612ad8565b6112d0565b60405162461bcd60e51b815260206004820152603f60248201527f4669736863616b654576656e744d616e616765722064726f703a20546865207260448201527f657761726420616d6f756e7420686173206265656e2065786365656465642e006064820152608490fd5b60405162461bcd60e51b815260206004820152603a60248201527f4669736863616b654576656e744d616e616765722064726f703a20457863656560448201527f64656420746865206e756d626572206f6620726577617264732e0000000000006064820152608490fd5b60405162461bcd60e51b815260206004820152602d60248201527f4669736863616b654576656e744d616e616765722064726f703a2044726f702060448201526c20b6b7bab73a1022b93937b91760991b6064820152608490fd5b50600983015482101561124f565b600a8301549150611255565b60405162461bcd60e51b815260206004820152603060248201527f4669736863616b654576656e744d616e616765722064726f703a20416374697660448201526f34ba3c902430b99022bc3834b932b21760811b6064820152608490fd5b60405162461bcd60e51b815260206004820152602960248201527f4669736863616b654576656e744d616e616765722064726f703a204e6f74205460448201526834329027bbb732b91760b91b6064820152608490fd5b60405162461bcd60e51b815260206004820152603160248201527f4669736863616b654576656e744d616e616765722064726f703a20416374697660448201527034ba3c9029ba30ba3ab99022b93937b91760791b6064820152608490fd5b60405162461bcd60e51b815260206004820152602c60248201527f4669736863616b654576656e744d616e616765722064726f703a20557365722060448201526b2430b990223937b83832b21760a11b6064820152608490fd5b34610214575f366003190112610214576003546040516001600160a01b039091168152602090f35b34610214575f366003190112610214576002546040516001600160a01b039091168152602090f35b3461021457604036600319011261021457611750612a5a565b6004355f52600960205260405f209060018060a01b03165f52602052602060ff60405f2054166040519015158152f35b34610214576040366003190112610214576117a661179c612a44565b6024359033612e08565b602060405160018152f35b34610214576020366003190112610214576001600160a01b036117d2612a44565b165f52600a602052602060405f2054604051908152f35b34610214575f36600319011261021457602060ff60015416604051908152f35b34610214576020366003190112610214576004356005548110156102145761183090612b85565b50805460018201546001600160a01b03169161184e60028201612bd9565b61185a60038301612bd9565b9161186760048201612bd9565b926005820154936006830154600784015460ff1690600885015492600986015494600a87015496600160a01b6001900390600b015416976040519b8c9b8c5260208c015260408b0161018090526101808b016118c291612a20565b8a810360608c01526118d391612a20565b89810360808b01526118e491612a20565b9660a089015260c088015260e08701526101008601526101208501526101408401526101608301520390f35b3461021457602036600319011261021457611929612a44565b61193e60018060a01b03600354163314612cc9565b6001600160a01b03165f908152600a6020526040812055005b34610214575f366003190112610214576040515f5f805160206130f38339815191525461198381612ba1565b8084529060018116908115611a2d57506001146119c3575b6119bf836119ab81850382612ad8565b604051918291602083526020830190612a20565b0390f35b5f805160206130f38339815191525f9081527f46a2803e59a4de4e7a4c574b1243f25977ac4c77d5a1a4a609b5394cebb4a2aa939250905b808210611a13575090915081016020016119ab61199b565b9192600181602092548385880101520191019092916119fb565b60ff191660208086019190915291151560051b840190910191506119ab905061199b565b34610214575f366003190112610214575f80516020613113833981519152546040516001600160a01b039091168152602090f35b34610214575f366003190112610214576020604051660110d9316ec0008152f35b34610214575f36600319011261021457602060405163016e36008152f35b346102145760403660031901126102145761087a611ae0612a44565b60243590611aef823383612d6a565b612eec565b34610214575f36600319011261021457611b0c613000565b5f8051602061311383398151915280546001600160a01b031981169091555f906001600160a01b03167f8be0079c531659141344cd1fd0a4f28419497f9722a3daafe3b4186f6b6457e08280a3005b34610214576020366003190112610214576001600160a01b03611b7c612a44565b165f525f805160206130d3833981519152602052602060405f2054604051908152f35b34610214575f36600319011261021457602060405162278d008152f35b346102145760203660031901126102145760043560065481101561021457611be560c091612b4e565b50805490600181015490600281015460038201549060ff600560048501549401541693604051958652602086015260408501526060840152608083015260a0820152f35b34610214575f366003190112610214576020604051620151808152f35b34610214575f3660031901126102145760015460405160109190911c6001600160a01b03168152602090f35b3461021457610140366003190112610214576004356001600160401b03811161021457611ca3903690600401612af9565b6024356001600160401b03811161021457611cc2903690600401612af9565b6044356001600160401b03811161021457611ce1903690600401612af9565b9060a43560ff8116810361021457610124359360e43593906001600160a01b038616860361021457611d11612fc8565b84600260ff851614801561274b575b156126fe5761010435106126a6576084351561265757606435421080612640575b156125e857611d5560c43561010435612c9e565b6084350361257d57620f42406084351061250d57606560c4351080156124fa575b1561247c576002546001600160a01b038781169116148015612461575b1561240957600160ff841614612401575b6040516323b872dd60e01b815233600482015230602482015260843560448201526020816064815f6001600160a01b038c165af18015610c9a576123e4575b5060055495600187018711610d7f576040519561018087018781106001600160401b0382111761060a576040526001880187523360208801528260408801528560608801528360808801524260a088015260643560c088015260ff851660e088015260c435610100880152806101208801526101043561014088015260018060a01b0382166101608801526040519760c089018981106001600160401b0382111761060a576040526001810189525f60208a01525f60408a01525f60608a01525f60808a0152600160a08a0152600160401b81101561060a57806001611ecc9201600555612b85565b6113fe578751815560208801516001820180546001600160a01b0319166001600160a01b03929092169190911790556040880151805160028301916001600160401b03821161060a578190611f218454612ba1565b601f8111612394575b50602090601f8311600114612331575f92612326575b50508160011b915f199060031b1c19161790555b6003810160608901518051906001600160401b03821161060a578190611f7a8454612ba1565b601f81116122d6575b50602090601f8311600114612273575f92612268575b50508160011b915f199060031b1c19161790555b6004810160808901518051906001600160401b03821161060a578190611fd38454612ba1565b601f8111612218575b50602090601f83116001146121b5575f926121aa575b50508160011b915f199060031b1c19161790555b60a0880151600582015560c0880151600682015560ff60e08901511660ff60078301911660ff1982541617905561010088015160088201556101208801516009820155610140880151600a820155600b60018060a01b036101608a01511691019060018060a01b03166001600160601b0360a01b825416179055600654600160401b81101561060a5780600161209f9201600655612b4e565b6113fe5761214e7fcc07277f6a9ae6659df5a850b317ba47d741264062fc7654d69b9fe11f4fabef9560ff928360058160a060409f80518655602081015160018701556040810151600287015560608101516003870155608081015160048701550151169201911684198254161790556121408a51996121338d51986084358a5261014060208b01526101408a0190612a20565b908882038e8a0152612a20565b908682036060880152612a20565b6064356080860152951660a084015260c43560c084015260e0830152610104356101008301526001600160a01b0316610120820152339281900390a35160015f8051602061315383398151915255815190600182526020820152f35b015190508c80611ff2565b5f8581528281209350601f198516905b81811061220057509084600195949392106121e8575b505050811b019055612006565b01515f1960f88460031b161c191690558c80806121db565b929360206001819287860151815501950193016121c5565b909150835f5260205f20601f840160051c8101916020851061225e575b90601f859493920160051c01905b8181106122505750611fdc565b5f8155849350600101612243565b9091508190612235565b015190508c80611f99565b5f8581528281209350601f198516905b8181106122be57509084600195949392106122a6575b505050811b019055611fad565b01515f1960f88460031b161c191690558c8080612299565b92936020600181928786015181550195019301612283565b909150835f5260205f20601f840160051c8101916020851061231c575b90601f859493920160051c01905b81811061230e5750611f83565b5f8155849350600101612301565b90915081906122f3565b015190508c80611f40565b5f8581528281209350601f198516905b81811061237c5750908460019594939210612364575b505050811b019055611f54565b01515f1960f88460031b161c191690558c8080612357565b92936020600181928786015181550195019301612341565b909150835f5260205f20601f840160051c810191602085106123da575b90601f859493920160051c01905b8181106123cc5750611f2a565b5f81558493506001016123bf565b90915081906123b1565b6123fc9060203d602011610c9357610c868183612ad8565b611de3565b5f9450611da4565b60405162461bcd60e51b815260206004820152603e60248201525f8051602061313383398151915260448201527f3a20546f6b656e20636f6e74726163742061646472657373206572726f7200006064820152608490fd5b5060015460101c6001600160a01b0390811690871614611d93565b60405162461bcd60e51b815260206004820152605760248201525f8051602061313383398151915260448201527f3a2044726f70204e756d62657220546f6f204c61726765202c4c696d6974203160648201527f3030206f7220546f74616c44726f70416d74732f31302e000000000000000000608482015260a490fd5b50629896806084350460c4351115611d76565b60405162461bcd60e51b815260206004820152604f60248201525f8051602061313383398151915260448201527f3a20546f74616c2044726f7020416d6f756e747320546f6f204c6974746c652060648201526e161026b4b734b6bab69037b310189760891b608482015260a490fd5b60405162461bcd60e51b815260206004820152604a60248201525f8051602061313383398151915260448201527f3a2044726f70204e756d626572204e6f74204d65657420546f74616c2044726f606482015269381020b6b7bab73a399760b11b608482015260a490fd5b60405162461bcd60e51b815260206004820152603a60248201525f8051602061313383398151915260448201527f3a20416374697669747920446561644c696e65204572726f722e0000000000006064820152608490fd5b5062278d004201804211610d7f5760643510611d41565b60405162461bcd60e51b815260206004820152603460248201525f805160206131338339815191526044820152731d10223937b81020b6b7bab73a1022b93937b91760611b6064820152608490fd5b60405162461bcd60e51b815260206004820152603960248201525f8051602061313383398151915260448201527f3a204d617844726f70416d74205365747570204572726f722e000000000000006064820152608490fd5b60405162461bcd60e51b815260206004820152603260248201525f805160206131338339815191526044820152711d10223937b8102a3cb8329022b93937b91760711b6064820152608490fd5b50600160ff851614611d20565b346102145760203660031901126102145761087a60043533612eec565b34610214575f36600319011261021457602060ff60015460081c166040519015158152f35b34610214575f36600319011261021457602060405160128152f35b3461021457602036600319011261021457600435600754811015610214576127de608091612aa8565b5080549060018060a01b03600182015416906003600282015491015491604051938452602084015260408301526060820152f35b34610214576060366003190112610214576117a661282e612a44565b612836612a5a565b60443591612845833383612d6a565b612e08565b34610214575f3660031901126102145760207f52c63247e1f47db19d5ce0460030c497f067ca4cebf71ba98eeadabe20bace0254604051908152f35b34610214576020366003190112610214576001600160a01b036128a7612a44565b165f526008602052602060405f2054604051908152f35b34610214576040366003190112610214576128d7612a44565b602435903315612950576001600160a01b031690811561293d576128fa33612a70565b825f526020528060405f20556040519081527f8c5be1e5ebec7d5bd14f71427d1e84f3dd0314c0f7b2291e5b200ac8c7c3b92560203392a3602060405160018152f35b634a1406b160e11b5f525f60045260245ffd5b63e602df0560e01b5f525f60045260245ffd5b34610214575f366003190112610214576040515f5f805160206130b38339815191525461298f81612ba1565b8084529060018116908115611a2d57506001146129b6576119bf836119ab81850382612ad8565b5f805160206130b38339815191525f9081527f2ae08a8e29253f69ac5d979a101956ab8f8d9d7ded63fa7a83b16fc47648eab0939250905b808210612a06575090915081016020016119ab61199b565b9192600181602092548385880101520191019092916129ee565b805180835260209291819084018484015e5f828201840152601f01601f1916010190565b600435906001600160a01b038216820361021457565b602435906001600160a01b038216820361021457565b6001600160a01b03165f9081527f52c63247e1f47db19d5ce0460030c497f067ca4cebf71ba98eeadabe20bace016020526040902090565b600754811015612ac45760075f5260205f209060021b01905f90565b634e487b7160e01b5f52603260045260245ffd5b90601f801991011681019081106001600160401b0382111761060a57604052565b81601f82011215610214578035906001600160401b03821161060a5760405192612b2d601f8401601f191660200185612ad8565b8284526020838301011161021457815f926020809301838601378301015290565b600654811015612ac45760065f81815291027ff652222313e28459528d920b65115c16c04f3efc82aaedc97be59f3f377c0d3f0191565b600554811015612ac45760055f52600c60205f20910201905f90565b90600182811c92168015612bcf575b6020831014612bbb57565b634e487b7160e01b5f52602260045260245ffd5b91607f1691612bb0565b9060405191825f825492612bec84612ba1565b8084529360018116908115612c575750600114612c13575b50612c1192500383612ad8565b565b90505f9291925260205f20905f915b818310612c3b575050906020612c11928201015f612c04565b6020919350806001915483858901015201910190918492612c22565b905060209250612c1194915060ff191682840152151560051b8201015f612c04565b600454811015612ac45760045f5260205f2001905f90565b91908201809211610d7f57565b81810292918115918404141715610d7f57565b90816020910312610214575180151581036102145790565b15612cd057565b60405162461bcd60e51b815260206004820152603460248201527f4d6573736167654d616e616765723a206f6e6c79206e6674206d616e616765726044820152732063616e20646f2074686973206f70657261746560601b6064820152608490fd5b91908203918211610d7f57565b6001600160a01b03811615612d5757612c1190613033565b631e4fbdf760e01b5f525f60045260245ffd5b9190612d7583612a70565b60018060a01b0382165f5260205260405f2054925f198403612d98575b50505050565b828410612de5576001600160a01b03811615612950576001600160a01b0382161561293d57612dc690612a70565b9060018060a01b03165f5260205260405f20910390555f808080612d92565b508290637dc7a0d960e11b5f5260018060a01b031660045260245260445260645ffd5b6001600160a01b0316908115612ed9576001600160a01b0316918215612ec657815f525f805160206130d383398151915260205260405f2054818110612ead57817fddf252ad1be2c89b69c2b068fc378daa952ba7f163c4a11628f55a4df523b3ef92602092855f525f805160206130d383398151915284520360405f2055845f525f805160206130d3833981519152825260405f20818154019055604051908152a3565b8263391434e360e21b5f5260045260245260445260645ffd5b63ec442f0560e01b5f525f60045260245ffd5b634b637e8f60e11b5f525f60045260245ffd5b9091906001600160a01b03168015612ed957805f525f805160206130d383398151915260205260405f2054838110612fae576020845f94957fddf252ad1be2c89b69c2b068fc378daa952ba7f163c4a11628f55a4df523b3ef938587525f805160206130d38339815191528452036040862055807f52c63247e1f47db19d5ce0460030c497f067ca4cebf71ba98eeadabe20bace0254037f52c63247e1f47db19d5ce0460030c497f067ca4cebf71ba98eeadabe20bace0255604051908152a3565b915063391434e360e21b5f5260045260245260445260645ffd5b60025f805160206131538339815191525414612ff15760025f8051602061315383398151915255565b633ee5aeb560e01b5f5260045ffd5b5f80516020613113833981519152546001600160a01b0316330361302057565b63118cdaa760e01b5f523360045260245ffd5b5f8051602061311383398151915280546001600160a01b039283166001600160a01b0319821681179092559091167f8be0079c531659141344cd1fd0a4f28419497f9722a3daafe3b4186f6b6457e05f80a3565b60ff5f805160206131738339815191525460401c16156130a357565b631afcd79f60e31b5f5260045ffdfe52c63247e1f47db19d5ce0460030c497f067ca4cebf71ba98eeadabe20bace0352c63247e1f47db19d5ce0460030c497f067ca4cebf71ba98eeadabe20bace0052c63247e1f47db19d5ce0460030c497f067ca4cebf71ba98eeadabe20bace049016d09d72d40fdae2fd8ceac6b6234c7706214fd39c1cd1e609a0528c1993004669736863616b654576656e744d616e616765722061637469766974794164649b779b17422d0df92223018b32b4d1fa46e071723d6817e2486d003becc55f00f0c57e16840df040f15088dc2f81fe391c3923bec73e23a9662efc9c229c6a00a26469706673582212207cb3e0b255c04b2c0e60e084d4ac5f6cc1b522e227f9e61c7bba365a455f9eb964736f6c634300081a0033",
        "linkReferences": {}
    },
    "methodIdentifiers": {
        "FccTokenAddr()": "4ba1332f",
        "NTFLastMineTime(address)": "13f34fed",
        "UsdtTokenAddr()": "b6d18c8c",
        "activityAdd(string,string,string,uint256,uint256,uint8,uint256,uint256,uint256,address)": "43b22efc",
        "activityDroppedToAccount(uint256,address)": "acae5d25",
        "activityFinish(uint256)": "cbd596c4",
        "activityInfoArrs(uint256)": "a0752825",
        "activityInfoChangedIdx(uint256)": "fefee0e1",
        "activityInfoExtArrs(uint256)": "4d43959d",
        "allowance(address,address)": "dd62ed3e",
        "approve(address,uint256)": "095ea7b3",
        "balanceOf(address)": "70a08231",
        "burn(uint256)": "42966c68",
        "burnFrom(address,uint256)": "79cc6790",
        "decimals()": "313ce567",
        "deleteMinedFishcakePower(address)": "f74b4709",
        "deleteMinerMineAmount(address)": "97088e49",
        "drop(uint256,address,uint256)": "c8c1d78d",
        "dropInfoArrs(uint256)": "2a916c20",
        "getMinedFishcakePower(address)": "4c6681e1",
        "getMinerMineAmount(address)": "a731299b",
        "iNFTManager()": "bbe68511",
        "initialize(address,address,address,address)": "f8c8765e",
        "isMint()": "33b3f944",
        "maxDeadLine()": "4dc143d5",
        "merchantOnceMaxMineAmt()": "cdd544e3",
        "minePercent()": "a6d93915",
        "minedAmt()": "f7859c28",
        "minedFishcakePower(address)": "d4621430",
        "minerMineAmount(address)": "265d3051",
        "name()": "06fdde03",
        "oneDay()": "4bd9351b",
        "owner()": "8da5cb5b",
        "renounceOwnership()": "715018a6",
        "symbol()": "95d89b41",
        "totalMineAmt()": "88e40a5a",
        "totalSupply()": "18160ddd",
        "transfer(address,uint256)": "a9059cbb",
        "transferFrom(address,address,uint256)": "23b872dd",
        "transferOwnership(address)": "f2fde38b",
        "userOnceMaxMineAmt()": "7f17bb68"
    },
    "storageLayout": {
        "storage": [
            {
                "astId": 52907,
                "contract": "src/contracts/core/FishcakeEventManagerV2.sol:FishcakeEventManagerV2",
                "label": "minedAmt",
                "offset": 0,
                "slot": "0",
                "type": "t_uint256"
            },
            {
                "astId": 52909,
                "contract": "src/contracts/core/FishcakeEventManagerV2.sol:FishcakeEventManagerV2",
                "label": "minePercent",
                "offset": 0,
                "slot": "1",
                "type": "t_uint8"
            },
            {
                "astId": 52911,
                "contract": "src/contracts/core/FishcakeEventManagerV2.sol:FishcakeEventManagerV2",
                "label": "isMint",
                "offset": 1,
                "slot": "1",
                "type": "t_bool"
            },
            {
                "astId": 52914,
                "contract": "src/contracts/core/FishcakeEventManagerV2.sol:FishcakeEventManagerV2",
                "label": "FccTokenAddr",
                "offset": 2,
                "slot": "1",
                "type": "t_contract(IERC20)43717"
            },
            {
                "astId": 52917,
                "contract": "src/contracts/core/FishcakeEventManagerV2.sol:FishcakeEventManagerV2",
                "label": "UsdtTokenAddr",
                "offset": 0,
                "slot": "2",
                "type": "t_contract(IERC20)43717"
            },
            {
                "astId": 52920,
                "contract": "src/contracts/core/FishcakeEventManagerV2.sol:FishcakeEventManagerV2",
                "label": "iNFTManager",
                "offset": 0,
                "slot": "3",
                "type": "t_contract(INftManager)63321"
            },
            {
                "astId": 52970,
                "contract": "src/contracts/core/FishcakeEventManagerV2.sol:FishcakeEventManagerV2",
                "label": "activityInfoChangedIdx",
                "offset": 0,
                "slot": "4",
                "type": "t_array(t_uint256)dyn_storage"
            },
            {
                "astId": 52974,
                "contract": "src/contracts/core/FishcakeEventManagerV2.sol:FishcakeEventManagerV2",
                "label": "activityInfoArrs",
                "offset": 0,
                "slot": "5",
                "type": "t_array(t_struct(ActivityInfo)52945_storage)dyn_storage"
            },
            {
                "astId": 52978,
                "contract": "src/contracts/core/FishcakeEventManagerV2.sol:FishcakeEventManagerV2",
                "label": "activityInfoExtArrs",
                "offset": 0,
                "slot": "6",
                "type": "t_array(t_struct(ActivityInfoExt)52958_storage)dyn_storage"
            },
            {
                "astId": 52982,
                "contract": "src/contracts/core/FishcakeEventManagerV2.sol:FishcakeEventManagerV2",
                "label": "dropInfoArrs",
                "offset": 0,
                "slot": "7",
                "type": "t_array(t_struct(DropInfo)52967_storage)dyn_storage"
            },
            {
                "astId": 52986,
                "contract": "src/contracts/core/FishcakeEventManagerV2.sol:FishcakeEventManagerV2",
                "label": "NTFLastMineTime",
                "offset": 0,
                "slot": "8",
                "type": "t_mapping(t_address,t_uint256)"
            },
            {
                "astId": 52992,
                "contract": "src/contracts/core/FishcakeEventManagerV2.sol:FishcakeEventManagerV2",
                "label": "activityDroppedToAccount",
                "offset": 0,
                "slot": "9",
                "type": "t_mapping(t_uint256,t_mapping(t_address,t_bool))"
            },
            {
                "astId": 52996,
                "contract": "src/contracts/core/FishcakeEventManagerV2.sol:FishcakeEventManagerV2",
                "label": "minerMineAmount",
                "offset": 0,
                "slot": "10",
                "type": "t_mapping(t_address,t_uint256)"
            },
            {
                "astId": 53000,
                "contract": "src/contracts/core/FishcakeEventManagerV2.sol:FishcakeEventManagerV2",
                "label": "minedFishcakePower",
                "offset": 0,
                "slot": "11",
                "type": "t_mapping(t_address,t_uint256)"
            },
            {
                "astId": 53046,
                "contract": "src/contracts/core/FishcakeEventManagerV2.sol:FishcakeEventManagerV2",
                "label": "__gap",
                "offset": 0,
                "slot": "12",
                "type": "t_array(t_uint256)98_storage"
            }
        ],
        "types": {
            "t_address": {
                "encoding": "inplace",
                "label": "address",
                "numberOfBytes": "20"
            },
            "t_array(t_struct(ActivityInfo)52945_storage)dyn_storage": {
                "encoding": "dynamic_array",
                "label": "struct FishcakeEventManagerStorage.ActivityInfo[]",
                "numberOfBytes": "32",
                "base": "t_struct(ActivityInfo)52945_storage"
            },
            "t_array(t_struct(ActivityInfoExt)52958_storage)dyn_storage": {
                "encoding": "dynamic_array",
                "label": "struct FishcakeEventManagerStorage.ActivityInfoExt[]",
                "numberOfBytes": "32",
                "base": "t_struct(ActivityInfoExt)52958_storage"
            },
            "t_array(t_struct(DropInfo)52967_storage)dyn_storage": {
                "encoding": "dynamic_array",
                "label": "struct FishcakeEventManagerStorage.DropInfo[]",
                "numberOfBytes": "32",
                "base": "t_struct(DropInfo)52967_storage"
            },
            "t_array(t_uint256)98_storage": {
                "encoding": "inplace",
                "label": "uint256[98]",
                "numberOfBytes": "3136",
                "base": "t_uint256"
            },
            "t_array(t_uint256)dyn_storage": {
                "encoding": "dynamic_array",
                "label": "uint256[]",
                "numberOfBytes": "32",
                "base": "t_uint256"
            },
            "t_bool": {
                "encoding": "inplace",
                "label": "bool",
                "numberOfBytes": "1"
            },
            "t_contract(IERC20)43717": {
                "encoding": "inplace",
                "label": "contract IERC20",
                "numberOfBytes": "20"
            },
            "t_contract(INftManager)63321": {
                "encoding": "inplace",
                "label": "contract INftManager",
                "numberOfBytes": "20"
            },
            "t_mapping(t_address,t_bool)": {
                "encoding": "mapping",
                "key": "t_address",
                "label": "mapping(address => bool)",
                "numberOfBytes": "32",
                "value": "t_bool"
            },
            "t_mapping(t_address,t_uint256)": {
                "encoding": "mapping",
                "key": "t_address",
                "label": "mapping(address => uint256)",
                "numberOfBytes": "32",
                "value": "t_uint256"
            },
            "t_mapping(t_uint256,t_mapping(t_address,t_bool))": {
                "encoding": "mapping",
                "key": "t_uint256",
                "label": "mapping(uint256 => mapping(address => bool))",
                "numberOfBytes": "32",
                "value": "t_mapping(t_address,t_bool)"
            },
            "t_string_storage": {
                "encoding": "bytes",
                "label": "string",
                "numberOfBytes": "32"
            },
            "t_struct(ActivityInfo)52945_storage": {
                "encoding": "inplace",
                "label": "struct FishcakeEventManagerStorage.ActivityInfo",
                "numberOfBytes": "384",
                "members": [
                    {
                        "astId": 52922,
                        "contract": "src/contracts/core/FishcakeEventManagerV2.sol:FishcakeEventManagerV2",
                        "label": "activityId",
                        "offset": 0,
                        "slot": "0",
                        "type": "t_uint256"
                    },
                    {
                        "astId": 52924,
                        "contract": "src/contracts/core/FishcakeEventManagerV2.sol:FishcakeEventManagerV2",
                        "label": "businessAccount",
                        "offset": 0,
                        "slot": "1",
                        "type": "t_address"
                    },
                    {
                        "astId": 52926,
                        "contract": "src/contracts/core/FishcakeEventManagerV2.sol:FishcakeEventManagerV2",
                        "label": "businessName",
                        "offset": 0,
                        "slot": "2",
                        "type": "t_string_storage"
                    },
                    {
                        "astId": 52928,
                        "contract": "src/contracts/core/FishcakeEventManagerV2.sol:FishcakeEventManagerV2",
                        "label": "activityContent",
                        "offset": 0,
                        "slot": "3",
                        "type": "t_string_storage"
                    },
                    {
                        "astId": 52930,
                        "contract": "src/contracts/core/FishcakeEventManagerV2.sol:FishcakeEventManagerV2",
                        "label": "latitudeLongitude",
                        "offset": 0,
                        "slot": "4",
                        "type": "t_string_storage"
                    },
                    {
                        "astId": 52932,
                        "contract": "src/contracts/core/FishcakeEventManagerV2.sol:FishcakeEventManagerV2",
                        "label": "activityCreateTime",
                        "offset": 0,
                        "slot": "5",
                        "type": "t_uint256"
                    },
                    {
                        "astId": 52934,
                        "contract": "src/contracts/core/FishcakeEventManagerV2.sol:FishcakeEventManagerV2",
                        "label": "activityDeadLine",
                        "offset": 0,
                        "slot": "6",
                        "type": "t_uint256"
                    },
                    {
                        "astId": 52936,
                        "contract": "src/contracts/core/FishcakeEventManagerV2.sol:FishcakeEventManagerV2",
                        "label": "dropType",
                        "offset": 0,
                        "slot": "7",
                        "type": "t_uint8"
                    },
                    {
                        "astId": 52938,
                        "contract": "src/contracts/core/FishcakeEventManagerV2.sol:FishcakeEventManagerV2",
                        "label": "dropNumber",
                        "offset": 0,
                        "slot": "8",
                        "type": "t_uint256"
                    },
                    {
                        "astId": 52940,
                        "contract": "src/contracts/core/FishcakeEventManagerV2.sol:FishcakeEventManagerV2",
                        "label": "minDropAmt",
                        "offset": 0,
                        "slot": "9",
                        "type": "t_uint256"
                    },
                    {
                        "astId": 52942,
                        "contract": "src/contracts/core/FishcakeEventManagerV2.sol:FishcakeEventManagerV2",
                        "label": "maxDropAmt",
                        "offset": 0,
                        "slot": "10",
                        "type": "t_uint256"
                    },
                    {
                        "astId": 52944,
                        "contract": "src/contracts/core/FishcakeEventManagerV2.sol:FishcakeEventManagerV2",
                        "label": "tokenContractAddr",
                        "offset": 0,
                        "slot": "11",
                        "type": "t_address"
                    }
                ]
            },
            "t_struct(ActivityInfoExt)52958_storage": {
                "encoding": "inplace",
                "label": "struct FishcakeEventManagerStorage.ActivityInfoExt",
                "numberOfBytes": "192",
                "members": [
                    {
                        "astId": 52947,
                        "contract": "src/contracts/core/FishcakeEventManagerV2.sol:FishcakeEventManagerV2",
                        "label": "activityId",
                        "offset": 0,
                        "slot": "0",
                        "type": "t_uint256"
                    },
                    {
                        "astId": 52949,
                        "contract": "src/contracts/core/FishcakeEventManagerV2.sol:FishcakeEventManagerV2",
                        "label": "alreadyDropAmts",
                        "offset": 0,
                        "slot": "1",
                        "type": "t_uint256"
                    },
                    {
                        "astId": 52951,
                        "contract": "src/contracts/core/FishcakeEventManagerV2.sol:FishcakeEventManagerV2",
                        "label": "alreadyDropNumber",
                        "offset": 0,
                        "slot": "2",
                        "type": "t_uint256"
                    },
                    {
                        "astId": 52953,
                        "contract": "src/contracts/core/FishcakeEventManagerV2.sol:FishcakeEventManagerV2",
                        "label": "businessMinedAmt",
                        "offset": 0,
                        "slot": "3",
                        "type": "t_uint256"
                    },
                    {
                        "astId": 52955,
                        "contract": "src/contracts/core/FishcakeEventManagerV2.sol:FishcakeEventManagerV2",
                        "label": "businessMinedWithdrawedAmt",
                        "offset": 0,
                        "slot": "4",
                        "type": "t_uint256"
                    },
                    {
                        "astId": 52957,
                        "contract": "src/contracts/core/FishcakeEventManagerV2.sol:FishcakeEventManagerV2",
                        "label": "activityStatus",
                        "offset": 0,
                        "slot": "5",
                        "type": "t_uint8"
                    }
                ]
            },
            "t_struct(DropInfo)52967_storage": {
                "encoding": "inplace",
                "label": "struct FishcakeEventManagerStorage.DropInfo",
                "numberOfBytes": "128",
                "members": [
                    {
                        "astId": 52960,
                        "contract": "src/contracts/core/FishcakeEventManagerV2.sol:FishcakeEventManagerV2",
                        "label": "activityId",
                        "offset": 0,
                        "slot": "0",
                        "type": "t_uint256"
                    },
                    {
                        "astId": 52962,
                        "contract": "src/contracts/core/FishcakeEventManagerV2.sol:FishcakeEventManagerV2",
                        "label": "userAccount",
                        "offset": 0,
                        "slot": "1",
                        "type": "t_address"
                    },
                    {
                        "astId": 52964,
                        "contract": "src/contracts/core/FishcakeEventManagerV2.sol:FishcakeEventManagerV2",
                        "label": "dropTime",
                        "offset": 0,
                        "slot": "2",
                        "type": "t_uint256"
                    },
                    {
                        "astId": 52966,
                        "contract": "src/contracts/core/FishcakeEventManagerV2.sol:FishcakeEventManagerV2",
                        "label": "dropAmt",
                        "offset": 0,
                        "slot": "3",
                        "type": "t_uint256"
                    }
                ]
            },
            "t_uint256": {
                "encoding": "inplace",
                "label": "uint256",
                "numberOfBytes": "32"
            },
            "t_uint8": {
                "encoding": "inplace",
                "label": "uint8",
                "numberOfBytes": "1"
            }
        }
    },
    "id": 83
}