{"abi":[{"type":"constructor","inputs":[{"name":"_fccAddress","type":"address","internalType":"address"},{"name":"_usdtTokenAddr","type":"address","internalType":"address"},{"name":"_NFTManagerAddr","type":"address","internalType":"address"}],"stateMutability":"nonpayable"},{"type":"function","name":"FccTokenAddr","inputs":[],"outputs":[{"name":"","type":"address","internalType":"contract IERC20"}],"stateMutability":"view"},{"type":"function","name":"NTFLastMineTime","inputs":[{"name":"","type":"address","internalType":"address"}],"outputs":[{"name":"","type":"uint256","internalType":"uint256"}],"stateMutability":"view"},{"type":"function","name":"UsdtTokenAddr","inputs":[],"outputs":[{"name":"","type":"address","internalType":"contract IERC20"}],"stateMutability":"view"},{"type":"function","name":"activityAdd","inputs":[{"name":"_businessName","type":"string","internalType":"string"},{"name":"_activityContent","type":"string","internalType":"string"},{"name":"_latitudeLongitude","type":"string","internalType":"string"},{"name":"_activityDeadLine","type":"uint256","internalType":"uint256"},{"name":"_totalDropAmts","type":"uint256","internalType":"uint256"},{"name":"_dropType","type":"uint8","internalType":"uint8"},{"name":"_dropNumber","type":"uint256","internalType":"uint256"},{"name":"_minDropAmt","type":"uint256","internalType":"uint256"},{"name":"_maxDropAmt","type":"uint256","internalType":"uint256"},{"name":"_tokenContractAddr","type":"address","internalType":"address"}],"outputs":[{"name":"","type":"bool","internalType":"bool"},{"name":"","type":"uint256","internalType":"uint256"}],"stateMutability":"nonpayable"},{"type":"function","name":"activityDropedToAccount","inputs":[{"name":"","type":"uint256","internalType":"uint256"},{"name":"","type":"address","internalType":"address"}],"outputs":[{"name":"","type":"bool","internalType":"bool"}],"stateMutability":"view"},{"type":"function","name":"activityFinish","inputs":[{"name":"_activityId","type":"uint256","internalType":"uint256"}],"outputs":[{"name":"","type":"bool","internalType":"bool"}],"stateMutability":"nonpayable"},{"type":"function","name":"activityInfoArrs","inputs":[{"name":"","type":"uint256","internalType":"uint256"}],"outputs":[{"name":"activityId","type":"uint256","internalType":"uint256"},{"name":"businessAccount","type":"address","internalType":"address"},{"name":"businessName","type":"string","internalType":"string"},{"name":"activityContent","type":"string","internalType":"string"},{"name":"latitudeLongitude","type":"string","internalType":"string"},{"name":"activityCreateTime","type":"uint256","internalType":"uint256"},{"name":"activityDeadLine","type":"uint256","internalType":"uint256"},{"name":"dropType","type":"uint8","internalType":"uint8"},{"name":"dropNumber","type":"uint256","internalType":"uint256"},{"name":"minDropAmt","type":"uint256","internalType":"uint256"},{"name":"maxDropAmt","type":"uint256","internalType":"uint256"},{"name":"tokenContractAddr","type":"address","internalType":"address"}],"stateMutability":"view"},{"type":"function","name":"activityInfoChangedIdx","inputs":[{"name":"","type":"uint256","internalType":"uint256"}],"outputs":[{"name":"","type":"uint256","internalType":"uint256"}],"stateMutability":"view"},{"type":"function","name":"activityInfoExtArrs","inputs":[{"name":"","type":"uint256","internalType":"uint256"}],"outputs":[{"name":"activityId","type":"uint256","internalType":"uint256"},{"name":"alreadyDropAmts","type":"uint256","internalType":"uint256"},{"name":"alreadyDropNumber","type":"uint256","internalType":"uint256"},{"name":"businessMinedAmt","type":"uint256","internalType":"uint256"},{"name":"businessMinedWithdrawedAmt","type":"uint256","internalType":"uint256"},{"name":"activityStatus","type":"uint8","internalType":"uint8"}],"stateMutability":"view"},{"type":"function","name":"allowance","inputs":[{"name":"owner","type":"address","internalType":"address"},{"name":"spender","type":"address","internalType":"address"}],"outputs":[{"name":"","type":"uint256","internalType":"uint256"}],"stateMutability":"view"},{"type":"function","name":"approve","inputs":[{"name":"spender","type":"address","internalType":"address"},{"name":"value","type":"uint256","internalType":"uint256"}],"outputs":[{"name":"","type":"bool","internalType":"bool"}],"stateMutability":"nonpayable"},{"type":"function","name":"balanceOf","inputs":[{"name":"account","type":"address","internalType":"address"}],"outputs":[{"name":"","type":"uint256","internalType":"uint256"}],"stateMutability":"view"},{"type":"function","name":"burn","inputs":[{"name":"value","type":"uint256","internalType":"uint256"}],"outputs":[],"stateMutability":"nonpayable"},{"type":"function","name":"burnFrom","inputs":[{"name":"account","type":"address","internalType":"address"},{"name":"value","type":"uint256","internalType":"uint256"}],"outputs":[],"stateMutability":"nonpayable"},{"type":"function","name":"decimals","inputs":[],"outputs":[{"name":"","type":"uint8","internalType":"uint8"}],"stateMutability":"view"},{"type":"function","name":"drop","inputs":[{"name":"_activityId","type":"uint256","internalType":"uint256"},{"name":"_userAccount","type":"address","internalType":"address"},{"name":"_dropAmt","type":"uint256","internalType":"uint256"}],"outputs":[{"name":"","type":"bool","internalType":"bool"}],"stateMutability":"nonpayable"},{"type":"function","name":"dropInfoArrs","inputs":[{"name":"","type":"uint256","internalType":"uint256"}],"outputs":[{"name":"activityId","type":"uint256","internalType":"uint256"},{"name":"userAccount","type":"address","internalType":"address"},{"name":"dropTime","type":"uint256","internalType":"uint256"},{"name":"dropAmt","type":"uint256","internalType":"uint256"}],"stateMutability":"view"},{"type":"function","name":"iNFTManager","inputs":[],"outputs":[{"name":"","type":"address","internalType":"contract INftManager"}],"stateMutability":"view"},{"type":"function","name":"initialize","inputs":[{"name":"_initialOwner","type":"address","internalType":"address"}],"outputs":[],"stateMutability":"nonpayable"},{"type":"function","name":"isMint","inputs":[],"outputs":[{"name":"","type":"bool","internalType":"bool"}],"stateMutability":"view"},{"type":"function","name":"maxDeadLine","inputs":[],"outputs":[{"name":"","type":"uint256","internalType":"uint256"}],"stateMutability":"view"},{"type":"function","name":"merchantOnceMaxMineAmt","inputs":[],"outputs":[{"name":"","type":"uint256","internalType":"uint256"}],"stateMutability":"view"},{"type":"function","name":"minePercent","inputs":[],"outputs":[{"name":"","type":"uint8","internalType":"uint8"}],"stateMutability":"view"},{"type":"function","name":"minedAmt","inputs":[],"outputs":[{"name":"","type":"uint256","internalType":"uint256"}],"stateMutability":"view"},{"type":"function","name":"name","inputs":[],"outputs":[{"name":"","type":"string","internalType":"string"}],"stateMutability":"view"},{"type":"function","name":"oneDay","inputs":[],"outputs":[{"name":"","type":"uint256","internalType":"uint256"}],"stateMutability":"view"},{"type":"function","name":"owner","inputs":[],"outputs":[{"name":"","type":"address","internalType":"address"}],"stateMutability":"view"},{"type":"function","name":"renounceOwnership","inputs":[],"outputs":[],"stateMutability":"nonpayable"},{"type":"function","name":"symbol","inputs":[],"outputs":[{"name":"","type":"string","internalType":"string"}],"stateMutability":"view"},{"type":"function","name":"totalMineAmt","inputs":[],"outputs":[{"name":"","type":"uint256","internalType":"uint256"}],"stateMutability":"view"},{"type":"function","name":"totalSupply","inputs":[],"outputs":[{"name":"","type":"uint256","internalType":"uint256"}],"stateMutability":"view"},{"type":"function","name":"transfer","inputs":[{"name":"to","type":"address","internalType":"address"},{"name":"value","type":"uint256","internalType":"uint256"}],"outputs":[{"name":"","type":"bool","internalType":"bool"}],"stateMutability":"nonpayable"},{"type":"function","name":"transferFrom","inputs":[{"name":"from","type":"address","internalType":"address"},{"name":"to","type":"address","internalType":"address"},{"name":"value","type":"uint256","internalType":"uint256"}],"outputs":[{"name":"","type":"bool","internalType":"bool"}],"stateMutability":"nonpayable"},{"type":"function","name":"transferOwnership","inputs":[{"name":"newOwner","type":"address","internalType":"address"}],"outputs":[],"stateMutability":"nonpayable"},{"type":"function","name":"userOnceMaxMineAmt","inputs":[],"outputs":[{"name":"","type":"uint256","internalType":"uint256"}],"stateMutability":"view"},{"type":"event","name":"ActivityAdd","inputs":[{"name":"who","type":"address","indexed":true,"internalType":"address"},{"name":"_activityId","type":"uint256","indexed":true,"internalType":"uint256"},{"name":"_totalDropAmts","type":"uint256","indexed":false,"internalType":"uint256"},{"name":"_businessName","type":"string","indexed":false,"internalType":"string"},{"name":"_activityContent","type":"string","indexed":false,"internalType":"string"},{"name":"_latitudeLongitude","type":"string","indexed":false,"internalType":"string"},{"name":"_activityDeadLine","type":"uint256","indexed":false,"internalType":"uint256"},{"name":"_dropType","type":"uint8","indexed":false,"internalType":"uint8"},{"name":"_dropNumber","type":"uint256","indexed":false,"internalType":"uint256"},{"name":"_minDropAmt","type":"uint256","indexed":false,"internalType":"uint256"},{"name":"_maxDropAmt","type":"uint256","indexed":false,"internalType":"uint256"},{"name":"_tokenContractAddr","type":"address","indexed":false,"internalType":"address"}],"anonymous":false},{"type":"event","name":"ActivityFinish","inputs":[{"name":"_activityId","type":"uint256","indexed":true,"internalType":"uint256"},{"name":"_tokenContractAddr","type":"address","indexed":false,"internalType":"address"},{"name":"_returnAmount","type":"uint256","indexed":false,"internalType":"uint256"},{"name":"_minedAmount","type":"uint256","indexed":false,"internalType":"uint256"}],"anonymous":false},{"type":"event","name":"AddMineAmt","inputs":[{"name":"who","type":"address","indexed":true,"internalType":"address"},{"name":"_addMineAmt","type":"uint256","indexed":false,"internalType":"uint256"}],"anonymous":false},{"type":"event","name":"Approval","inputs":[{"name":"owner","type":"address","indexed":true,"internalType":"address"},{"name":"spender","type":"address","indexed":true,"internalType":"address"},{"name":"value","type":"uint256","indexed":false,"internalType":"uint256"}],"anonymous":false},{"type":"event","name":"Drop","inputs":[{"name":"who","type":"address","indexed":true,"internalType":"address"},{"name":"_activityId","type":"uint256","indexed":true,"internalType":"uint256"},{"name":"_dropAmt","type":"uint256","indexed":false,"internalType":"uint256"}],"anonymous":false},{"type":"event","name":"Initialized","inputs":[{"name":"version","type":"uint64","indexed":false,"internalType":"uint64"}],"anonymous":false},{"type":"event","name":"OwnershipTransferred","inputs":[{"name":"previousOwner","type":"address","indexed":true,"internalType":"address"},{"name":"newOwner","type":"address","indexed":true,"internalType":"address"}],"anonymous":false},{"type":"event","name":"SetMinePercent","inputs":[{"name":"minePercent","type":"uint8","indexed":false,"internalType":"uint8"}],"anonymous":false},{"type":"event","name":"SetValidTime","inputs":[{"name":"who","type":"address","indexed":true,"internalType":"address"},{"name":"_time","type":"uint256","indexed":false,"internalType":"uint256"}],"anonymous":false},{"type":"event","name":"Transfer","inputs":[{"name":"from","type":"address","indexed":true,"internalType":"address"},{"name":"to","type":"address","indexed":true,"internalType":"address"},{"name":"value","type":"uint256","indexed":false,"internalType":"uint256"}],"anonymous":false},{"type":"error","name":"ERC20InsufficientAllowance","inputs":[{"name":"spender","type":"address","internalType":"address"},{"name":"allowance","type":"uint256","internalType":"uint256"},{"name":"needed","type":"uint256","internalType":"uint256"}]},{"type":"error","name":"ERC20InsufficientBalance","inputs":[{"name":"sender","type":"address","internalType":"address"},{"name":"balance","type":"uint256","internalType":"uint256"},{"name":"needed","type":"uint256","internalType":"uint256"}]},{"type":"error","name":"ERC20InvalidApprover","inputs":[{"name":"approver","type":"address","internalType":"address"}]},{"type":"error","name":"ERC20InvalidReceiver","inputs":[{"name":"receiver","type":"address","internalType":"address"}]},{"type":"error","name":"ERC20InvalidSender","inputs":[{"name":"sender","type":"address","internalType":"address"}]},{"type":"error","name":"ERC20InvalidSpender","inputs":[{"name":"spender","type":"address","internalType":"address"}]},{"type":"error","name":"InvalidInitialization","inputs":[]},{"type":"error","name":"NotInitializing","inputs":[]},{"type":"error","name":"OwnableInvalidOwner","inputs":[{"name":"owner","type":"address","internalType":"address"}]},{"type":"error","name":"OwnableUnauthorizedAccount","inputs":[{"name":"account","type":"address","internalType":"address"}]},{"type":"error","name":"ReentrancyGuardReentrantCall","inputs":[]}],"bytecode":{"object":"0x6101803462000212576001600160401b0390601f620030bd38819003918201601f1916830191908483118484101762000217578160609285926040958652833981010312620002125762000053826200022d565b916200006f8262000067602084016200022d565b92016200022d565b91660110d9316ec00060805262278d0060a0526201518060c052630e4e1c0060e0526101009463016e360086526000805561013261ffff19600154161760015560018060a01b0380610120961686528061014094168452610160941684527ff0c57e16840df040f15088dc2f81fe391c3923bec73e23a9662efc9c229c6a009081549060ff82851c1662000201578080831603620001bc575b5050505192612e7a94856200024386396080518581816105ad015261159a015260a05185818161175001526122a7015260c051858181610a0701526117f8015260e051858181610286015261052e015251848181610795015261162201525183818161062f01528181610707015281816108320152818161183101526120be0152518281816112c0015261197701525181818161048a015281816104eb015281816108de0152818161096d015261127b0152f35b6001600160401b0319909116811790915581519081527fc7f505b2f371ae2175ee4913f4499e1f2633a7b5936321eed1cdaeb6115181d290602090a138808062000108565b835163f92ee8a960e01b8152600490fd5b600080fd5b634e487b7160e01b600052604160045260246000fd5b51906001600160a01b0382168203620002125756fe608080604052600436101561001357600080fd5b60003560e01c90816306fdde03146125f257508063095ea7b31461253f57806313f34fed1461250557806318160ddd146124c857806323b872dd146124905780632a916c2014612433578063313ce5671461241757806333b3f944146123f157806342966c68146123d457806343b22efc146118605780634ba1332f1461181b5780634bd9351b146117e05780634d43959d146117735780634dc143d51461173857806370a08231146116df578063715018a61461167557806379cc6790146116455780637f17bb681461160a57806385a455f5146115bd57806388e40a5a146115825780638da5cb5b1461154c57806395d89b4114611443578063a075282514611341578063a6d9391514611320578063a9059cbb146112ef578063b6d18c8c146112aa578063bbe6851114611265578063c4d66de814611091578063c8c1d78d14610b68578063cbd596c4146102a9578063cdd544e31461026e578063dd62ed3e14610225578063f2fde38b146101fa578063f7859c28146101dc5763fefee0e1146101a057600080fd5b346101d75760203660031901126101d7576004356002548110156101d7576101c9602091612980565b90546040519160031b1c8152f35b600080fd5b346101d75760003660031901126101d7576020600054604051908152f35b346101d75760203660031901126101d7576102236102166126fd565b61021e612d14565b6129fc565b005b346101d75760403660031901126101d75761023e6126fd565b61024f610249612713565b91612729565b9060018060a01b03166000526020526020604060002054604051908152f35b346101d75760003660031901126101d75760206040517f00000000000000000000000000000000000000000000000000000000000000008152f35b346101d75760203660031901126101d7576102c2612ce4565b60043560001981011161077d576102de60043560001901612866565b506102ee6004356000190161282b565b5060018201549091906001600160a01b03163303610b0757600582018054600160ff821603610a9c5760029060ff1916179055610342610337600a8301546008840154906129c4565b6001840154906129ef565b9160009083610a34575b60015460ff8160081c16806109e0575b80610951575b80156108c2575b61042f575b505060025491600160401b831015610419576103b18360017f32b4fb78ab9b6fcf0181a2a3906e5473b095a3e71595ccc87bd039bbacc6acaf9501600255612980565b815460001960039290921b82811b1990911660043592830190911b17909155600b9190910154604080516001600160a01b03909216825260208201959095529384019190915291606090a26001600080516020612e2583398151915255602060405160018152f35b634e487b7160e01b600052604160045260246000fd5b60005490651b48eb57e0008210156108735760ff60325b16908160ff821603610864575b505060015460ff811615158061082a575b61046f575b5061036e565b60405163072f2a0f60e31b81523360048201526020816024817f00000000000000000000000000000000000000000000000000000000000000006001600160a01b03165afa9081156106ae576000916107f8575b504210156107ec5760ff16905b60405163072f2a0f60e31b81523360048201526020816024817f00000000000000000000000000000000000000000000000000000000000000006001600160a01b03165afa9081156106ae576000916107ba575b50421015610793577f0000000000000000000000000000000000000000000000000000000000000000915b600284015460148102908082046014148115171561077d576301312d000290808204620f4240149015171561077d5760649160ff6105a09260018801548181116000146107755750915b16906129c4565b049180831161076d575b507f00000000000000000000000000000000000000000000000000000000000000008181116105da575b50610469565b90919293506105e983836129b7565b8111156106ba575050600381920155610604816000546129b7565b60005560405163a9059cbb60e01b8152336004820152602481018290526020818060448101038160007f00000000000000000000000000000000000000000000000000000000000000006001600160a01b03165af180156106ae5761067f575b505b33600052600660205242604060002055838080806105d4565b6106a09060203d6020116106a7575b61069881836127b2565b8101906129d7565b5083610664565b503d61068e565b6040513d6000823e3d90fd5b6106d992506003916106cb916129ef565b9201918083556000546129b7565b600055805460405163a9059cbb60e01b815233600482015260248101919091526020818060448101038160007f00000000000000000000000000000000000000000000000000000000000000006001600160a01b03165af180156106ae5761074e575b505461ff001960015416600155610666565b6107669060203d6020116106a75761069881836127b2565b508361073c565b9150866105aa565b905091610599565b634e487b7160e01b600052601160045260246000fd5b7f00000000000000000000000000000000000000000000000000000000000000009161054f565b90506020813d6020116107e4575b816107d5602093836127b2565b810103126101d7575187610524565b3d91506107c8565b60011c607f16906104d0565b90506020813d602011610822575b81610813602093836127b2565b810103126101d75751876104c3565b3d9150610806565b50600b8501547f00000000000000000000000000000000000000000000000000000000000000006001600160a01b03908116911614610464565b60ff1916176001558580610453565b655af3107a400082101561088a5760ff6028610446565b65b5e620f480008210156108a15760ff6014610446565b660110d9316ec0008210156108b95760ff600a610446565b60ff6000610446565b50604051638dce8b1360e01b81523360048201526020816024817f00000000000000000000000000000000000000000000000000000000000000006001600160a01b03165afa9081156106ae5760009161091f575b504210610369565b90506020813d602011610949575b8161093a602093836127b2565b810103126101d7575186610917565b3d915061092d565b5060405163072f2a0f60e31b81523360048201526020816024817f00000000000000000000000000000000000000000000000000000000000000006001600160a01b03165afa9081156106ae576000916109ae575b504210610362565b90506020813d6020116109d8575b816109c9602093836127b2565b810103126101d75751866109a6565b3d91506109bc565b503360005260066020526040600020548015600014610a015750600161035c565b610a2c907f0000000000000000000000000000000000000000000000000000000000000000906129ef565b50600161035c565b600b83015460405163a9059cbb60e01b81523360048201526024810186905290602090829060449082906000906001600160a01b03165af180156106ae57610a7d575b5061034c565b610a959060203d6020116106a75761069881836127b2565b5084610a77565b60405162461bcd60e51b815260206004820152603b60248201527f4669736863616b654576656e744d616e6167657220616374697669747946696e60448201527f6973683a20416374697669747920537461747573204572726f722e00000000006064820152608490fd5b60405162461bcd60e51b815260206004820152603360248201527f4669736863616b654576656e744d616e6167657220616374697669747946696e60448201527234b9b41d102737ba102a34329027bbb732b91760691b6064820152608490fd5b346101d75760603660031901126101d757600435610b84612713565b604491610b8f612ce4565b823591816000526020936007855260406000209160018060a01b03948582169384600052875260ff6040600020541661103957600019918286019686881161077d57610be4610bdd89612866565b509861282b565b50916001988960ff60058601541603610fdb57828a820154163303610f855760068101544211610f2857600781015460ff16600203610f1c57600a81015485111580610f0e575b15610eb4575b60088101549660028501978854811115610e4a57610c548c91600a8501546129c4565b950194610c628654886129b7565b11610de15750600b015460405163a9059cbb60e01b81526001600160a01b03929092166004830152602482018590528a908290604490829060009087165af180156106ae57610dc4575b508660005260078952604060002086600052895260406000208860ff198254161790556040516080810181811067ffffffffffffffff82111761041957604052878152898101878152604082014281526060830191868352600554600160401b81101561041957808d610d229201600555612762565b959095610dae576003945186558c86019151166001600160601b0360a01b82541617905551600284015551910155610d5b8282546129b7565b9055825491821461077d577fd034d7fdd827eb4f41b668e02da1342cb8eced53d850fef72e1b2cd2c8387bac92868893019055604051908152a380600080516020612e2583398151915255604051908152f35b634e487b7160e01b600052600060045260246000fd5b610dda908a3d8c116106a75761069881836127b2565b5089610cac565b8b7f4669736863616b654576656e744d616e616765722064726f703a2054686520726084926040519262461bcd60e51b84526004840152603f60248401528201527f657761726420616d6f756e7420686173206265656e2065786365656465642e006064820152fd5b60405162461bcd60e51b8152600481018e9052603a60248201527f4669736863616b654576656e744d616e616765722064726f703a204578636565818401527f64656420746865206e756d626572206f6620726577617264732e0000000000006064820152608490fd5b60405162461bcd60e51b8152600481018c9052602d60248201527f4669736863616b654576656e744d616e616765722064726f703a2044726f7020818901526c20b6b7bab73a1022b93937b91760991b6064820152608490fd5b506009810154851015610c2b565b600a8101549450610c31565b60405162461bcd60e51b8152600481018c9052603060248201527f4669736863616b654576656e744d616e616765722064726f703a204163746976818901526f34ba3c902430b99022bc3834b932b21760811b6064820152608490fd5b60405162461bcd60e51b8152600481018c9052602960248201527f4669736863616b654576656e744d616e616765722064726f703a204e6f742054818901526834329027bbb732b91760b91b6064820152608490fd5b60405162461bcd60e51b8152600481018c9052603160248201527f4669736863616b654576656e744d616e616765722064726f703a204163746976818901527034ba3c9029ba30ba3ab99022b93937b91760791b6064820152608490fd5b60405162461bcd60e51b815260048101889052602b60248201527f4669736863616b654576656e744d616e616765722064726f703a205573657220818501526a2430b990223937b832b21760a91b6064820152608490fd5b346101d75760203660031901126101d7576110aa6126fd565b7ff0c57e16840df040f15088dc2f81fe391c3923bec73e23a9662efc9c229c6a009081549060ff8260401c16159167ffffffffffffffff81168015908161125d575b6001149081611253575b15908161124a575b506112385767ffffffffffffffff198116600117845582611219575b506001600160a01b038116156111a25761114c90611136612da3565b61113e612da3565b611147816129fc565b612d4d565b6000805561013261ffff19600154161760015561116557005b68ff00000000000000001981541690557fc7f505b2f371ae2175ee4913f4499e1f2633a7b5936321eed1cdaeb6115181d2602060405160018152a1005b60a460405162461bcd60e51b815260206004820152604460248201527f4669736863616b654576656e744d616e6167657220696e697469616c697a653a60448201527f205f696e697469616c4f776e65722063616e2774206265207a65726f206164646064820152637265737360e01b6084820152fd5b68ffffffffffffffffff1916680100000000000000011783558361111a565b60405163f92ee8a960e01b8152600490fd5b905015856110fe565b303b1591506110f6565b8491506110ec565b346101d75760003660031901126101d7576040517f00000000000000000000000000000000000000000000000000000000000000006001600160a01b03168152602090f35b346101d75760003660031901126101d7576040517f00000000000000000000000000000000000000000000000000000000000000006001600160a01b03168152602090f35b346101d75760403660031901126101d75761131561130b6126fd565b6024359033612b03565b602060405160018152f35b346101d75760003660031901126101d757602060ff60015416604051908152f35b346101d75760203660031901126101d7576004356003548110156101d75761136890612866565b508054600182015490916001600160a01b03918216919061138b600282016128db565b90611398600382016128db565b926113a5600483016128db565b93600583015494600684015461141760ff600787015416926114096008880154956113fb60098a015498600b600a8c01549b0154169a6040519e8f9e8f90610180928252602082015281604082015201906126bd565b8c810360608e0152906126bd565b908a820360808c01526126bd565b9660a089015260c088015260e08701526101008601526101208501526101408401526101608301520390f35b346101d75760003660031901126101d7576040517f52c63247e1f47db19d5ce0460030c497f067ca4cebf71ba98eeadabe20bace048054826000611486836128a1565b928383526020946001918660018216918260001461152a5750506001146114ce575b50506114b6925003836127b2565b6114ca6040519282849384528301906126bd565b0390f35b8592506000527f46a2803e59a4de4e7a4c574b1243f25977ac4c77d5a1a4a609b5394cebb4a2aa906000915b8583106115125750506114b6935082010185806114a8565b805483890185015287945086939092019181016114fa565b92509350506114b694915060ff191682840152151560051b82010185806114a8565b346101d75760003660031901126101d757600080516020612de5833981519152546040516001600160a01b039091168152602090f35b346101d75760003660031901126101d75760206040517f00000000000000000000000000000000000000000000000000000000000000008152f35b346101d75760403660031901126101d7576115d6612713565b600435600052600760205260406000209060018060a01b0316600052602052602060ff604060002054166040519015158152f35b346101d75760003660031901126101d75760206040517f00000000000000000000000000000000000000000000000000000000000000008152f35b346101d75760403660031901126101d7576102236116616126fd565b60243590611670823383612a2d565b612c03565b346101d75760003660031901126101d75761168e612d14565b600080516020612de583398151915280546001600160a01b031981169091556000906001600160a01b03167f8be0079c531659141344cd1fd0a4f28419497f9722a3daafe3b4186f6b6457e08280a3005b346101d75760203660031901126101d7576001600160a01b036117006126fd565b166000527f52c63247e1f47db19d5ce0460030c497f067ca4cebf71ba98eeadabe20bace006020526020604060002054604051908152f35b346101d75760003660031901126101d75760206040517f00000000000000000000000000000000000000000000000000000000000000008152f35b346101d75760203660031901126101d7576004356004548110156101d75761179c60c09161282b565b50805490600181015490600281015460038201549060ff600560048501549401541693604051958652602086015260408501526060840152608083015260a0820152f35b346101d75760003660031901126101d75760206040517f00000000000000000000000000000000000000000000000000000000000000008152f35b346101d75760003660031901126101d7576040517f00000000000000000000000000000000000000000000000000000000000000006001600160a01b03168152602090f35b346101d7576101403660031901126101d75760043567ffffffffffffffff81116101d7576118929036906004016127d4565b60243567ffffffffffffffff81116101d7576118b29036906004016127d4565b60443567ffffffffffffffff81116101d7576118d29036906004016127d4565b9160a435608460ff821682036101d75760e43590610124356001600160a01b03811681036101d757611902612ce4565b82600260ff86161480156123c7575b1561237a576101043510612323578135156122d5576064354210806122a1575b1561224a5761194560c435610104356129c4565b8235036121df57620f424082351061216f57606560c4351180159061215d575b156120e6576001600160a01b038181167f00000000000000000000000000000000000000000000000000000000000000009091161480156120b0575b1561205957600160ff851614612050575b6040516323b872dd60e01b81523360048201523060248201528235604482015260208160648160006001600160a01b0387165af180156106ae57612031575b506003549260018401841161077d57604051968761018081011067ffffffffffffffff6101808a0111176104195761018088016040526001850188523360208901528660408901528060608901528860808901524260a089015260643560c089015260ff861660e089015260c435610100890152816101208901526101043561014089015260018060a01b038316610160890152604051948560c081011067ffffffffffffffff60c0880111176104195760c0860160405260018101865260006020870152600060408701526000606087015260006080870152600160a0870152600160401b81101561041957806001611aee9201600355612866565b610dae57885181556001810160018060a01b0360208b0151166001600160601b0360a01b825416179055604089015180519067ffffffffffffffff8211610419578190611b3e60028501546128a1565b601f8111611fde575b50602090601f8311600114611f6c57600092611f61575b50508160011b916000199060031b1c19161760028201555b606089015180519067ffffffffffffffff8211610419578190611b9c60038501546128a1565b601f8111611f0e575b50602090601f8311600114611e9c57600092611e91575b50508160011b916000199060031b1c19161760038201555b608089015180519067ffffffffffffffff821161041957611bf860048401546128a1565b601f8111611e4a575b50602090601f8311600114611dd757600b93929160009183611dcc575b50508160011b916000199060031b1c19161760048201555b60a08a0151600582015560c08a0151600682015560ff60e08b01511660ff196007830154161760078201556101008a015160088201556101208a015160098201556101408a0151600a8201550160018060a01b036101608a0151166001600160601b0360a01b825416179055600454600160401b81101561041957806001611cc1920160045561282b565b959095610dae57604099611d6160ff93838560a060057fcc07277f6a9ae6659df5a850b317ba47d741264062fc7654d69b9fe11f4fabef9c611d6f985181556020850151600182015560408501516002820155606085015160038201556080850151600482015501920151168619825416179055611d548c519b8e5199358a5261014060208b01526101408a01906126bd565b908882038e8a01526126bd565b9086820360608801526126bd565b6064356080860152951660a084015260c43560c084015260e0830152610104356101008301526001600160a01b0316610120820152339281900390a3516001600080516020612e2583398151915255815190600182526020820152f35b015190508d80611c1e565b906004840160005260206000209160005b601f1985168110611e325750918391600193600b9695601f19811610611e19575b505050811b016004820155611c36565b015160001960f88460031b161c191690558d8080611e09565b91926020600181928685015181550194019201611de8565b600484016000526020600020601f840160051c810160208510611e8a575b601f830160051c82018110611e7e575050611c01565b60008155600101611e68565b5080611e68565b015190508c80611bbc565b9250600384016000526020600020906000935b601f1984168510611ef3576001945083601f19811610611eda575b505050811b016003820155611bd4565b015160001960f88460031b161c191690558c8080611eca565b81810151835560209485019460019093019290910190611eaf565b909150600384016000526020600020601f840160051c810160208510611f5a575b90849392915b601f830160051c82018110611f4b575050611ba5565b60008155859450600101611f35565b5080611f2f565b015190508c80611b5e565b9250600284016000526020600020906000935b601f1984168510611fc3576001945083601f19811610611faa575b505050811b016002820155611b76565b015160001960f88460031b161c191690558c8080611f9a565b81810151835560209485019460019093019290910190611f7f565b909150600284016000526020600020601f840160051c81016020851061202a575b90849392915b601f830160051c8201811061201b575050611b47565b60008155859450600101612005565b5080611fff565b6120499060203d6020116106a75761069881836127b2565b50876119f1565b600092506119b2565b5060405162461bcd60e51b815260206004820152603e6024820152600080516020612e0583398151915260448201527f3a20546f6b656e20636f6e74726163742061646472657373206572726f7200006064820152fd5b506001600160a01b038181167f0000000000000000000000000000000000000000000000000000000000000000909116146119a1565b60405162461bcd60e51b81526020600482015260566024820152600080516020612e0583398151915260448201527f3a2044726f70204e756d62657220546f6f204c61726765202c4c696d74203130606482015275181037b9102a37ba30b6223937b820b6ba399798981760511b8184015260a490fd5b506298968082350460c4351115611965565b60405162461bcd60e51b815260206004820152604f6024820152600080516020612e0583398151915260448201527f3a20546f74616c2044726f7020416d6f756e747320546f6f204c6974746c652060648201526e161026b4b734b6bab69037b310189760891b8184015260a490fd5b60405162461bcd60e51b815260206004820152604a6024820152600080516020612e0583398151915260448201527f3a2044726f70204e756d626572204e6f74204d65657420546f74616c2044726f606482015269381020b6b7bab73a399760b11b8184015260a490fd5b5060405162461bcd60e51b815260206004820152603a6024820152600080516020612e0583398151915260448201527f3a20416374697669747920446561644c696e65204572726f722e0000000000006064820152fd5b506122cc7f0000000000000000000000000000000000000000000000000000000000000000426129b7565b60643510611931565b5060405162461bcd60e51b81526020600482015260346024820152600080516020612e058339815191526044820152731d10223937b81020b6b7bab73a1022b93937b91760611b6064820152fd5b5060405162461bcd60e51b81526020600482015260396024820152600080516020612e0583398151915260448201527f3a204d617844726f70416d74205365747570204572726f722e000000000000006064820152fd5b60405162461bcd60e51b81526020600482015260326024820152600080516020612e058339815191526044820152711d10223937b8102a3cb8329022b93937b91760711b60648201528390fd5b50600160ff861614611911565b346101d75760203660031901126101d75761022360043533612c03565b346101d75760003660031901126101d757602060ff60015460081c166040519015158152f35b346101d75760003660031901126101d757602060405160128152f35b346101d75760203660031901126101d7576004356005548110156101d75761245c608091612762565b5080549060018060a01b03600182015416906003600282015491015491604051938452602084015260408301526060820152f35b346101d75760603660031901126101d7576113156124ac6126fd565b6124b4612713565b604435916124c3833383612a2d565b612b03565b346101d75760003660031901126101d75760207f52c63247e1f47db19d5ce0460030c497f067ca4cebf71ba98eeadabe20bace0254604051908152f35b346101d75760203660031901126101d7576001600160a01b036125266126fd565b1660005260066020526020604060002054604051908152f35b346101d75760403660031901126101d7576125586126fd565b6024359033156125d9576001600160a01b03169081156125c05761257b33612729565b82600052602052806040600020556040519081527f8c5be1e5ebec7d5bd14f71427d1e84f3dd0314c0f7b2291e5b200ac8c7c3b92560203392a3602060405160018152f35b604051634a1406b160e11b815260006004820152602490fd5b60405163e602df0560e01b815260006004820152602490fd5b346101d75760003660031901126101d7577f52c63247e1f47db19d5ce0460030c497f067ca4cebf71ba98eeadabe20bace038054826000612632836128a1565b928383526020946001918660018216918260001461152a5750506001146126615750506114b6925003836127b2565b8592506000527f2ae08a8e29253f69ac5d979a101956ab8f8d9d7ded63fa7a83b16fc47648eab0906000915b8583106126a55750506114b6935082010185806114a8565b8054838901850152879450869390920191810161268d565b919082519283825260005b8481106126e9575050826000602080949584010152601f8019910116010190565b6020818301810151848301820152016126c8565b600435906001600160a01b03821682036101d757565b602435906001600160a01b03821682036101d757565b6001600160a01b031660009081527f52c63247e1f47db19d5ce0460030c497f067ca4cebf71ba98eeadabe20bace016020526040902090565b60055481101561279c57600560005260021b7f036b6384b5eca791c62761152d0c79bb0604c104a5fb6f4eb0703f3154bb3db00190600090565b634e487b7160e01b600052603260045260246000fd5b90601f8019910116810190811067ffffffffffffffff82111761041957604052565b81601f820112156101d75780359067ffffffffffffffff82116104195760405192612809601f8401601f1916602001856127b2565b828452602083830101116101d757816000926020809301838601378301015290565b60045481101561279c576006906004600052027f8a35acfbc15ff81a39ae7d344fd709f28e8600b4aa8c65c6b64bfe7fe36bd19b0190600090565b60035481101561279c57600c906003600052027fc2575a0e9e593c00f959f8c92f12db2869c3395a3b0502d05e2516446f71f85b0190600090565b90600182811c921680156128d1575b60208310146128bb57565b634e487b7160e01b600052602260045260246000fd5b91607f16916128b0565b906040519182600082546128ee816128a1565b9081845260209460019160018116908160001461295e575060011461291f575b50505061291d925003836127b2565b565b600090815285812095935091905b81831061294657505061291d935082010138808061290e565b8554888401850152948501948794509183019161292d565b9250505061291d94925060ff191682840152151560051b82010138808061290e565b60025481101561279c5760026000527f405787fa12a823e0f2b7631cc41b3ba8828b3321ca811111fa75cd3aa3bb5ace0190600090565b9190820180921161077d57565b8181029291811591840414171561077d57565b908160209103126101d7575180151581036101d75790565b9190820391821161077d57565b6001600160a01b03811615612a145761291d90612d4d565b604051631e4fbdf760e01b815260006004820152602490fd5b9190612a3883612729565b9260018060a01b0390818316916000958387526020526040862054936000198503612a67575b50505050505050565b858510612ad25750811615612ab9578115612aa05790612a8a6040949392612729565b9085526020520391205538808080808080612a5e565b604051634a1406b160e11b815260048101869052602490fd5b60405163e602df0560e01b815260048101869052602490fd5b604051637dc7a0d960e11b81526001600160a01b039190911660048201526024810185905260448101869052606490fd5b916001600160a01b03808416928315612bea5716928315612bd1576000908382527f52c63247e1f47db19d5ce0460030c497f067ca4cebf71ba98eeadabe20bace0080602052604083205491848310612b9e575082847fddf252ad1be2c89b69c2b068fc378daa952ba7f163c4a11628f55a4df523b3ef959360409388602097528652038282205586815220818154019055604051908152a3565b60405163391434e360e21b81526001600160a01b0391909116600482015260248101929092525060448101839052606490fd5b60405163ec442f0560e01b815260006004820152602490fd5b604051634b637e8f60e11b815260006004820152602490fd5b91906001600160a01b038316908115612bea57816000527f52c63247e1f47db19d5ce0460030c497f067ca4cebf71ba98eeadabe20bace008060205260406000205494828610612cb35750817fddf252ad1be2c89b69c2b068fc378daa952ba7f163c4a11628f55a4df523b3ef926000959660209386885284520360408620557f52c63247e1f47db19d5ce0460030c497f067ca4cebf71ba98eeadabe20bace02818154039055604051908152a3565b60405163391434e360e21b81526001600160a01b039190911660048201526024810186905260448101839052606490fd5b600080516020612e258339815191526002815414612d025760029055565b604051633ee5aeb560e01b8152600490fd5b600080516020612de5833981519152546001600160a01b03163303612d3557565b60405163118cdaa760e01b8152336004820152602490fd5b600080516020612de583398151915280546001600160a01b039283166001600160a01b0319821681179092559091167f8be0079c531659141344cd1fd0a4f28419497f9722a3daafe3b4186f6b6457e0600080a3565b60ff7ff0c57e16840df040f15088dc2f81fe391c3923bec73e23a9662efc9c229c6a005460401c1615612dd257565b604051631afcd79f60e31b8152600490fdfe9016d09d72d40fdae2fd8ceac6b6234c7706214fd39c1cd1e609a0528c1993004669736863616b654576656e744d616e616765722061637469766974794164649b779b17422d0df92223018b32b4d1fa46e071723d6817e2486d003becc55f00a2646970667358221220bf580ad91a1275357aabc7f2aa2a07bf9be71a83896b20a1290dec1e59997da764736f6c63430008180033","linkReferences":{}},"methodIdentifiers":{"FccTokenAddr()":"4ba1332f","NTFLastMineTime(address)":"13f34fed","UsdtTokenAddr()":"b6d18c8c","activityAdd(string,string,string,uint256,uint256,uint8,uint256,uint256,uint256,address)":"43b22efc","activityDropedToAccount(uint256,address)":"85a455f5","activityFinish(uint256)":"cbd596c4","activityInfoArrs(uint256)":"a0752825","activityInfoChangedIdx(uint256)":"fefee0e1","activityInfoExtArrs(uint256)":"4d43959d","allowance(address,address)":"dd62ed3e","approve(address,uint256)":"095ea7b3","balanceOf(address)":"70a08231","burn(uint256)":"42966c68","burnFrom(address,uint256)":"79cc6790","decimals()":"313ce567","drop(uint256,address,uint256)":"c8c1d78d","dropInfoArrs(uint256)":"2a916c20","iNFTManager()":"bbe68511","initialize(address)":"c4d66de8","isMint()":"33b3f944","maxDeadLine()":"4dc143d5","merchantOnceMaxMineAmt()":"cdd544e3","minePercent()":"a6d93915","minedAmt()":"f7859c28","name()":"06fdde03","oneDay()":"4bd9351b","owner()":"8da5cb5b","renounceOwnership()":"715018a6","symbol()":"95d89b41","totalMineAmt()":"88e40a5a","totalSupply()":"18160ddd","transfer(address,uint256)":"a9059cbb","transferFrom(address,address,uint256)":"23b872dd","transferOwnership(address)":"f2fde38b","userOnceMaxMineAmt()":"7f17bb68"},"storageLayout":{"storage":[{"astId":47190,"contract":"src/contracts/core/FishcakeEventManager.sol:FishcakeEventManager","label":"minedAmt","offset":0,"slot":"0","type":"t_uint256"},{"astId":47193,"contract":"src/contracts/core/FishcakeEventManager.sol:FishcakeEventManager","label":"minePercent","offset":0,"slot":"1","type":"t_uint8"},{"astId":47196,"contract":"src/contracts/core/FishcakeEventManager.sol:FishcakeEventManager","label":"isMint","offset":1,"slot":"1","type":"t_bool"},{"astId":47255,"contract":"src/contracts/core/FishcakeEventManager.sol:FishcakeEventManager","label":"activityInfoChangedIdx","offset":0,"slot":"2","type":"t_array(t_uint256)dyn_storage"},{"astId":47259,"contract":"src/contracts/core/FishcakeEventManager.sol:FishcakeEventManager","label":"activityInfoArrs","offset":0,"slot":"3","type":"t_array(t_struct(ActivityInfo)47230_storage)dyn_storage"},{"astId":47263,"contract":"src/contracts/core/FishcakeEventManager.sol:FishcakeEventManager","label":"activityInfoExtArrs","offset":0,"slot":"4","type":"t_array(t_struct(ActivityInfoExt)47243_storage)dyn_storage"},{"astId":47267,"contract":"src/contracts/core/FishcakeEventManager.sol:FishcakeEventManager","label":"dropInfoArrs","offset":0,"slot":"5","type":"t_array(t_struct(DropInfo)47252_storage)dyn_storage"},{"astId":47271,"contract":"src/contracts/core/FishcakeEventManager.sol:FishcakeEventManager","label":"NTFLastMineTime","offset":0,"slot":"6","type":"t_mapping(t_address,t_uint256)"},{"astId":47277,"contract":"src/contracts/core/FishcakeEventManager.sol:FishcakeEventManager","label":"activityDropedToAccount","offset":0,"slot":"7","type":"t_mapping(t_uint256,t_mapping(t_address,t_bool))"},{"astId":47309,"contract":"src/contracts/core/FishcakeEventManager.sol:FishcakeEventManager","label":"__gap","offset":0,"slot":"8","type":"t_array(t_uint256)100_storage"}],"types":{"t_address":{"encoding":"inplace","label":"address","numberOfBytes":"20"},"t_array(t_struct(ActivityInfo)47230_storage)dyn_storage":{"encoding":"dynamic_array","label":"struct FishcakeEventManagerStorage.ActivityInfo[]","numberOfBytes":"32","base":"t_struct(ActivityInfo)47230_storage"},"t_array(t_struct(ActivityInfoExt)47243_storage)dyn_storage":{"encoding":"dynamic_array","label":"struct FishcakeEventManagerStorage.ActivityInfoExt[]","numberOfBytes":"32","base":"t_struct(ActivityInfoExt)47243_storage"},"t_array(t_struct(DropInfo)47252_storage)dyn_storage":{"encoding":"dynamic_array","label":"struct FishcakeEventManagerStorage.DropInfo[]","numberOfBytes":"32","base":"t_struct(DropInfo)47252_storage"},"t_array(t_uint256)100_storage":{"encoding":"inplace","label":"uint256[100]","numberOfBytes":"3200","base":"t_uint256"},"t_array(t_uint256)dyn_storage":{"encoding":"dynamic_array","label":"uint256[]","numberOfBytes":"32","base":"t_uint256"},"t_bool":{"encoding":"inplace","label":"bool","numberOfBytes":"1"},"t_mapping(t_address,t_bool)":{"encoding":"mapping","key":"t_address","label":"mapping(address => bool)","numberOfBytes":"32","value":"t_bool"},"t_mapping(t_address,t_uint256)":{"encoding":"mapping","key":"t_address","label":"mapping(address => uint256)","numberOfBytes":"32","value":"t_uint256"},"t_mapping(t_uint256,t_mapping(t_address,t_bool))":{"encoding":"mapping","key":"t_uint256","label":"mapping(uint256 => mapping(address => bool))","numberOfBytes":"32","value":"t_mapping(t_address,t_bool)"},"t_string_storage":{"encoding":"bytes","label":"string","numberOfBytes":"32"},"t_struct(ActivityInfo)47230_storage":{"encoding":"inplace","label":"struct FishcakeEventManagerStorage.ActivityInfo","numberOfBytes":"384","members":[{"astId":47207,"contract":"src/contracts/core/FishcakeEventManager.sol:FishcakeEventManager","label":"activityId","offset":0,"slot":"0","type":"t_uint256"},{"astId":47209,"contract":"src/contracts/core/FishcakeEventManager.sol:FishcakeEventManager","label":"businessAccount","offset":0,"slot":"1","type":"t_address"},{"astId":47211,"contract":"src/contracts/core/FishcakeEventManager.sol:FishcakeEventManager","label":"businessName","offset":0,"slot":"2","type":"t_string_storage"},{"astId":47213,"contract":"src/contracts/core/FishcakeEventManager.sol:FishcakeEventManager","label":"activityContent","offset":0,"slot":"3","type":"t_string_storage"},{"astId":47215,"contract":"src/contracts/core/FishcakeEventManager.sol:FishcakeEventManager","label":"latitudeLongitude","offset":0,"slot":"4","type":"t_string_storage"},{"astId":47217,"contract":"src/contracts/core/FishcakeEventManager.sol:FishcakeEventManager","label":"activityCreateTime","offset":0,"slot":"5","type":"t_uint256"},{"astId":47219,"contract":"src/contracts/core/FishcakeEventManager.sol:FishcakeEventManager","label":"activityDeadLine","offset":0,"slot":"6","type":"t_uint256"},{"astId":47221,"contract":"src/contracts/core/FishcakeEventManager.sol:FishcakeEventManager","label":"dropType","offset":0,"slot":"7","type":"t_uint8"},{"astId":47223,"contract":"src/contracts/core/FishcakeEventManager.sol:FishcakeEventManager","label":"dropNumber","offset":0,"slot":"8","type":"t_uint256"},{"astId":47225,"contract":"src/contracts/core/FishcakeEventManager.sol:FishcakeEventManager","label":"minDropAmt","offset":0,"slot":"9","type":"t_uint256"},{"astId":47227,"contract":"src/contracts/core/FishcakeEventManager.sol:FishcakeEventManager","label":"maxDropAmt","offset":0,"slot":"10","type":"t_uint256"},{"astId":47229,"contract":"src/contracts/core/FishcakeEventManager.sol:FishcakeEventManager","label":"tokenContractAddr","offset":0,"slot":"11","type":"t_address"}]},"t_struct(ActivityInfoExt)47243_storage":{"encoding":"inplace","label":"struct FishcakeEventManagerStorage.ActivityInfoExt","numberOfBytes":"192","members":[{"astId":47232,"contract":"src/contracts/core/FishcakeEventManager.sol:FishcakeEventManager","label":"activityId","offset":0,"slot":"0","type":"t_uint256"},{"astId":47234,"contract":"src/contracts/core/FishcakeEventManager.sol:FishcakeEventManager","label":"alreadyDropAmts","offset":0,"slot":"1","type":"t_uint256"},{"astId":47236,"contract":"src/contracts/core/FishcakeEventManager.sol:FishcakeEventManager","label":"alreadyDropNumber","offset":0,"slot":"2","type":"t_uint256"},{"astId":47238,"contract":"src/contracts/core/FishcakeEventManager.sol:FishcakeEventManager","label":"businessMinedAmt","offset":0,"slot":"3","type":"t_uint256"},{"astId":47240,"contract":"src/contracts/core/FishcakeEventManager.sol:FishcakeEventManager","label":"businessMinedWithdrawedAmt","offset":0,"slot":"4","type":"t_uint256"},{"astId":47242,"contract":"src/contracts/core/FishcakeEventManager.sol:FishcakeEventManager","label":"activityStatus","offset":0,"slot":"5","type":"t_uint8"}]},"t_struct(DropInfo)47252_storage":{"encoding":"inplace","label":"struct FishcakeEventManagerStorage.DropInfo","numberOfBytes":"128","members":[{"astId":47245,"contract":"src/contracts/core/FishcakeEventManager.sol:FishcakeEventManager","label":"activityId","offset":0,"slot":"0","type":"t_uint256"},{"astId":47247,"contract":"src/contracts/core/FishcakeEventManager.sol:FishcakeEventManager","label":"userAccount","offset":0,"slot":"1","type":"t_address"},{"astId":47249,"contract":"src/contracts/core/FishcakeEventManager.sol:FishcakeEventManager","label":"dropTime","offset":0,"slot":"2","type":"t_uint256"},{"astId":47251,"contract":"src/contracts/core/FishcakeEventManager.sol:FishcakeEventManager","label":"dropAmt","offset":0,"slot":"3","type":"t_uint256"}]},"t_uint256":{"encoding":"inplace","label":"uint256","numberOfBytes":"32"},"t_uint8":{"encoding":"inplace","label":"uint8","numberOfBytes":"1"}}},"id":64}