{
    "abi": [
        {
            "type": "constructor",
            "inputs": [],
            "stateMutability": "nonpayable"
        },
        {
            "type": "function",
            "name": "FccTokenAddr",
            "inputs": [],
            "outputs": [
                {
                    "name": "",
                    "type": "address",
                    "internalType": "contract IERC20"
                }
            ],
            "stateMutability": "view"
        },
        {
            "type": "function",
            "name": "NTFLastMineTime",
            "inputs": [
                {
                    "name": "",
                    "type": "address",
                    "internalType": "address"
                }
            ],
            "outputs": [
                {
                    "name": "",
                    "type": "uint256",
                    "internalType": "uint256"
                }
            ],
            "stateMutability": "view"
        },
        {
            "type": "function",
            "name": "UsdtTokenAddr",
            "inputs": [],
            "outputs": [
                {
                    "name": "",
                    "type": "address",
                    "internalType": "contract IERC20"
                }
            ],
            "stateMutability": "view"
        },
        {
            "type": "function",
            "name": "activityAdd",
            "inputs": [
                {
                    "name": "_businessName",
                    "type": "string",
                    "internalType": "string"
                },
                {
                    "name": "_activityContent",
                    "type": "string",
                    "internalType": "string"
                },
                {
                    "name": "_latitudeLongitude",
                    "type": "string",
                    "internalType": "string"
                },
                {
                    "name": "_activityDeadLine",
                    "type": "uint256",
                    "internalType": "uint256"
                },
                {
                    "name": "_totalDropAmts",
                    "type": "uint256",
                    "internalType": "uint256"
                },
                {
                    "name": "_dropType",
                    "type": "uint8",
                    "internalType": "uint8"
                },
                {
                    "name": "_dropNumber",
                    "type": "uint256",
                    "internalType": "uint256"
                },
                {
                    "name": "_minDropAmt",
                    "type": "uint256",
                    "internalType": "uint256"
                },
                {
                    "name": "_maxDropAmt",
                    "type": "uint256",
                    "internalType": "uint256"
                },
                {
                    "name": "_tokenContractAddr",
                    "type": "address",
                    "internalType": "address"
                }
            ],
            "outputs": [
                {
                    "name": "",
                    "type": "bool",
                    "internalType": "bool"
                },
                {
                    "name": "",
                    "type": "uint256",
                    "internalType": "uint256"
                }
            ],
            "stateMutability": "nonpayable"
        },
        {
            "type": "function",
            "name": "activityDroppedToAccount",
            "inputs": [
                {
                    "name": "",
                    "type": "uint256",
                    "internalType": "uint256"
                },
                {
                    "name": "",
                    "type": "address",
                    "internalType": "address"
                }
            ],
            "outputs": [
                {
                    "name": "",
                    "type": "bool",
                    "internalType": "bool"
                }
            ],
            "stateMutability": "view"
        },
        {
            "type": "function",
            "name": "activityFinish",
            "inputs": [
                {
                    "name": "_activityId",
                    "type": "uint256",
                    "internalType": "uint256"
                }
            ],
            "outputs": [
                {
                    "name": "",
                    "type": "bool",
                    "internalType": "bool"
                }
            ],
            "stateMutability": "nonpayable"
        },
        {
            "type": "function",
            "name": "activityInfoArrs",
            "inputs": [
                {
                    "name": "",
                    "type": "uint256",
                    "internalType": "uint256"
                }
            ],
            "outputs": [
                {
                    "name": "activityId",
                    "type": "uint256",
                    "internalType": "uint256"
                },
                {
                    "name": "businessAccount",
                    "type": "address",
                    "internalType": "address"
                },
                {
                    "name": "businessName",
                    "type": "string",
                    "internalType": "string"
                },
                {
                    "name": "activityContent",
                    "type": "string",
                    "internalType": "string"
                },
                {
                    "name": "latitudeLongitude",
                    "type": "string",
                    "internalType": "string"
                },
                {
                    "name": "activityCreateTime",
                    "type": "uint256",
                    "internalType": "uint256"
                },
                {
                    "name": "activityDeadLine",
                    "type": "uint256",
                    "internalType": "uint256"
                },
                {
                    "name": "dropType",
                    "type": "uint8",
                    "internalType": "uint8"
                },
                {
                    "name": "dropNumber",
                    "type": "uint256",
                    "internalType": "uint256"
                },
                {
                    "name": "minDropAmt",
                    "type": "uint256",
                    "internalType": "uint256"
                },
                {
                    "name": "maxDropAmt",
                    "type": "uint256",
                    "internalType": "uint256"
                },
                {
                    "name": "tokenContractAddr",
                    "type": "address",
                    "internalType": "address"
                }
            ],
            "stateMutability": "view"
        },
        {
            "type": "function",
            "name": "activityInfoChangedIdx",
            "inputs": [
                {
                    "name": "",
                    "type": "uint256",
                    "internalType": "uint256"
                }
            ],
            "outputs": [
                {
                    "name": "",
                    "type": "uint256",
                    "internalType": "uint256"
                }
            ],
            "stateMutability": "view"
        },
        {
            "type": "function",
            "name": "activityInfoExtArrs",
            "inputs": [
                {
                    "name": "",
                    "type": "uint256",
                    "internalType": "uint256"
                }
            ],
            "outputs": [
                {
                    "name": "activityId",
                    "type": "uint256",
                    "internalType": "uint256"
                },
                {
                    "name": "alreadyDropAmts",
                    "type": "uint256",
                    "internalType": "uint256"
                },
                {
                    "name": "alreadyDropNumber",
                    "type": "uint256",
                    "internalType": "uint256"
                },
                {
                    "name": "businessMinedAmt",
                    "type": "uint256",
                    "internalType": "uint256"
                },
                {
                    "name": "businessMinedWithdrawedAmt",
                    "type": "uint256",
                    "internalType": "uint256"
                },
                {
                    "name": "activityStatus",
                    "type": "uint8",
                    "internalType": "uint8"
                }
            ],
            "stateMutability": "view"
        },
        {
            "type": "function",
            "name": "allowance",
            "inputs": [
                {
                    "name": "owner",
                    "type": "address",
                    "internalType": "address"
                },
                {
                    "name": "spender",
                    "type": "address",
                    "internalType": "address"
                }
            ],
            "outputs": [
                {
                    "name": "",
                    "type": "uint256",
                    "internalType": "uint256"
                }
            ],
            "stateMutability": "view"
        },
        {
            "type": "function",
            "name": "approve",
            "inputs": [
                {
                    "name": "spender",
                    "type": "address",
                    "internalType": "address"
                },
                {
                    "name": "value",
                    "type": "uint256",
                    "internalType": "uint256"
                }
            ],
            "outputs": [
                {
                    "name": "",
                    "type": "bool",
                    "internalType": "bool"
                }
            ],
            "stateMutability": "nonpayable"
        },
        {
            "type": "function",
            "name": "balanceOf",
            "inputs": [
                {
                    "name": "account",
                    "type": "address",
                    "internalType": "address"
                }
            ],
            "outputs": [
                {
                    "name": "",
                    "type": "uint256",
                    "internalType": "uint256"
                }
            ],
            "stateMutability": "view"
        },
        {
            "type": "function",
            "name": "burn",
            "inputs": [
                {
                    "name": "value",
                    "type": "uint256",
                    "internalType": "uint256"
                }
            ],
            "outputs": [],
            "stateMutability": "nonpayable"
        },
        {
            "type": "function",
            "name": "burnFrom",
            "inputs": [
                {
                    "name": "account",
                    "type": "address",
                    "internalType": "address"
                },
                {
                    "name": "value",
                    "type": "uint256",
                    "internalType": "uint256"
                }
            ],
            "outputs": [],
            "stateMutability": "nonpayable"
        },
        {
            "type": "function",
            "name": "decimals",
            "inputs": [],
            "outputs": [
                {
                    "name": "",
                    "type": "uint8",
                    "internalType": "uint8"
                }
            ],
            "stateMutability": "view"
        },
        {
            "type": "function",
            "name": "deleteMinedFishcakePower",
            "inputs": [
                {
                    "name": "_miner",
                    "type": "address",
                    "internalType": "address"
                }
            ],
            "outputs": [],
            "stateMutability": "nonpayable"
        },
        {
            "type": "function",
            "name": "deleteMinerMineAmount",
            "inputs": [
                {
                    "name": "_miner",
                    "type": "address",
                    "internalType": "address"
                }
            ],
            "outputs": [],
            "stateMutability": "nonpayable"
        },
        {
            "type": "function",
            "name": "drop",
            "inputs": [
                {
                    "name": "_activityId",
                    "type": "uint256",
                    "internalType": "uint256"
                },
                {
                    "name": "_userAccount",
                    "type": "address",
                    "internalType": "address"
                },
                {
                    "name": "_dropAmt",
                    "type": "uint256",
                    "internalType": "uint256"
                }
            ],
            "outputs": [
                {
                    "name": "",
                    "type": "bool",
                    "internalType": "bool"
                }
            ],
            "stateMutability": "nonpayable"
        },
        {
            "type": "function",
            "name": "dropInfoArrs",
            "inputs": [
                {
                    "name": "",
                    "type": "uint256",
                    "internalType": "uint256"
                }
            ],
            "outputs": [
                {
                    "name": "activityId",
                    "type": "uint256",
                    "internalType": "uint256"
                },
                {
                    "name": "userAccount",
                    "type": "address",
                    "internalType": "address"
                },
                {
                    "name": "dropTime",
                    "type": "uint256",
                    "internalType": "uint256"
                },
                {
                    "name": "dropAmt",
                    "type": "uint256",
                    "internalType": "uint256"
                }
            ],
            "stateMutability": "view"
        },
        {
            "type": "function",
            "name": "getMinedFishcakePower",
            "inputs": [
                {
                    "name": "_miner",
                    "type": "address",
                    "internalType": "address"
                }
            ],
            "outputs": [
                {
                    "name": "",
                    "type": "uint256",
                    "internalType": "uint256"
                }
            ],
            "stateMutability": "view"
        },
        {
            "type": "function",
            "name": "getMinerMineAmount",
            "inputs": [
                {
                    "name": "_miner",
                    "type": "address",
                    "internalType": "address"
                }
            ],
            "outputs": [
                {
                    "name": "",
                    "type": "uint256",
                    "internalType": "uint256"
                }
            ],
            "stateMutability": "view"
        },
        {
            "type": "function",
            "name": "iNFTManager",
            "inputs": [],
            "outputs": [
                {
                    "name": "",
                    "type": "address",
                    "internalType": "contract INftManager"
                }
            ],
            "stateMutability": "view"
        },
        {
            "type": "function",
            "name": "initialize",
            "inputs": [
                {
                    "name": "_initialOwner",
                    "type": "address",
                    "internalType": "address"
                },
                {
                    "name": "_fccAddress",
                    "type": "address",
                    "internalType": "address"
                },
                {
                    "name": "_usdtTokenAddr",
                    "type": "address",
                    "internalType": "address"
                },
                {
                    "name": "_NFTManagerAddr",
                    "type": "address",
                    "internalType": "address"
                }
            ],
            "outputs": [],
            "stateMutability": "nonpayable"
        },
        {
            "type": "function",
            "name": "isMint",
            "inputs": [],
            "outputs": [
                {
                    "name": "",
                    "type": "bool",
                    "internalType": "bool"
                }
            ],
            "stateMutability": "view"
        },
        {
            "type": "function",
            "name": "maxDeadLine",
            "inputs": [],
            "outputs": [
                {
                    "name": "",
                    "type": "uint256",
                    "internalType": "uint256"
                }
            ],
            "stateMutability": "view"
        },
        {
            "type": "function",
            "name": "merchantOnceMaxMineAmt",
            "inputs": [],
            "outputs": [
                {
                    "name": "",
                    "type": "uint256",
                    "internalType": "uint256"
                }
            ],
            "stateMutability": "view"
        },
        {
            "type": "function",
            "name": "minePercent",
            "inputs": [],
            "outputs": [
                {
                    "name": "",
                    "type": "uint8",
                    "internalType": "uint8"
                }
            ],
            "stateMutability": "view"
        },
        {
            "type": "function",
            "name": "minedAmt",
            "inputs": [],
            "outputs": [
                {
                    "name": "",
                    "type": "uint256",
                    "internalType": "uint256"
                }
            ],
            "stateMutability": "view"
        },
        {
            "type": "function",
            "name": "minedFishcakePower",
            "inputs": [
                {
                    "name": "",
                    "type": "address",
                    "internalType": "address"
                }
            ],
            "outputs": [
                {
                    "name": "",
                    "type": "uint256",
                    "internalType": "uint256"
                }
            ],
            "stateMutability": "view"
        },
        {
            "type": "function",
            "name": "minerMineAmount",
            "inputs": [
                {
                    "name": "",
                    "type": "address",
                    "internalType": "address"
                }
            ],
            "outputs": [
                {
                    "name": "",
                    "type": "uint256",
                    "internalType": "uint256"
                }
            ],
            "stateMutability": "view"
        },
        {
            "type": "function",
            "name": "name",
            "inputs": [],
            "outputs": [
                {
                    "name": "",
                    "type": "string",
                    "internalType": "string"
                }
            ],
            "stateMutability": "view"
        },
        {
            "type": "function",
            "name": "oneDay",
            "inputs": [],
            "outputs": [
                {
                    "name": "",
                    "type": "uint256",
                    "internalType": "uint256"
                }
            ],
            "stateMutability": "view"
        },
        {
            "type": "function",
            "name": "owner",
            "inputs": [],
            "outputs": [
                {
                    "name": "",
                    "type": "address",
                    "internalType": "address"
                }
            ],
            "stateMutability": "view"
        },
        {
            "type": "function",
            "name": "renounceOwnership",
            "inputs": [],
            "outputs": [],
            "stateMutability": "nonpayable"
        },
        {
            "type": "function",
            "name": "symbol",
            "inputs": [],
            "outputs": [
                {
                    "name": "",
                    "type": "string",
                    "internalType": "string"
                }
            ],
            "stateMutability": "view"
        },
        {
            "type": "function",
            "name": "totalMineAmt",
            "inputs": [],
            "outputs": [
                {
                    "name": "",
                    "type": "uint256",
                    "internalType": "uint256"
                }
            ],
            "stateMutability": "view"
        },
        {
            "type": "function",
            "name": "totalSupply",
            "inputs": [],
            "outputs": [
                {
                    "name": "",
                    "type": "uint256",
                    "internalType": "uint256"
                }
            ],
            "stateMutability": "view"
        },
        {
            "type": "function",
            "name": "transfer",
            "inputs": [
                {
                    "name": "to",
                    "type": "address",
                    "internalType": "address"
                },
                {
                    "name": "value",
                    "type": "uint256",
                    "internalType": "uint256"
                }
            ],
            "outputs": [
                {
                    "name": "",
                    "type": "bool",
                    "internalType": "bool"
                }
            ],
            "stateMutability": "nonpayable"
        },
        {
            "type": "function",
            "name": "transferFrom",
            "inputs": [
                {
                    "name": "from",
                    "type": "address",
                    "internalType": "address"
                },
                {
                    "name": "to",
                    "type": "address",
                    "internalType": "address"
                },
                {
                    "name": "value",
                    "type": "uint256",
                    "internalType": "uint256"
                }
            ],
            "outputs": [
                {
                    "name": "",
                    "type": "bool",
                    "internalType": "bool"
                }
            ],
            "stateMutability": "nonpayable"
        },
        {
            "type": "function",
            "name": "transferOwnership",
            "inputs": [
                {
                    "name": "newOwner",
                    "type": "address",
                    "internalType": "address"
                }
            ],
            "outputs": [],
            "stateMutability": "nonpayable"
        },
        {
            "type": "function",
            "name": "updateMinedFishcakePower",
            "inputs": [
                {
                    "name": "_miner",
                    "type": "address",
                    "internalType": "address"
                },
                {
                    "name": "_power",
                    "type": "uint256",
                    "internalType": "uint256"
                }
            ],
            "outputs": [],
            "stateMutability": "nonpayable"
        },
        {
            "type": "function",
            "name": "userOnceMaxMineAmt",
            "inputs": [],
            "outputs": [
                {
                    "name": "",
                    "type": "uint256",
                    "internalType": "uint256"
                }
            ],
            "stateMutability": "view"
        },
        {
            "type": "event",
            "name": "ActivityAdd",
            "inputs": [
                {
                    "name": "who",
                    "type": "address",
                    "indexed": true,
                    "internalType": "address"
                },
                {
                    "name": "_activityId",
                    "type": "uint256",
                    "indexed": true,
                    "internalType": "uint256"
                },
                {
                    "name": "_totalDropAmts",
                    "type": "uint256",
                    "indexed": false,
                    "internalType": "uint256"
                },
                {
                    "name": "_businessName",
                    "type": "string",
                    "indexed": false,
                    "internalType": "string"
                },
                {
                    "name": "_activityContent",
                    "type": "string",
                    "indexed": false,
                    "internalType": "string"
                },
                {
                    "name": "_latitudeLongitude",
                    "type": "string",
                    "indexed": false,
                    "internalType": "string"
                },
                {
                    "name": "_activityDeadLine",
                    "type": "uint256",
                    "indexed": false,
                    "internalType": "uint256"
                },
                {
                    "name": "_dropType",
                    "type": "uint8",
                    "indexed": false,
                    "internalType": "uint8"
                },
                {
                    "name": "_dropNumber",
                    "type": "uint256",
                    "indexed": false,
                    "internalType": "uint256"
                },
                {
                    "name": "_minDropAmt",
                    "type": "uint256",
                    "indexed": false,
                    "internalType": "uint256"
                },
                {
                    "name": "_maxDropAmt",
                    "type": "uint256",
                    "indexed": false,
                    "internalType": "uint256"
                },
                {
                    "name": "_tokenContractAddr",
                    "type": "address",
                    "indexed": false,
                    "internalType": "address"
                }
            ],
            "anonymous": false
        },
        {
            "type": "event",
            "name": "ActivityFinish",
            "inputs": [
                {
                    "name": "_activityId",
                    "type": "uint256",
                    "indexed": true,
                    "internalType": "uint256"
                },
                {
                    "name": "_tokenContractAddr",
                    "type": "address",
                    "indexed": false,
                    "internalType": "address"
                },
                {
                    "name": "_returnAmount",
                    "type": "uint256",
                    "indexed": false,
                    "internalType": "uint256"
                },
                {
                    "name": "_minedAmount",
                    "type": "uint256",
                    "indexed": false,
                    "internalType": "uint256"
                }
            ],
            "anonymous": false
        },
        {
            "type": "event",
            "name": "AddMineAmt",
            "inputs": [
                {
                    "name": "who",
                    "type": "address",
                    "indexed": true,
                    "internalType": "address"
                },
                {
                    "name": "_addMineAmt",
                    "type": "uint256",
                    "indexed": false,
                    "internalType": "uint256"
                }
            ],
            "anonymous": false
        },
        {
            "type": "event",
            "name": "Approval",
            "inputs": [
                {
                    "name": "owner",
                    "type": "address",
                    "indexed": true,
                    "internalType": "address"
                },
                {
                    "name": "spender",
                    "type": "address",
                    "indexed": true,
                    "internalType": "address"
                },
                {
                    "name": "value",
                    "type": "uint256",
                    "indexed": false,
                    "internalType": "uint256"
                }
            ],
            "anonymous": false
        },
        {
            "type": "event",
            "name": "Drop",
            "inputs": [
                {
                    "name": "who",
                    "type": "address",
                    "indexed": true,
                    "internalType": "address"
                },
                {
                    "name": "_activityId",
                    "type": "uint256",
                    "indexed": true,
                    "internalType": "uint256"
                },
                {
                    "name": "_dropAmt",
                    "type": "uint256",
                    "indexed": false,
                    "internalType": "uint256"
                }
            ],
            "anonymous": false
        },
        {
            "type": "event",
            "name": "Initialized",
            "inputs": [
                {
                    "name": "version",
                    "type": "uint64",
                    "indexed": false,
                    "internalType": "uint64"
                }
            ],
            "anonymous": false
        },
        {
            "type": "event",
            "name": "OwnershipTransferred",
            "inputs": [
                {
                    "name": "previousOwner",
                    "type": "address",
                    "indexed": true,
                    "internalType": "address"
                },
                {
                    "name": "newOwner",
                    "type": "address",
                    "indexed": true,
                    "internalType": "address"
                }
            ],
            "anonymous": false
        },
        {
            "type": "event",
            "name": "SetMinePercent",
            "inputs": [
                {
                    "name": "minePercent",
                    "type": "uint8",
                    "indexed": false,
                    "internalType": "uint8"
                }
            ],
            "anonymous": false
        },
        {
            "type": "event",
            "name": "SetValidTime",
            "inputs": [
                {
                    "name": "who",
                    "type": "address",
                    "indexed": true,
                    "internalType": "address"
                },
                {
                    "name": "_time",
                    "type": "uint256",
                    "indexed": false,
                    "internalType": "uint256"
                }
            ],
            "anonymous": false
        },
        {
            "type": "event",
            "name": "Transfer",
            "inputs": [
                {
                    "name": "from",
                    "type": "address",
                    "indexed": true,
                    "internalType": "address"
                },
                {
                    "name": "to",
                    "type": "address",
                    "indexed": true,
                    "internalType": "address"
                },
                {
                    "name": "value",
                    "type": "uint256",
                    "indexed": false,
                    "internalType": "uint256"
                }
            ],
            "anonymous": false
        },
        {
            "type": "error",
            "name": "ERC20InsufficientAllowance",
            "inputs": [
                {
                    "name": "spender",
                    "type": "address",
                    "internalType": "address"
                },
                {
                    "name": "allowance",
                    "type": "uint256",
                    "internalType": "uint256"
                },
                {
                    "name": "needed",
                    "type": "uint256",
                    "internalType": "uint256"
                }
            ]
        },
        {
            "type": "error",
            "name": "ERC20InsufficientBalance",
            "inputs": [
                {
                    "name": "sender",
                    "type": "address",
                    "internalType": "address"
                },
                {
                    "name": "balance",
                    "type": "uint256",
                    "internalType": "uint256"
                },
                {
                    "name": "needed",
                    "type": "uint256",
                    "internalType": "uint256"
                }
            ]
        },
        {
            "type": "error",
            "name": "ERC20InvalidApprover",
            "inputs": [
                {
                    "name": "approver",
                    "type": "address",
                    "internalType": "address"
                }
            ]
        },
        {
            "type": "error",
            "name": "ERC20InvalidReceiver",
            "inputs": [
                {
                    "name": "receiver",
                    "type": "address",
                    "internalType": "address"
                }
            ]
        },
        {
            "type": "error",
            "name": "ERC20InvalidSender",
            "inputs": [
                {
                    "name": "sender",
                    "type": "address",
                    "internalType": "address"
                }
            ]
        },
        {
            "type": "error",
            "name": "ERC20InvalidSpender",
            "inputs": [
                {
                    "name": "spender",
                    "type": "address",
                    "internalType": "address"
                }
            ]
        },
        {
            "type": "error",
            "name": "InvalidInitialization",
            "inputs": []
        },
        {
            "type": "error",
            "name": "NotInitializing",
            "inputs": []
        },
        {
            "type": "error",
            "name": "OwnableInvalidOwner",
            "inputs": [
                {
                    "name": "owner",
                    "type": "address",
                    "internalType": "address"
                }
            ]
        },
        {
            "type": "error",
            "name": "OwnableUnauthorizedAccount",
            "inputs": [
                {
                    "name": "account",
                    "type": "address",
                    "internalType": "address"
                }
            ]
        },
        {
            "type": "error",
            "name": "ReentrancyGuardReentrantCall",
            "inputs": []
        }
    ],
    "bytecode": {
        "object": "0x6080806040523460d0577ff0c57e16840df040f15088dc2f81fe391c3923bec73e23a9662efc9c229c6a005460ff8160401c1660c1576002600160401b03196001600160401b03821601605c575b60405161321e90816100d58239f35b6001600160401b0319166001600160401b039081177ff0c57e16840df040f15088dc2f81fe391c3923bec73e23a9662efc9c229c6a005581527fc7f505b2f371ae2175ee4913f4499e1f2633a7b5936321eed1cdaeb6115181d290602090a15f80604d565b63f92ee8a960e01b5f5260045ffd5b5f80fdfe60806040526004361015610011575f80fd5b5f3560e01c806306fdde03146129b9578063095ea7b31461291457806313f34fed146128dc57806318160ddd146128a057806323b872dd14612868578063265d3051146117bc5780632a916c201461280b578063313ce567146127f057806333b3f944146127cb57806342966c68146127ae57806343b22efc14611cc85780634ba1332f14611c9c5780634bd9351b14611c7f5780634c6681e1146108ce5780634d43959d14611c125780634dc143d514611bf557806370a0823114611bb1578063715018a614611b4a57806379cc679014611b1a5780637f17bb6814611afc57806388e40a5a14611adb5780638da5cb5b14611aa757806395d89b41146119ad57806397088e4914611966578063a07528251461185f578063a59d02cd14611814578063a6d93915146117f4578063a731299b146117bc578063a9059cbb1461178b578063acae5d2514611742578063b6d18c8c1461171a578063bbe68511146116f2578063c8c1d78d146111a2578063cbd596c414610924578063cdd544e314610906578063d4621430146108ce578063dd62ed3e14610887578063f2fde38b1461085c578063f74b470914610815578063f7859c28146107f9578063f8c8765e146102235763fefee0e1146101e7575f80fd5b3461021f57602036600319011261021f5760043560045481101561021f57610210602091612ccf565b90549060031b1c604051908152f35b5f80fd5b3461021f57608036600319011261021f5761023c612a9a565b610244612ab0565b906044356001600160a01b038116919082900361021f576064356001600160a01b038116939084900361021f575f805160206131c9833981519152549260ff8460401c1615936001600160401b038116801590816107f1575b60011490816107e7575b1590816107de575b506107cf5767ffffffffffffffff1981166001175f805160206131c983398151915255846107a3575b506001600160a01b0383161561072c576102f06130dd565b6102f86130dd565b61030183612d95565b60409485516103108782612b2e565b60088152674669736843616b6560c01b60208201528651906103328883612b2e565b600382526246434360e81b602083015261034a6130dd565b6103526130dd565b8051906001600160401b03821161061557819061037c5f8051602061310983398151915254612bf7565b601f81116106b2575b50602090601f8311600114610634575f92610629575b50508160011b915f199060031b1c1916175f80516020613109833981519152555b8051906001600160401b038211610615576103e45f8051602061314983398151915254612bf7565b601f81116105a6575b50602090601f831160011461051d57928260329361010096936104b69998965f92610512575b50508160011b915f199060031b1c1916175f80516020613149833981519152555b61043c6130dd565b6104446130dd565b60015f805160206131a98339815191525561045d6130dd565b600154916001600160601b0360a01b60025416176002556001600160601b0360a01b60035416176003555f805561ff00199262010000600160b01b039060101b169061ff01600160b01b03191617171617600155613089565b6104bc57005b60207fc7f505b2f371ae2175ee4913f4499e1f2633a7b5936321eed1cdaeb6115181d29168ff0000000000000000195f805160206131c983398151915254165f805160206131c9833981519152555160018152a1005b015190508b80610413565b90601f198316915f805160206131498339815191525f52815f20925f5b81811061058e57509361010096936104b6999896936001938360329810610576575b505050811b015f8051602061314983398151915255610434565b01515f1960f88460031b161c191690558b808061055c565b9293602060018192878601518155019501930161053a565b5f805160206131498339815191525f527f46a2803e59a4de4e7a4c574b1243f25977ac4c77d5a1a4a609b5394cebb4a2aa601f840160051c8101916020851061060b575b601f0160051c01905b81811061060057506103ed565b5f81556001016105f3565b90915081906105ea565b634e487b7160e01b5f52604160045260245ffd5b01519050898061039b565b5f805160206131098339815191525f9081528281209350601f198516905b81811061069a5750908460019594939210610682575b505050811b015f80516020613109833981519152556103bc565b01515f1960f88460031b161c19169055898080610668565b92936020600181928786015181550195019301610652565b5f805160206131098339815191525f529091507f2ae08a8e29253f69ac5d979a101956ab8f8d9d7ded63fa7a83b16fc47648eab0601f840160051c81019160208510610722575b90601f859493920160051c01905b8181106107145750610385565b5f8155849350600101610707565b90915081906106f9565b60a460405162461bcd60e51b815260206004820152604460248201527f4669736863616b654576656e744d616e6167657220696e697469616c697a653a60448201527f205f696e697469616c4f776e65722063616e2774206265207a65726f206164646064820152637265737360e01b6084820152fd5b68ffffffffffffffffff191668010000000000000001175f805160206131c983398151915255856102d8565b63f92ee8a960e01b5f5260045ffd5b905015876102af565b303b1591506102a7565b86915061029d565b3461021f575f36600319011261021f5760205f54604051908152f35b3461021f57602036600319011261021f5761082e612a9a565b61084360018060a01b03600354163314612d1f565b6001600160a01b03165f908152600b6020526040812055005b3461021f57602036600319011261021f57610885610878612a9a565b610880613056565b612d95565b005b3461021f57604036600319011261021f576108a0612a9a565b6108b16108ab612ab0565b91612ac6565b9060018060a01b03165f52602052602060405f2054604051908152f35b3461021f57602036600319011261021f576001600160a01b036108ef612a9a565b165f52600b602052602060405f2054604051908152f35b3461021f575f36600319011261021f576020604051630e4e1c008152f35b3461021f57602036600319011261021f5760043561094061301e565b80151580611196575b1561112b575f198101818111610d8a5761096281612bdb565b5061096c82612ba4565b5060018201546001600160a01b031633036110ca5760058101600160ff8254160361105f57805460ff19166002179055600a82015460088301546109af91612cf4565b6109bf6001830191825490612d88565b915f9183610ff8575b6001549060ff8260081c1680610fb0575b80610ec9575b610a7b575b50505060045492600160401b841015610615577f32b4fb78ab9b6fcf0181a2a3906e5473b095a3e71595ccc87bd039bbacc6acaf94610a2b85600160609701600455612ccf565b819291549060031b91821b915f19901b1916179055600b60018060a01b03910154169160405192835260208301526040820152a260015f805160206131a983398151915255602060405160018152f35b5f5490651b48eb57e000821015610e5857625b8d809263039387009060ff60325b16908160ff821603610e49575b50506001549360ff85169485151580610e2b575b610acb575b505050506109e4565b60035460405163072f2a0f60e31b81523360048201526001600160a01b0390911696906020816024818b5afa908115610ca5575f91610df6575b5060249260209291421015610de85750965b60405163072f2a0f60e31b815233600482015292839182905afa908115610ca5575f91610db6575b50421015610dae5750925b600285015490601482029180830460141481151715610d8a576301312d000291808304620f42401490151715610d8a5760ff610b9792606494548181115f14610da65750915b1690612cf4565b0491808311610d9e575b5080660110d9316ec00011610bba575b80808080610ac2565b90919250610bc88282612ce7565b660110d9316ec0001115610cb05750600381920155610be8815f54612ce7565b5f90815560015460405163a9059cbb60e01b81523360048201526024810184905291602091839160449183919060101c6001600160a01b03165af18015610ca557610c78575b50335f52600a60205260405f20610c46828254612ce7565b9055335f52600b60205260405f20610c5f828254612ce7565b90555b335f5260086020524260405f2055858080610bb1565b610c999060203d602011610c9e575b610c918183612b2e565b810190612d07565b610c2e565b503d610c87565b6040513d5f823e3d90fd5b9050660110d9316ec0000390660110d9316ec0008211610d8a576003610cdc9101918083555f54612ce7565b5f908155600154825460405163a9059cbb60e01b8152336004820152602481019190915291602091839160449183919060101c6001600160a01b03165af18015610ca557610d6d575b508054335f52600a602052610d3f60405f20918254612ce7565b90558054335f52600b602052610d5a60405f20918254612ce7565b90555461ff001960015416600155610c62565b610d859060203d602011610c9e57610c918183612b2e565b610d25565b634e487b7160e01b5f52601160045260245ffd5b915088610ba1565b905091610b90565b905092610b4a565b90506020813d602011610de0575b81610dd160209383612b2e565b8101031261021f57518c610b3f565b3d9150610dc4565b607f915060011c1696610b17565b9190506020823d602011610e23575b81610e1260209383612b2e565b8101031261021f5790516024610b05565b3d9150610e05565b50600b8a0154601082901c6001600160a01b03908116911614610abd565b60ff1916176001558a80610aa9565b655af3107a4000821015610e7a57622dc6c0926301c9c3809060ff6028610a9c565b65b5e620f48000821015610e9b57621e84809262e4e1c09060ff6014610a9c565b660110d9316ec000821015610ebd57620f424092627a12009060ff600a610a9c565b5f92839060ff82610a9c565b5060035460405163072f2a0f60e31b81523360048201526001600160a01b0390911690602081602481855afa908115610ca5575f91610f7e575b504210908115610f14575b506109df565b604051638dce8b1360e01b81523360048201529150602090829060249082905afa908115610ca5575f91610f4c575b50421089610f0e565b90506020813d602011610f76575b81610f6760209383612b2e565b8101031261021f575189610f43565b3d9150610f5a565b90506020813d602011610fa8575b81610f9960209383612b2e565b8101031261021f57518a610f03565b3d9150610f8c565b50335f52600860205260405f2054155f14610fcc5760016109d9565b335f52600860205262015180610fe660405f205442612d88565b10610ff25760016109d9565b5f6109d9565b600b85015460405163a9059cbb60e01b81523360048201526024810186905290602090829060449082905f906001600160a01b03165af18015610ca557611040575b506109c8565b6110589060203d602011610c9e57610c918183612b2e565b508761103a565b60405162461bcd60e51b815260206004820152603b60248201527f4669736863616b654576656e744d616e6167657220616374697669747946696e60448201527f6973683a20416374697669747920537461747573204572726f722e00000000006064820152608490fd5b60405162461bcd60e51b815260206004820152603360248201527f4669736863616b654576656e744d616e6167657220616374697669747946696e60448201527234b9b41d102737ba102a34329027bbb732b91760691b6064820152608490fd5b60405162461bcd60e51b815260206004820152603760248201527f4669736863616b654576656e744d616e6167657220616374697669747946696e60448201527f6973683a204163746976697479204964204572726f722e0000000000000000006064820152608490fd5b50600554811115610949565b3461021f57606036600319011261021f576004356111be612ab0565b6111c661301e565b604435825f52600960205260405f2060018060a01b0383165f5260205260ff60405f205416611698575f19830190838211610d8a5761120e61120783612bdb565b5092612ba4565b50600160ff600583015416036116395760018301546001600160a01b031633036115e2576006830154421161158457600783015460ff1660020361157857600a8301548211158061156a575b1561150f575b600883015492600282019384548111156114a457611284600191600a840154612cf4565b920191611292835485612ce7565b1161143957600b015460405163a9059cbb60e01b81526001600160a01b038681166004830152602482018590529091602091839160449183915f91165af18015610ca55761141c575b50845f52600960205260405f2060018060a01b0385165f5260205260405f20600160ff1982541617905560405193608085018581106001600160401b0382111761061557604052858552602085019060018060a01b031694858252604081014281526060820190858252600754600160401b811015610615578060016113649201600755612afe565b949094611409579251845591516001840180546001600160a01b0319166001600160a01b039290921691909117905590516002830155516003919091015580546113af908390612ce7565b90558154905f198214610d8a577fd034d7fdd827eb4f41b668e02da1342cb8eced53d850fef72e1b2cd2c8387bac926001602093019055604051908152a360015f805160206131a983398151915255602060405160018152f35b634e487b7160e01b5f525f60045260245ffd5b6114349060203d602011610c9e57610c918183612b2e565b6112db565b60405162461bcd60e51b815260206004820152603f60248201527f4669736863616b654576656e744d616e616765722064726f703a20546865207260448201527f657761726420616d6f756e7420686173206265656e2065786365656465642e006064820152608490fd5b60405162461bcd60e51b815260206004820152603a60248201527f4669736863616b654576656e744d616e616765722064726f703a20457863656560448201527f64656420746865206e756d626572206f6620726577617264732e0000000000006064820152608490fd5b60405162461bcd60e51b815260206004820152602d60248201527f4669736863616b654576656e744d616e616765722064726f703a2044726f702060448201526c20b6b7bab73a1022b93937b91760991b6064820152608490fd5b50600983015482101561125a565b600a8301549150611260565b60405162461bcd60e51b815260206004820152603060248201527f4669736863616b654576656e744d616e616765722064726f703a20416374697660448201526f34ba3c902430b99022bc3834b932b21760811b6064820152608490fd5b60405162461bcd60e51b815260206004820152602960248201527f4669736863616b654576656e744d616e616765722064726f703a204e6f74205460448201526834329027bbb732b91760b91b6064820152608490fd5b60405162461bcd60e51b815260206004820152603160248201527f4669736863616b654576656e744d616e616765722064726f703a20416374697660448201527034ba3c9029ba30ba3ab99022b93937b91760791b6064820152608490fd5b60405162461bcd60e51b815260206004820152602c60248201527f4669736863616b654576656e744d616e616765722064726f703a20557365722060448201526b2430b990223937b83832b21760a11b6064820152608490fd5b3461021f575f36600319011261021f576003546040516001600160a01b039091168152602090f35b3461021f575f36600319011261021f576002546040516001600160a01b039091168152602090f35b3461021f57604036600319011261021f5761175b612ab0565b6004355f52600960205260405f209060018060a01b03165f52602052602060ff60405f2054166040519015158152f35b3461021f57604036600319011261021f576117b16117a7612a9a565b6024359033612e5e565b602060405160018152f35b3461021f57602036600319011261021f576001600160a01b036117dd612a9a565b165f52600a602052602060405f2054604051908152f35b3461021f575f36600319011261021f57602060ff60015416604051908152f35b3461021f57604036600319011261021f5761182d612a9a565b61184260018060a01b03600354163314612d1f565b6001600160a01b03165f908152600b602052604090206024359055005b3461021f57602036600319011261021f5760043560055481101561021f5761188690612bdb565b50805460018201546001600160a01b0316916118a460028201612c2f565b6118b060038301612c2f565b916118bd60048201612c2f565b926005820154936006830154600784015460ff1690600885015492600986015494600a87015496600160a01b6001900390600b015416976040519b8c9b8c5260208c015260408b0161018090526101808b0161191891612a76565b8a810360608c015261192991612a76565b89810360808b015261193a91612a76565b9660a089015260c088015260e08701526101008601526101208501526101408401526101608301520390f35b3461021f57602036600319011261021f5761197f612a9a565b61199460018060a01b03600354163314612d1f565b6001600160a01b03165f908152600a6020526040812055005b3461021f575f36600319011261021f576040515f5f80516020613149833981519152546119d981612bf7565b8084529060018116908115611a835750600114611a19575b611a1583611a0181850382612b2e565b604051918291602083526020830190612a76565b0390f35b5f805160206131498339815191525f9081527f46a2803e59a4de4e7a4c574b1243f25977ac4c77d5a1a4a609b5394cebb4a2aa939250905b808210611a6957509091508101602001611a016119f1565b919260018160209254838588010152019101909291611a51565b60ff191660208086019190915291151560051b84019091019150611a0190506119f1565b3461021f575f36600319011261021f575f80516020613169833981519152546040516001600160a01b039091168152602090f35b3461021f575f36600319011261021f576020604051660110d9316ec0008152f35b3461021f575f36600319011261021f57602060405163016e36008152f35b3461021f57604036600319011261021f57610885611b36612a9a565b60243590611b45823383612dc0565b612f42565b3461021f575f36600319011261021f57611b62613056565b5f8051602061316983398151915280546001600160a01b031981169091555f906001600160a01b03167f8be0079c531659141344cd1fd0a4f28419497f9722a3daafe3b4186f6b6457e08280a3005b3461021f57602036600319011261021f576001600160a01b03611bd2612a9a565b165f525f80516020613129833981519152602052602060405f2054604051908152f35b3461021f575f36600319011261021f57602060405162278d008152f35b3461021f57602036600319011261021f5760043560065481101561021f57611c3b60c091612ba4565b50805490600181015490600281015460038201549060ff600560048501549401541693604051958652602086015260408501526060840152608083015260a0820152f35b3461021f575f36600319011261021f576020604051620151808152f35b3461021f575f36600319011261021f5760015460405160109190911c6001600160a01b03168152602090f35b3461021f5761014036600319011261021f576004356001600160401b03811161021f57611cf9903690600401612b4f565b6024356001600160401b03811161021f57611d18903690600401612b4f565b6044356001600160401b03811161021f57611d37903690600401612b4f565b9060a43560ff8116810361021f57610124359360e43593906001600160a01b038616860361021f57611d6761301e565b84600260ff85161480156127a1575b156127545761010435106126fc57608435156126ad57606435421080612696575b1561263e57611dab60c43561010435612cf4565b608435036125d357620f42406084351061256357606560c435108015612550575b156124d2576002546001600160a01b0387811691161480156124b7575b1561245f57600160ff841614612457575b6040516323b872dd60e01b815233600482015230602482015260843560448201526020816064815f6001600160a01b038c165af18015610ca55761243a575b5060055495600187018711610d8a576040519561018087018781106001600160401b03821117610615576040526001880187523360208801528260408801528560608801528360808801524260a088015260643560c088015260ff851660e088015260c435610100880152806101208801526101043561014088015260018060a01b0382166101608801526040519760c089018981106001600160401b03821117610615576040526001810189525f60208a01525f60408a01525f60608a01525f60808a0152600160a08a0152600160401b81101561061557806001611f229201600555612bdb565b611409578751815560208801516001820180546001600160a01b0319166001600160a01b03929092169190911790556040880151805160028301916001600160401b038211610615578190611f778454612bf7565b601f81116123ea575b50602090601f8311600114612387575f9261237c575b50508160011b915f199060031b1c19161790555b6003810160608901518051906001600160401b038211610615578190611fd08454612bf7565b601f811161232c575b50602090601f83116001146122c9575f926122be575b50508160011b915f199060031b1c19161790555b6004810160808901518051906001600160401b0382116106155781906120298454612bf7565b601f811161226e575b50602090601f831160011461220b575f92612200575b50508160011b915f199060031b1c19161790555b60a0880151600582015560c0880151600682015560ff60e08901511660ff60078301911660ff1982541617905561010088015160088201556101208801516009820155610140880151600a820155600b60018060a01b036101608a01511691019060018060a01b03166001600160601b0360a01b825416179055600654600160401b811015610615578060016120f59201600655612ba4565b611409576121a47fcc07277f6a9ae6659df5a850b317ba47d741264062fc7654d69b9fe11f4fabef9560ff928360058160a060409f80518655602081015160018701556040810151600287015560608101516003870155608081015160048701550151169201911684198254161790556121968a51996121898d51986084358a5261014060208b01526101408a0190612a76565b908882038e8a0152612a76565b908682036060880152612a76565b6064356080860152951660a084015260c43560c084015260e0830152610104356101008301526001600160a01b0316610120820152339281900390a35160015f805160206131a983398151915255815190600182526020820152f35b015190508c80612048565b5f8581528281209350601f198516905b818110612256575090846001959493921061223e575b505050811b01905561205c565b01515f1960f88460031b161c191690558c8080612231565b9293602060018192878601518155019501930161221b565b909150835f5260205f20601f840160051c810191602085106122b4575b90601f859493920160051c01905b8181106122a65750612032565b5f8155849350600101612299565b909150819061228b565b015190508c80611fef565b5f8581528281209350601f198516905b81811061231457509084600195949392106122fc575b505050811b019055612003565b01515f1960f88460031b161c191690558c80806122ef565b929360206001819287860151815501950193016122d9565b909150835f5260205f20601f840160051c81019160208510612372575b90601f859493920160051c01905b8181106123645750611fd9565b5f8155849350600101612357565b9091508190612349565b015190508c80611f96565b5f8581528281209350601f198516905b8181106123d257509084600195949392106123ba575b505050811b019055611faa565b01515f1960f88460031b161c191690558c80806123ad565b92936020600181928786015181550195019301612397565b909150835f5260205f20601f840160051c81019160208510612430575b90601f859493920160051c01905b8181106124225750611f80565b5f8155849350600101612415565b9091508190612407565b6124529060203d602011610c9e57610c918183612b2e565b611e39565b5f9450611dfa565b60405162461bcd60e51b815260206004820152603e60248201525f8051602061318983398151915260448201527f3a20546f6b656e20636f6e74726163742061646472657373206572726f7200006064820152608490fd5b5060015460101c6001600160a01b0390811690871614611de9565b60405162461bcd60e51b815260206004820152605760248201525f8051602061318983398151915260448201527f3a2044726f70204e756d62657220546f6f204c61726765202c4c696d6974203160648201527f3030206f7220546f74616c44726f70416d74732f31302e000000000000000000608482015260a490fd5b50629896806084350460c4351115611dcc565b60405162461bcd60e51b815260206004820152604f60248201525f8051602061318983398151915260448201527f3a20546f74616c2044726f7020416d6f756e747320546f6f204c6974746c652060648201526e161026b4b734b6bab69037b310189760891b608482015260a490fd5b60405162461bcd60e51b815260206004820152604a60248201525f8051602061318983398151915260448201527f3a2044726f70204e756d626572204e6f74204d65657420546f74616c2044726f606482015269381020b6b7bab73a399760b11b608482015260a490fd5b60405162461bcd60e51b815260206004820152603a60248201525f8051602061318983398151915260448201527f3a20416374697669747920446561644c696e65204572726f722e0000000000006064820152608490fd5b5062278d004201804211610d8a5760643510611d97565b60405162461bcd60e51b815260206004820152603460248201525f805160206131898339815191526044820152731d10223937b81020b6b7bab73a1022b93937b91760611b6064820152608490fd5b60405162461bcd60e51b815260206004820152603960248201525f8051602061318983398151915260448201527f3a204d617844726f70416d74205365747570204572726f722e000000000000006064820152608490fd5b60405162461bcd60e51b815260206004820152603260248201525f805160206131898339815191526044820152711d10223937b8102a3cb8329022b93937b91760711b6064820152608490fd5b50600160ff851614611d76565b3461021f57602036600319011261021f5761088560043533612f42565b3461021f575f36600319011261021f57602060ff60015460081c166040519015158152f35b3461021f575f36600319011261021f57602060405160128152f35b3461021f57602036600319011261021f5760043560075481101561021f57612834608091612afe565b5080549060018060a01b03600182015416906003600282015491015491604051938452602084015260408301526060820152f35b3461021f57606036600319011261021f576117b1612884612a9a565b61288c612ab0565b6044359161289b833383612dc0565b612e5e565b3461021f575f36600319011261021f5760207f52c63247e1f47db19d5ce0460030c497f067ca4cebf71ba98eeadabe20bace0254604051908152f35b3461021f57602036600319011261021f576001600160a01b036128fd612a9a565b165f526008602052602060405f2054604051908152f35b3461021f57604036600319011261021f5761292d612a9a565b6024359033156129a6576001600160a01b03169081156129935761295033612ac6565b825f526020528060405f20556040519081527f8c5be1e5ebec7d5bd14f71427d1e84f3dd0314c0f7b2291e5b200ac8c7c3b92560203392a3602060405160018152f35b634a1406b160e11b5f525f60045260245ffd5b63e602df0560e01b5f525f60045260245ffd5b3461021f575f36600319011261021f576040515f5f80516020613109833981519152546129e581612bf7565b8084529060018116908115611a835750600114612a0c57611a1583611a0181850382612b2e565b5f805160206131098339815191525f9081527f2ae08a8e29253f69ac5d979a101956ab8f8d9d7ded63fa7a83b16fc47648eab0939250905b808210612a5c57509091508101602001611a016119f1565b919260018160209254838588010152019101909291612a44565b805180835260209291819084018484015e5f828201840152601f01601f1916010190565b600435906001600160a01b038216820361021f57565b602435906001600160a01b038216820361021f57565b6001600160a01b03165f9081527f52c63247e1f47db19d5ce0460030c497f067ca4cebf71ba98eeadabe20bace016020526040902090565b600754811015612b1a5760075f5260205f209060021b01905f90565b634e487b7160e01b5f52603260045260245ffd5b90601f801991011681019081106001600160401b0382111761061557604052565b81601f8201121561021f578035906001600160401b0382116106155760405192612b83601f8401601f191660200185612b2e565b8284526020838301011161021f57815f926020809301838601378301015290565b600654811015612b1a5760065f81815291027ff652222313e28459528d920b65115c16c04f3efc82aaedc97be59f3f377c0d3f0191565b600554811015612b1a5760055f52600c60205f20910201905f90565b90600182811c92168015612c25575b6020831014612c1157565b634e487b7160e01b5f52602260045260245ffd5b91607f1691612c06565b9060405191825f825492612c4284612bf7565b8084529360018116908115612cad5750600114612c69575b50612c6792500383612b2e565b565b90505f9291925260205f20905f915b818310612c91575050906020612c67928201015f612c5a565b6020919350806001915483858901015201910190918492612c78565b905060209250612c6794915060ff191682840152151560051b8201015f612c5a565b600454811015612b1a5760045f5260205f2001905f90565b91908201809211610d8a57565b81810292918115918404141715610d8a57565b9081602091031261021f5751801515810361021f5790565b15612d2657565b60405162461bcd60e51b815260206004820152603460248201527f4d6573736167654d616e616765723a206f6e6c79206e6674206d616e616765726044820152732063616e20646f2074686973206f70657261746560601b6064820152608490fd5b91908203918211610d8a57565b6001600160a01b03811615612dad57612c6790613089565b631e4fbdf760e01b5f525f60045260245ffd5b9190612dcb83612ac6565b60018060a01b0382165f5260205260405f2054925f198403612dee575b50505050565b828410612e3b576001600160a01b038116156129a6576001600160a01b0382161561299357612e1c90612ac6565b9060018060a01b03165f5260205260405f20910390555f808080612de8565b508290637dc7a0d960e11b5f5260018060a01b031660045260245260445260645ffd5b6001600160a01b0316908115612f2f576001600160a01b0316918215612f1c57815f525f8051602061312983398151915260205260405f2054818110612f0357817fddf252ad1be2c89b69c2b068fc378daa952ba7f163c4a11628f55a4df523b3ef92602092855f525f8051602061312983398151915284520360405f2055845f525f80516020613129833981519152825260405f20818154019055604051908152a3565b8263391434e360e21b5f5260045260245260445260645ffd5b63ec442f0560e01b5f525f60045260245ffd5b634b637e8f60e11b5f525f60045260245ffd5b9091906001600160a01b03168015612f2f57805f525f8051602061312983398151915260205260405f2054838110613004576020845f94957fddf252ad1be2c89b69c2b068fc378daa952ba7f163c4a11628f55a4df523b3ef938587525f805160206131298339815191528452036040862055807f52c63247e1f47db19d5ce0460030c497f067ca4cebf71ba98eeadabe20bace0254037f52c63247e1f47db19d5ce0460030c497f067ca4cebf71ba98eeadabe20bace0255604051908152a3565b915063391434e360e21b5f5260045260245260445260645ffd5b60025f805160206131a983398151915254146130475760025f805160206131a983398151915255565b633ee5aeb560e01b5f5260045ffd5b5f80516020613169833981519152546001600160a01b0316330361307657565b63118cdaa760e01b5f523360045260245ffd5b5f8051602061316983398151915280546001600160a01b039283166001600160a01b0319821681179092559091167f8be0079c531659141344cd1fd0a4f28419497f9722a3daafe3b4186f6b6457e05f80a3565b60ff5f805160206131c98339815191525460401c16156130f957565b631afcd79f60e31b5f5260045ffdfe52c63247e1f47db19d5ce0460030c497f067ca4cebf71ba98eeadabe20bace0352c63247e1f47db19d5ce0460030c497f067ca4cebf71ba98eeadabe20bace0052c63247e1f47db19d5ce0460030c497f067ca4cebf71ba98eeadabe20bace049016d09d72d40fdae2fd8ceac6b6234c7706214fd39c1cd1e609a0528c1993004669736863616b654576656e744d616e616765722061637469766974794164649b779b17422d0df92223018b32b4d1fa46e071723d6817e2486d003becc55f00f0c57e16840df040f15088dc2f81fe391c3923bec73e23a9662efc9c229c6a00a26469706673582212204b647f138a4ee56fd90bbc51feddaebfc0ef9c6b172f250d21406dbf86c101a764736f6c634300081a0033",
        "linkReferences": {}
    },
    "methodIdentifiers": {
        "FccTokenAddr()": "4ba1332f",
        "NTFLastMineTime(address)": "13f34fed",
        "UsdtTokenAddr()": "b6d18c8c",
        "activityAdd(string,string,string,uint256,uint256,uint8,uint256,uint256,uint256,address)": "43b22efc",
        "activityDroppedToAccount(uint256,address)": "acae5d25",
        "activityFinish(uint256)": "cbd596c4",
        "activityInfoArrs(uint256)": "a0752825",
        "activityInfoChangedIdx(uint256)": "fefee0e1",
        "activityInfoExtArrs(uint256)": "4d43959d",
        "allowance(address,address)": "dd62ed3e",
        "approve(address,uint256)": "095ea7b3",
        "balanceOf(address)": "70a08231",
        "burn(uint256)": "42966c68",
        "burnFrom(address,uint256)": "79cc6790",
        "decimals()": "313ce567",
        "deleteMinedFishcakePower(address)": "f74b4709",
        "deleteMinerMineAmount(address)": "97088e49",
        "drop(uint256,address,uint256)": "c8c1d78d",
        "dropInfoArrs(uint256)": "2a916c20",
        "getMinedFishcakePower(address)": "4c6681e1",
        "getMinerMineAmount(address)": "a731299b",
        "iNFTManager()": "bbe68511",
        "initialize(address,address,address,address)": "f8c8765e",
        "isMint()": "33b3f944",
        "maxDeadLine()": "4dc143d5",
        "merchantOnceMaxMineAmt()": "cdd544e3",
        "minePercent()": "a6d93915",
        "minedAmt()": "f7859c28",
        "minedFishcakePower(address)": "d4621430",
        "minerMineAmount(address)": "265d3051",
        "name()": "06fdde03",
        "oneDay()": "4bd9351b",
        "owner()": "8da5cb5b",
        "renounceOwnership()": "715018a6",
        "symbol()": "95d89b41",
        "totalMineAmt()": "88e40a5a",
        "totalSupply()": "18160ddd",
        "transfer(address,uint256)": "a9059cbb",
        "transferFrom(address,address,uint256)": "23b872dd",
        "transferOwnership(address)": "f2fde38b",
        "updateMinedFishcakePower(address,uint256)": "a59d02cd",
        "userOnceMaxMineAmt()": "7f17bb68"
    },
    "storageLayout": {
        "storage": [
            {
                "astId": 52968,
                "contract": "src/contracts/core/FishcakeEventManagerV2.sol:FishcakeEventManagerV2",
                "label": "minedAmt",
                "offset": 0,
                "slot": "0",
                "type": "t_uint256"
            },
            {
                "astId": 52970,
                "contract": "src/contracts/core/FishcakeEventManagerV2.sol:FishcakeEventManagerV2",
                "label": "minePercent",
                "offset": 0,
                "slot": "1",
                "type": "t_uint8"
            },
            {
                "astId": 52972,
                "contract": "src/contracts/core/FishcakeEventManagerV2.sol:FishcakeEventManagerV2",
                "label": "isMint",
                "offset": 1,
                "slot": "1",
                "type": "t_bool"
            },
            {
                "astId": 52975,
                "contract": "src/contracts/core/FishcakeEventManagerV2.sol:FishcakeEventManagerV2",
                "label": "FccTokenAddr",
                "offset": 2,
                "slot": "1",
                "type": "t_contract(IERC20)43717"
            },
            {
                "astId": 52978,
                "contract": "src/contracts/core/FishcakeEventManagerV2.sol:FishcakeEventManagerV2",
                "label": "UsdtTokenAddr",
                "offset": 0,
                "slot": "2",
                "type": "t_contract(IERC20)43717"
            },
            {
                "astId": 52981,
                "contract": "src/contracts/core/FishcakeEventManagerV2.sol:FishcakeEventManagerV2",
                "label": "iNFTManager",
                "offset": 0,
                "slot": "3",
                "type": "t_contract(INftManager)63437"
            },
            {
                "astId": 53031,
                "contract": "src/contracts/core/FishcakeEventManagerV2.sol:FishcakeEventManagerV2",
                "label": "activityInfoChangedIdx",
                "offset": 0,
                "slot": "4",
                "type": "t_array(t_uint256)dyn_storage"
            },
            {
                "astId": 53035,
                "contract": "src/contracts/core/FishcakeEventManagerV2.sol:FishcakeEventManagerV2",
                "label": "activityInfoArrs",
                "offset": 0,
                "slot": "5",
                "type": "t_array(t_struct(ActivityInfo)53006_storage)dyn_storage"
            },
            {
                "astId": 53039,
                "contract": "src/contracts/core/FishcakeEventManagerV2.sol:FishcakeEventManagerV2",
                "label": "activityInfoExtArrs",
                "offset": 0,
                "slot": "6",
                "type": "t_array(t_struct(ActivityInfoExt)53019_storage)dyn_storage"
            },
            {
                "astId": 53043,
                "contract": "src/contracts/core/FishcakeEventManagerV2.sol:FishcakeEventManagerV2",
                "label": "dropInfoArrs",
                "offset": 0,
                "slot": "7",
                "type": "t_array(t_struct(DropInfo)53028_storage)dyn_storage"
            },
            {
                "astId": 53047,
                "contract": "src/contracts/core/FishcakeEventManagerV2.sol:FishcakeEventManagerV2",
                "label": "NTFLastMineTime",
                "offset": 0,
                "slot": "8",
                "type": "t_mapping(t_address,t_uint256)"
            },
            {
                "astId": 53053,
                "contract": "src/contracts/core/FishcakeEventManagerV2.sol:FishcakeEventManagerV2",
                "label": "activityDroppedToAccount",
                "offset": 0,
                "slot": "9",
                "type": "t_mapping(t_uint256,t_mapping(t_address,t_bool))"
            },
            {
                "astId": 53057,
                "contract": "src/contracts/core/FishcakeEventManagerV2.sol:FishcakeEventManagerV2",
                "label": "minerMineAmount",
                "offset": 0,
                "slot": "10",
                "type": "t_mapping(t_address,t_uint256)"
            },
            {
                "astId": 53061,
                "contract": "src/contracts/core/FishcakeEventManagerV2.sol:FishcakeEventManagerV2",
                "label": "minedFishcakePower",
                "offset": 0,
                "slot": "11",
                "type": "t_mapping(t_address,t_uint256)"
            },
            {
                "astId": 53107,
                "contract": "src/contracts/core/FishcakeEventManagerV2.sol:FishcakeEventManagerV2",
                "label": "__gap",
                "offset": 0,
                "slot": "12",
                "type": "t_array(t_uint256)98_storage"
            }
        ],
        "types": {
            "t_address": {
                "encoding": "inplace",
                "label": "address",
                "numberOfBytes": "20"
            },
            "t_array(t_struct(ActivityInfo)53006_storage)dyn_storage": {
                "encoding": "dynamic_array",
                "label": "struct FishcakeEventManagerStorage.ActivityInfo[]",
                "numberOfBytes": "32",
                "base": "t_struct(ActivityInfo)53006_storage"
            },
            "t_array(t_struct(ActivityInfoExt)53019_storage)dyn_storage": {
                "encoding": "dynamic_array",
                "label": "struct FishcakeEventManagerStorage.ActivityInfoExt[]",
                "numberOfBytes": "32",
                "base": "t_struct(ActivityInfoExt)53019_storage"
            },
            "t_array(t_struct(DropInfo)53028_storage)dyn_storage": {
                "encoding": "dynamic_array",
                "label": "struct FishcakeEventManagerStorage.DropInfo[]",
                "numberOfBytes": "32",
                "base": "t_struct(DropInfo)53028_storage"
            },
            "t_array(t_uint256)98_storage": {
                "encoding": "inplace",
                "label": "uint256[98]",
                "numberOfBytes": "3136",
                "base": "t_uint256"
            },
            "t_array(t_uint256)dyn_storage": {
                "encoding": "dynamic_array",
                "label": "uint256[]",
                "numberOfBytes": "32",
                "base": "t_uint256"
            },
            "t_bool": {
                "encoding": "inplace",
                "label": "bool",
                "numberOfBytes": "1"
            },
            "t_contract(IERC20)43717": {
                "encoding": "inplace",
                "label": "contract IERC20",
                "numberOfBytes": "20"
            },
            "t_contract(INftManager)63437": {
                "encoding": "inplace",
                "label": "contract INftManager",
                "numberOfBytes": "20"
            },
            "t_mapping(t_address,t_bool)": {
                "encoding": "mapping",
                "key": "t_address",
                "label": "mapping(address => bool)",
                "numberOfBytes": "32",
                "value": "t_bool"
            },
            "t_mapping(t_address,t_uint256)": {
                "encoding": "mapping",
                "key": "t_address",
                "label": "mapping(address => uint256)",
                "numberOfBytes": "32",
                "value": "t_uint256"
            },
            "t_mapping(t_uint256,t_mapping(t_address,t_bool))": {
                "encoding": "mapping",
                "key": "t_uint256",
                "label": "mapping(uint256 => mapping(address => bool))",
                "numberOfBytes": "32",
                "value": "t_mapping(t_address,t_bool)"
            },
            "t_string_storage": {
                "encoding": "bytes",
                "label": "string",
                "numberOfBytes": "32"
            },
            "t_struct(ActivityInfo)53006_storage": {
                "encoding": "inplace",
                "label": "struct FishcakeEventManagerStorage.ActivityInfo",
                "numberOfBytes": "384",
                "members": [
                    {
                        "astId": 52983,
                        "contract": "src/contracts/core/FishcakeEventManagerV2.sol:FishcakeEventManagerV2",
                        "label": "activityId",
                        "offset": 0,
                        "slot": "0",
                        "type": "t_uint256"
                    },
                    {
                        "astId": 52985,
                        "contract": "src/contracts/core/FishcakeEventManagerV2.sol:FishcakeEventManagerV2",
                        "label": "businessAccount",
                        "offset": 0,
                        "slot": "1",
                        "type": "t_address"
                    },
                    {
                        "astId": 52987,
                        "contract": "src/contracts/core/FishcakeEventManagerV2.sol:FishcakeEventManagerV2",
                        "label": "businessName",
                        "offset": 0,
                        "slot": "2",
                        "type": "t_string_storage"
                    },
                    {
                        "astId": 52989,
                        "contract": "src/contracts/core/FishcakeEventManagerV2.sol:FishcakeEventManagerV2",
                        "label": "activityContent",
                        "offset": 0,
                        "slot": "3",
                        "type": "t_string_storage"
                    },
                    {
                        "astId": 52991,
                        "contract": "src/contracts/core/FishcakeEventManagerV2.sol:FishcakeEventManagerV2",
                        "label": "latitudeLongitude",
                        "offset": 0,
                        "slot": "4",
                        "type": "t_string_storage"
                    },
                    {
                        "astId": 52993,
                        "contract": "src/contracts/core/FishcakeEventManagerV2.sol:FishcakeEventManagerV2",
                        "label": "activityCreateTime",
                        "offset": 0,
                        "slot": "5",
                        "type": "t_uint256"
                    },
                    {
                        "astId": 52995,
                        "contract": "src/contracts/core/FishcakeEventManagerV2.sol:FishcakeEventManagerV2",
                        "label": "activityDeadLine",
                        "offset": 0,
                        "slot": "6",
                        "type": "t_uint256"
                    },
                    {
                        "astId": 52997,
                        "contract": "src/contracts/core/FishcakeEventManagerV2.sol:FishcakeEventManagerV2",
                        "label": "dropType",
                        "offset": 0,
                        "slot": "7",
                        "type": "t_uint8"
                    },
                    {
                        "astId": 52999,
                        "contract": "src/contracts/core/FishcakeEventManagerV2.sol:FishcakeEventManagerV2",
                        "label": "dropNumber",
                        "offset": 0,
                        "slot": "8",
                        "type": "t_uint256"
                    },
                    {
                        "astId": 53001,
                        "contract": "src/contracts/core/FishcakeEventManagerV2.sol:FishcakeEventManagerV2",
                        "label": "minDropAmt",
                        "offset": 0,
                        "slot": "9",
                        "type": "t_uint256"
                    },
                    {
                        "astId": 53003,
                        "contract": "src/contracts/core/FishcakeEventManagerV2.sol:FishcakeEventManagerV2",
                        "label": "maxDropAmt",
                        "offset": 0,
                        "slot": "10",
                        "type": "t_uint256"
                    },
                    {
                        "astId": 53005,
                        "contract": "src/contracts/core/FishcakeEventManagerV2.sol:FishcakeEventManagerV2",
                        "label": "tokenContractAddr",
                        "offset": 0,
                        "slot": "11",
                        "type": "t_address"
                    }
                ]
            },
            "t_struct(ActivityInfoExt)53019_storage": {
                "encoding": "inplace",
                "label": "struct FishcakeEventManagerStorage.ActivityInfoExt",
                "numberOfBytes": "192",
                "members": [
                    {
                        "astId": 53008,
                        "contract": "src/contracts/core/FishcakeEventManagerV2.sol:FishcakeEventManagerV2",
                        "label": "activityId",
                        "offset": 0,
                        "slot": "0",
                        "type": "t_uint256"
                    },
                    {
                        "astId": 53010,
                        "contract": "src/contracts/core/FishcakeEventManagerV2.sol:FishcakeEventManagerV2",
                        "label": "alreadyDropAmts",
                        "offset": 0,
                        "slot": "1",
                        "type": "t_uint256"
                    },
                    {
                        "astId": 53012,
                        "contract": "src/contracts/core/FishcakeEventManagerV2.sol:FishcakeEventManagerV2",
                        "label": "alreadyDropNumber",
                        "offset": 0,
                        "slot": "2",
                        "type": "t_uint256"
                    },
                    {
                        "astId": 53014,
                        "contract": "src/contracts/core/FishcakeEventManagerV2.sol:FishcakeEventManagerV2",
                        "label": "businessMinedAmt",
                        "offset": 0,
                        "slot": "3",
                        "type": "t_uint256"
                    },
                    {
                        "astId": 53016,
                        "contract": "src/contracts/core/FishcakeEventManagerV2.sol:FishcakeEventManagerV2",
                        "label": "businessMinedWithdrawedAmt",
                        "offset": 0,
                        "slot": "4",
                        "type": "t_uint256"
                    },
                    {
                        "astId": 53018,
                        "contract": "src/contracts/core/FishcakeEventManagerV2.sol:FishcakeEventManagerV2",
                        "label": "activityStatus",
                        "offset": 0,
                        "slot": "5",
                        "type": "t_uint8"
                    }
                ]
            },
            "t_struct(DropInfo)53028_storage": {
                "encoding": "inplace",
                "label": "struct FishcakeEventManagerStorage.DropInfo",
                "numberOfBytes": "128",
                "members": [
                    {
                        "astId": 53021,
                        "contract": "src/contracts/core/FishcakeEventManagerV2.sol:FishcakeEventManagerV2",
                        "label": "activityId",
                        "offset": 0,
                        "slot": "0",
                        "type": "t_uint256"
                    },
                    {
                        "astId": 53023,
                        "contract": "src/contracts/core/FishcakeEventManagerV2.sol:FishcakeEventManagerV2",
                        "label": "userAccount",
                        "offset": 0,
                        "slot": "1",
                        "type": "t_address"
                    },
                    {
                        "astId": 53025,
                        "contract": "src/contracts/core/FishcakeEventManagerV2.sol:FishcakeEventManagerV2",
                        "label": "dropTime",
                        "offset": 0,
                        "slot": "2",
                        "type": "t_uint256"
                    },
                    {
                        "astId": 53027,
                        "contract": "src/contracts/core/FishcakeEventManagerV2.sol:FishcakeEventManagerV2",
                        "label": "dropAmt",
                        "offset": 0,
                        "slot": "3",
                        "type": "t_uint256"
                    }
                ]
            },
            "t_uint256": {
                "encoding": "inplace",
                "label": "uint256",
                "numberOfBytes": "32"
            },
            "t_uint8": {
                "encoding": "inplace",
                "label": "uint8",
                "numberOfBytes": "1"
            }
        }
    },
    "id": 83
}