{"abi":[{"type":"constructor","inputs":[],"stateMutability":"nonpayable"},{"type":"receive","stateMutability":"payable"},{"type":"function","name":"_customName","inputs":[],"outputs":[{"name":"","type":"string","internalType":"string"}],"stateMutability":"view"},{"type":"function","name":"_customSymbol","inputs":[],"outputs":[{"name":"","type":"string","internalType":"string"}],"stateMutability":"view"},{"type":"function","name":"_nextTokenId","inputs":[],"outputs":[{"name":"","type":"uint256","internalType":"uint256"}],"stateMutability":"view"},{"type":"function","name":"approve","inputs":[{"name":"to","type":"address","internalType":"address"},{"name":"tokenId","type":"uint256","internalType":"uint256"}],"outputs":[],"stateMutability":"nonpayable"},{"type":"function","name":"balanceOf","inputs":[{"name":"owner","type":"address","internalType":"address"}],"outputs":[{"name":"","type":"uint256","internalType":"uint256"}],"stateMutability":"view"},{"type":"function","name":"basicMineAmt","inputs":[],"outputs":[{"name":"","type":"uint256","internalType":"uint256"}],"stateMutability":"view"},{"type":"function","name":"basicNftJson","inputs":[],"outputs":[{"name":"","type":"string","internalType":"string"}],"stateMutability":"view"},{"type":"function","name":"boosterAddress","inputs":[],"outputs":[{"name":"","type":"address","internalType":"address"}],"stateMutability":"view"},{"type":"function","name":"createNFT","inputs":[{"name":"_businessName","type":"string","internalType":"string"},{"name":"_description","type":"string","internalType":"string"},{"name":"_imgUrl","type":"string","internalType":"string"},{"name":"_businessAddress","type":"string","internalType":"string"},{"name":"_website","type":"string","internalType":"string"},{"name":"_social","type":"string","internalType":"string"},{"name":"_type","type":"uint8","internalType":"uint8"}],"outputs":[{"name":"","type":"bool","internalType":"bool"},{"name":"","type":"uint256","internalType":"uint256"}],"stateMutability":"nonpayable"},{"type":"function","name":"epicSalmonNftJson","inputs":[],"outputs":[{"name":"","type":"string","internalType":"string"}],"stateMutability":"view"},{"type":"function","name":"epicSalmonNftJson_Used","inputs":[],"outputs":[{"name":"","type":"string","internalType":"string"}],"stateMutability":"view"},{"type":"function","name":"fccTokenAddr","inputs":[],"outputs":[{"name":"","type":"address","internalType":"contract IERC20"}],"stateMutability":"view"},{"type":"function","name":"feManagerAddress","inputs":[],"outputs":[{"name":"","type":"address","internalType":"contract IFishcakeEventManager"}],"stateMutability":"view"},{"type":"function","name":"getActiveMinerBoosterNft","inputs":[{"name":"_miner","type":"address","internalType":"address"}],"outputs":[{"name":"","type":"uint256","internalType":"uint256"}],"stateMutability":"view"},{"type":"function","name":"getApproved","inputs":[{"name":"tokenId","type":"uint256","internalType":"uint256"}],"outputs":[{"name":"","type":"address","internalType":"address"}],"stateMutability":"view"},{"type":"function","name":"getMerchantNTFDeadline","inputs":[{"name":"_account","type":"address","internalType":"address"}],"outputs":[{"name":"","type":"uint256","internalType":"uint256"}],"stateMutability":"view"},{"type":"function","name":"getMinerBoosterNftType","inputs":[{"name":"tokenId","type":"uint256","internalType":"uint256"}],"outputs":[{"name":"","type":"uint8","internalType":"uint8"}],"stateMutability":"view"},{"type":"function","name":"getTokenBalance","inputs":[{"name":"tokenAddress","type":"address","internalType":"address"}],"outputs":[{"name":"","type":"uint256","internalType":"uint256"}],"stateMutability":"view"},{"type":"function","name":"getUserNTFDeadline","inputs":[{"name":"_account","type":"address","internalType":"address"}],"outputs":[{"name":"","type":"uint256","internalType":"uint256"}],"stateMutability":"view"},{"type":"function","name":"inActiveMinerBoosterNft","inputs":[{"name":"_miner","type":"address","internalType":"address"},{"name":"tokenId","type":"uint256","internalType":"uint256"}],"outputs":[],"stateMutability":"nonpayable"},{"type":"function","name":"initialize","inputs":[{"name":"_initialOwner","type":"address","internalType":"address"},{"name":"_fccTokenAddr","type":"address","internalType":"address"},{"name":"_tokenUsdtAddr","type":"address","internalType":"address"},{"name":"_redemptionPoolAddress","type":"address","internalType":"address"}],"outputs":[],"stateMutability":"nonpayable"},{"type":"function","name":"initializeV5","inputs":[{"name":"_stakingManagerAddress","type":"address","internalType":"address"}],"outputs":[],"stateMutability":"nonpayable"},{"type":"function","name":"isApprovedForAll","inputs":[{"name":"owner","type":"address","internalType":"address"},{"name":"operator","type":"address","internalType":"address"}],"outputs":[{"name":"","type":"bool","internalType":"bool"}],"stateMutability":"view"},{"type":"function","name":"legendaryTunaNftJson","inputs":[],"outputs":[{"name":"","type":"string","internalType":"string"}],"stateMutability":"view"},{"type":"function","name":"legendaryTunaNftJson_Used","inputs":[],"outputs":[{"name":"","type":"string","internalType":"string"}],"stateMutability":"view"},{"type":"function","name":"merchantNftDeadline","inputs":[{"name":"","type":"address","internalType":"address"}],"outputs":[{"name":"","type":"uint256","internalType":"uint256"}],"stateMutability":"view"},{"type":"function","name":"merchantValue","inputs":[],"outputs":[{"name":"","type":"uint256","internalType":"uint256"}],"stateMutability":"view"},{"type":"function","name":"minedAmt","inputs":[],"outputs":[{"name":"","type":"uint256","internalType":"uint256"}],"stateMutability":"view"},{"type":"function","name":"minerActiveNft","inputs":[{"name":"","type":"address","internalType":"address"}],"outputs":[{"name":"","type":"uint256","internalType":"uint256"}],"stateMutability":"view"},{"type":"function","name":"minerHistoryBoosterNft","inputs":[{"name":"","type":"address","internalType":"address"},{"name":"","type":"uint256","internalType":"uint256"}],"outputs":[{"name":"","type":"uint256","internalType":"uint256"}],"stateMutability":"view"},{"type":"function","name":"mintBoosterNFT","inputs":[{"name":"nft_type","type":"uint8","internalType":"uint8"}],"outputs":[{"name":"","type":"bool","internalType":"bool"},{"name":"","type":"uint256","internalType":"uint256"}],"stateMutability":"nonpayable"},{"type":"function","name":"name","inputs":[],"outputs":[{"name":"","type":"string","internalType":"string"}],"stateMutability":"view"},{"type":"function","name":"nftMintType","inputs":[{"name":"","type":"uint256","internalType":"uint256"}],"outputs":[{"name":"","type":"uint8","internalType":"uint8"}],"stateMutability":"view"},{"type":"function","name":"nftOwner","inputs":[{"name":"","type":"uint256","internalType":"uint256"}],"outputs":[{"name":"","type":"address","internalType":"address"}],"stateMutability":"view"},{"type":"function","name":"nftUpgradeInit","inputs":[{"name":"_feManagerAddress","type":"address","internalType":"address"},{"name":"_boosterAddress","type":"address","internalType":"address"},{"name":"_stakingManagerAddress","type":"address","internalType":"address"}],"outputs":[],"stateMutability":"nonpayable"},{"type":"function","name":"owner","inputs":[],"outputs":[{"name":"","type":"address","internalType":"address"}],"stateMutability":"view"},{"type":"function","name":"ownerOf","inputs":[{"name":"tokenId","type":"uint256","internalType":"uint256"}],"outputs":[{"name":"","type":"address","internalType":"address"}],"stateMutability":"view"},{"type":"function","name":"proMineAmt","inputs":[],"outputs":[{"name":"","type":"uint256","internalType":"uint256"}],"stateMutability":"view"},{"type":"function","name":"proNftJson","inputs":[],"outputs":[{"name":"","type":"string","internalType":"string"}],"stateMutability":"view"},{"type":"function","name":"rareShrimpNftJson","inputs":[],"outputs":[{"name":"","type":"string","internalType":"string"}],"stateMutability":"view"},{"type":"function","name":"rareShrimpNftJson_Used","inputs":[],"outputs":[{"name":"","type":"string","internalType":"string"}],"stateMutability":"view"},{"type":"function","name":"redemptionPoolAddress","inputs":[],"outputs":[{"name":"","type":"address","internalType":"contract IRedemptionPool"}],"stateMutability":"view"},{"type":"function","name":"renounceOwnership","inputs":[],"outputs":[],"stateMutability":"nonpayable"},{"type":"function","name":"safeTransferFrom","inputs":[{"name":"from","type":"address","internalType":"address"},{"name":"to","type":"address","internalType":"address"},{"name":"tokenId","type":"uint256","internalType":"uint256"}],"outputs":[],"stateMutability":"nonpayable"},{"type":"function","name":"safeTransferFrom","inputs":[{"name":"from","type":"address","internalType":"address"},{"name":"to","type":"address","internalType":"address"},{"name":"tokenId","type":"uint256","internalType":"uint256"},{"name":"data","type":"bytes","internalType":"bytes"}],"outputs":[],"stateMutability":"nonpayable"},{"type":"function","name":"setApprovalForAll","inputs":[{"name":"operator","type":"address","internalType":"address"},{"name":"approved","type":"bool","internalType":"bool"}],"outputs":[],"stateMutability":"nonpayable"},{"type":"function","name":"setUriPrefix","inputs":[{"name":"_uriPrefix","type":"string","internalType":"string"}],"outputs":[],"stateMutability":"nonpayable"},{"type":"function","name":"setValues","inputs":[{"name":"_merchantValue","type":"uint256","internalType":"uint256"},{"name":"_userValue","type":"uint256","internalType":"uint256"}],"outputs":[],"stateMutability":"nonpayable"},{"type":"function","name":"stakingManagerAddress","inputs":[],"outputs":[{"name":"","type":"address","internalType":"contract IStakingManager"}],"stateMutability":"view"},{"type":"function","name":"supportsInterface","inputs":[{"name":"interfaceId","type":"bytes4","internalType":"bytes4"}],"outputs":[{"name":"","type":"bool","internalType":"bool"}],"stateMutability":"view"},{"type":"function","name":"symbol","inputs":[],"outputs":[{"name":"","type":"string","internalType":"string"}],"stateMutability":"view"},{"type":"function","name":"tokenURI","inputs":[{"name":"tokenId","type":"uint256","internalType":"uint256"}],"outputs":[{"name":"","type":"string","internalType":"string"}],"stateMutability":"view"},{"type":"function","name":"tokenUsdtAddr","inputs":[],"outputs":[{"name":"","type":"address","internalType":"contract IERC20"}],"stateMutability":"view"},{"type":"function","name":"totalMineAmt","inputs":[],"outputs":[{"name":"","type":"uint256","internalType":"uint256"}],"stateMutability":"view"},{"type":"function","name":"transferFrom","inputs":[{"name":"from","type":"address","internalType":"address"},{"name":"to","type":"address","internalType":"address"},{"name":"tokenId","type":"uint256","internalType":"uint256"}],"outputs":[],"stateMutability":"nonpayable"},{"type":"function","name":"transferOwnership","inputs":[{"name":"newOwner","type":"address","internalType":"address"}],"outputs":[],"stateMutability":"nonpayable"},{"type":"function","name":"uncommonFishcakeNftJson","inputs":[],"outputs":[{"name":"","type":"string","internalType":"string"}],"stateMutability":"view"},{"type":"function","name":"uncommonFishcakeNftJson_Used","inputs":[],"outputs":[{"name":"","type":"string","internalType":"string"}],"stateMutability":"view"},{"type":"function","name":"updateNameAndSymbol","inputs":[{"name":"newName","type":"string","internalType":"string"},{"name":"newSymbol","type":"string","internalType":"string"}],"outputs":[],"stateMutability":"nonpayable"},{"type":"function","name":"updateNftJson","inputs":[{"name":"_type","type":"uint8","internalType":"uint8"},{"name":"_newJsonUrl","type":"string","internalType":"string"}],"outputs":[],"stateMutability":"nonpayable"},{"type":"function","name":"uri","inputs":[{"name":"inputTokenId","type":"uint256","internalType":"uint256"}],"outputs":[{"name":"","type":"string","internalType":"string"}],"stateMutability":"view"},{"type":"function","name":"uriPrefix","inputs":[],"outputs":[{"name":"","type":"string","internalType":"string"}],"stateMutability":"view"},{"type":"function","name":"userNftDeadline","inputs":[{"name":"","type":"address","internalType":"address"}],"outputs":[{"name":"","type":"uint256","internalType":"uint256"}],"stateMutability":"view"},{"type":"function","name":"userValue","inputs":[],"outputs":[{"name":"","type":"uint256","internalType":"uint256"}],"stateMutability":"view"},{"type":"function","name":"validTime","inputs":[],"outputs":[{"name":"","type":"uint256","internalType":"uint256"}],"stateMutability":"view"},{"type":"function","name":"withdrawNativeToken","inputs":[{"name":"_recipient","type":"address","internalType":"address payable"},{"name":"_amount","type":"uint256","internalType":"uint256"}],"outputs":[{"name":"","type":"bool","internalType":"bool"}],"stateMutability":"nonpayable"},{"type":"function","name":"withdrawToken","inputs":[{"name":"_tokenAddr","type":"address","internalType":"address"},{"name":"_account","type":"address","internalType":"address"},{"name":"_value","type":"uint256","internalType":"uint256"}],"outputs":[{"name":"","type":"bool","internalType":"bool"}],"stateMutability":"nonpayable"},{"type":"event","name":"Approval","inputs":[{"name":"owner","type":"address","indexed":true,"internalType":"address"},{"name":"approved","type":"address","indexed":true,"internalType":"address"},{"name":"tokenId","type":"uint256","indexed":true,"internalType":"uint256"}],"anonymous":false},{"type":"event","name":"ApprovalForAll","inputs":[{"name":"owner","type":"address","indexed":true,"internalType":"address"},{"name":"operator","type":"address","indexed":true,"internalType":"address"},{"name":"approved","type":"bool","indexed":false,"internalType":"bool"}],"anonymous":false},{"type":"event","name":"BatchMetadataUpdate","inputs":[{"name":"_fromTokenId","type":"uint256","indexed":false,"internalType":"uint256"},{"name":"_toTokenId","type":"uint256","indexed":false,"internalType":"uint256"}],"anonymous":false},{"type":"event","name":"CreateNFT","inputs":[{"name":"creator","type":"address","indexed":true,"internalType":"address"},{"name":"_tokenId","type":"uint256","indexed":false,"internalType":"uint256"},{"name":"_businessName","type":"string","indexed":false,"internalType":"string"},{"name":"_description","type":"string","indexed":false,"internalType":"string"},{"name":"_imgUrl","type":"string","indexed":false,"internalType":"string"},{"name":"_businessAddress","type":"string","indexed":false,"internalType":"string"},{"name":"_webSite","type":"string","indexed":false,"internalType":"string"},{"name":"_social","type":"string","indexed":false,"internalType":"string"},{"name":"_value","type":"uint256","indexed":false,"internalType":"uint256"},{"name":"_deadline","type":"uint256","indexed":false,"internalType":"uint256"},{"name":"_type","type":"uint8","indexed":false,"internalType":"uint8"}],"anonymous":false},{"type":"event","name":"Initialized","inputs":[{"name":"version","type":"uint64","indexed":false,"internalType":"uint64"}],"anonymous":false},{"type":"event","name":"MetadataUpdate","inputs":[{"name":"_tokenId","type":"uint256","indexed":false,"internalType":"uint256"}],"anonymous":false},{"type":"event","name":"MintBoosterNFT","inputs":[{"name":"miner","type":"address","indexed":true,"internalType":"address"},{"name":"tokenId","type":"uint256","indexed":true,"internalType":"uint256"},{"name":"nftType","type":"uint8","indexed":false,"internalType":"uint8"},{"name":"usedFishCakePower","type":"uint256","indexed":false,"internalType":"uint256"},{"name":"mintTime","type":"uint256","indexed":false,"internalType":"uint256"}],"anonymous":false},{"type":"event","name":"NameSymbolUpdated","inputs":[{"name":"newName","type":"string","indexed":false,"internalType":"string"},{"name":"newSymbol","type":"string","indexed":false,"internalType":"string"}],"anonymous":false},{"type":"event","name":"OwnershipTransferred","inputs":[{"name":"previousOwner","type":"address","indexed":true,"internalType":"address"},{"name":"newOwner","type":"address","indexed":true,"internalType":"address"}],"anonymous":false},{"type":"event","name":"Received","inputs":[{"name":"receiver","type":"address","indexed":true,"internalType":"address"},{"name":"_value","type":"uint256","indexed":false,"internalType":"uint256"}],"anonymous":false},{"type":"event","name":"SetValidTime","inputs":[{"name":"setter","type":"address","indexed":true,"internalType":"address"},{"name":"_time","type":"uint256","indexed":false,"internalType":"uint256"}],"anonymous":false},{"type":"event","name":"SetValues","inputs":[{"name":"_setterAddress","type":"address","indexed":true,"internalType":"address"},{"name":"_merchantValue","type":"uint256","indexed":false,"internalType":"uint256"},{"name":"_userValue","type":"uint256","indexed":false,"internalType":"uint256"}],"anonymous":false},{"type":"event","name":"Transfer","inputs":[{"name":"from","type":"address","indexed":true,"internalType":"address"},{"name":"to","type":"address","indexed":true,"internalType":"address"},{"name":"tokenId","type":"uint256","indexed":true,"internalType":"uint256"}],"anonymous":false},{"type":"event","name":"UpdatedNftJson","inputs":[{"name":"creator","type":"address","indexed":true,"internalType":"address"},{"name":"nftType","type":"uint8","indexed":false,"internalType":"uint8"},{"name":"newJsonUrl","type":"string","indexed":false,"internalType":"string"}],"anonymous":false},{"type":"event","name":"UriPrefixSet","inputs":[{"name":"setterAddress","type":"address","indexed":true,"internalType":"address"},{"name":"urlPrefix","type":"string","indexed":false,"internalType":"string"}],"anonymous":false},{"type":"event","name":"Withdraw","inputs":[{"name":"withdrawer","type":"address","indexed":true,"internalType":"address"},{"name":"_amount","type":"uint256","indexed":false,"internalType":"uint256"}],"anonymous":false},{"type":"event","name":"WithdrawUToken","inputs":[{"name":"withdrawer","type":"address","indexed":true,"internalType":"address"},{"name":"_tokenAddr","type":"address","indexed":true,"internalType":"address"},{"name":"_account","type":"address","indexed":true,"internalType":"address"},{"name":"_value","type":"uint256","indexed":false,"internalType":"uint256"}],"anonymous":false},{"type":"error","name":"AddressEmptyCode","inputs":[{"name":"target","type":"address","internalType":"address"}]},{"type":"error","name":"AddressInsufficientBalance","inputs":[{"name":"account","type":"address","internalType":"address"}]},{"type":"error","name":"ERC721IncorrectOwner","inputs":[{"name":"sender","type":"address","internalType":"address"},{"name":"tokenId","type":"uint256","internalType":"uint256"},{"name":"owner","type":"address","internalType":"address"}]},{"type":"error","name":"ERC721InsufficientApproval","inputs":[{"name":"operator","type":"address","internalType":"address"},{"name":"tokenId","type":"uint256","internalType":"uint256"}]},{"type":"error","name":"ERC721InvalidApprover","inputs":[{"name":"approver","type":"address","internalType":"address"}]},{"type":"error","name":"ERC721InvalidOperator","inputs":[{"name":"operator","type":"address","internalType":"address"}]},{"type":"error","name":"ERC721InvalidOwner","inputs":[{"name":"owner","type":"address","internalType":"address"}]},{"type":"error","name":"ERC721InvalidReceiver","inputs":[{"name":"receiver","type":"address","internalType":"address"}]},{"type":"error","name":"ERC721InvalidSender","inputs":[{"name":"sender","type":"address","internalType":"address"}]},{"type":"error","name":"ERC721NonexistentToken","inputs":[{"name":"tokenId","type":"uint256","internalType":"uint256"}]},{"type":"error","name":"FailedInnerCall","inputs":[]},{"type":"error","name":"InvalidInitialization","inputs":[]},{"type":"error","name":"MineAmountNotEnough","inputs":[{"name":"amount","type":"uint256","internalType":"uint256"}]},{"type":"error","name":"NotInitializing","inputs":[]},{"type":"error","name":"OwnableInvalidOwner","inputs":[{"name":"owner","type":"address","internalType":"address"}]},{"type":"error","name":"OwnableUnauthorizedAccount","inputs":[{"name":"account","type":"address","internalType":"address"}]},{"type":"error","name":"ReentrancyGuardReentrantCall","inputs":[]},{"type":"error","name":"SafeERC20FailedOperation","inputs":[{"name":"token","type":"address","internalType":"address"}]}],"bytecode":{"object":"0x6080806040523460d0577ff0c57e16840df040f15088dc2f81fe391c3923bec73e23a9662efc9c229c6a005460ff8160401c1660c1576002600160401b03196001600160401b03821601605c575b604051614e6f90816100d58239f35b6001600160401b0319166001600160401b039081177ff0c57e16840df040f15088dc2f81fe391c3923bec73e23a9662efc9c229c6a005581527fc7f505b2f371ae2175ee4913f4499e1f2633a7b5936321eed1cdaeb6115181d290602090a15f80604d565b63f92ee8a960e01b5f5260045ffd5b5f80fdfe60806040526004361015610046575b3615610018575f80fd5b6040513481527f88a5966d370b9919b20f3e2c13ff65706f196a4e32cc2c12bf57088f8852587460203392a2005b5f803560e01c806301e336671461390a57806301ffc9a71461388257806306fdde03146137a95780630705366314612d7c578063081812fc14613760578063095ea7b3146136745780630b8e58c9146136595780630ddf45df14611adf5780630e89341c1461363a5780631510f4f7146135645780631c2347a81461352c5780631db1c6e6146135a857806323b872dd146135915780632ac8693b14613564578063397950781461352c5780633aecd0e3146134a257806342842e0e14613471578063463d505914612db457806347586b9c14612d7c578063492bcb6814612cea5780634a60f62014612cce578063536c6bfa14612b635780635a02369314612a9f5780635e7cc26e146127a057806362b99ad4146126fb5780636352211e146126cb578063680d737f14612639578063685fbb51146124f457806370a08231146124a5578063715018a61461243e57806373df1f0f14611e07578063748dada114611dea5780637ec4a65914611c3857806380c7fb9714611c1a5780638678d9d414611bfd57806388e40a5a14611bdd5780638a1899c914611b4b5780638da5cb5b14611b175780638dce8b1314611adf5780638eb7fb3214611a285780639439981714611a0a57806395d89b41146119075780639c3dfaf6146118ad578063a22cb46514611815578063a73dd74c146117ed578063a99c308b146117c5578063ab15cff214611480578063b6648e4714611457578063b88d4fde146113ec578063b98191fa14611358578063bbe449171461133a578063bc757ceb146112a6578063c57aa7d714611212578063c87b56dd146111f2578063ccc885fd1461119b578063d13aaedc14611107578063d1c646401461104b578063dd62df7314611022578063e97c46b214610fee578063e985e9c514610fa0578063ea7da6ea14610f77578063eaf9d19414610c22578063ee65347314610bf9578063f2fde38b14610bcc578063f7859c2814610bae578063f8c8765e146103675763fd73183714610332575061000e565b34610364576020366003190112610364576020906004358152601c8252604060018060a01b0391205416604051908152f35b80fd5b503461036457608036600319011261036457610381613aff565b610389613b15565b610391613b2b565b906064356001600160a01b03811690819003610baa575f80516020614d9a833981519152549260ff8460401c1615936001600160401b03811680159081610ba2575b6001149081610b98575b159081610b8f575b50610b805767ffffffffffffffff1981166001175f80516020614d9a8339815191525584610b54575b506001600160a01b03851615610ae957604094855161042d8782613c47565b6011815270119a5cda18d85ad94814185cdcc8139195607a1b60208201528651906104588883613c47565b60048252631193919560e21b6020830152610471614b70565b610479614b70565b8051906001600160401b038211610ad55781906104a35f80516020614c3a83398151915254613c0f565b601f8111610a7b575b50602090601f83116001146109e1578b926109d6575b50508160011b915f199060031b1c1916175f80516020614c3a833981519152555b8051906001600160401b0382116109c25761050b5f80516020614dfa83398151915254613c0f565b601f811161095d575b50602090601f83116001146108dd576105919392918a91836108d2575b50508160011b915f199060031b1c1916175f80516020614dfa833981519152555b61055a614b70565b610562614b70565b61056b816146b2565b610573614b70565b61057b614b70565b60015f80516020614d3a8339815191525561497d565b5f80516020614d9a833981519152549260ff84871c1615936001600160401b038116801590816108ca575b60011490816108c0575b1590816108b7575b506108a85767ffffffffffffffff1981166001175f80516020614d9a833981519152558461087c575b5060018060a01b03166001600160601b0360a01b600654161760065560018060a01b03166001600160601b0360a01b60075416176007556001600160601b0360a01b6004541617600455600184556304c4b400600255627a120060035583600555610663600c54613c0f565b601f8111610833575b50604b600c55600c84525f80516020614dba8339815191525f80516020614bfa8339815191525564173539b7b760d91b7fdf6966c971051c3d54ec59162606531493a51404a002842f56009d7e5cf4a8c8556106c9600b54613c0f565b601f81116107ea575b50604b600b55600b84527f68747470733a2f2f7777772e6669736863616b652e6f72672f696d6167652f325f80516020614d1a8339815191525564173539b7b760d91b7f0175b7a638427703f0dbe7bb9bbf987a2551717b34e79f33b5b1008d1fa01dba55610796575b610744575080f35b60207fc7f505b2f371ae2175ee4913f4499e1f2633a7b5936321eed1cdaeb6115181d29160ff60401b195f80516020614d9a83398151915254165f80516020614d9a833981519152555160018152a180f35b60ff60401b195f80516020614d9a83398151915254165f80516020614d9a833981519152557fc7f505b2f371ae2175ee4913f4499e1f2633a7b5936321eed1cdaeb6115181d26020835160018152a161073c565b600b855261082d90601f0160051c5f80516020614d1a833981519152017f0175b7a638427703f0dbe7bb9bbf987a2551717b34e79f33b5b1008d1fa01dbb61408b565b5f6106d2565b600c855261087690601f0160051c5f80516020614bfa833981519152017fdf6966c971051c3d54ec59162606531493a51404a002842f56009d7e5cf4a8c961408b565b5f61066c565b68ffffffffffffffffff191668010000000000000001175f80516020614d9a833981519152555f6105f7565b63f92ee8a960e01b8852600488fd5b9050155f6105ce565b303b1591506105c6565b8691506105bc565b015190505f80610531565b5f80516020614dfa8339815191528a52818a209190601f1984168b5b81811061094557509160019391856105919796941061092d575b505050811b015f80516020614dfa83398151915255610552565b01515f1960f88460031b161c191690555f8080610913565b929360206001819287860151815501950193016108f9565b5f80516020614dfa8339815191528a526109b2907ff4bad0a69248f59680a4f2b3000328cec71a413447c96781cfe5996daa8c456e601f850160051c810191602086106109b8575b601f0160051c019061408b565b5f610514565b90915081906109a5565b634e487b7160e01b89526041600452602489fd5b015190505f806104c2565b5f80516020614c3a8339815191528c527f37c58c799b6609234b945e882912ee9ad34948a1dfaa20a97485e1a7752bbf819250601f1984168c5b818110610a635750908460019594939210610a4b575b505050811b015f80516020614c3a833981519152556104e3565b01515f1960f88460031b161c191690555f8080610a31565b92936020600181928786015181550195019301610a1b565b5f80516020614c3a8339815191528c52610acf907f37c58c799b6609234b945e882912ee9ad34948a1dfaa20a97485e1a7752bbf81601f850160051c810191602086106109b857601f0160051c019061408b565b5f6104ac565b634e487b7160e01b8a52604160045260248afd5b60405162461bcd60e51b815260206004820152603a60248201527f4e66744d616e6167657220696e697469616c697a653a205f696e697469616c4f60448201527f776e65722063616e2774206265207a65726f20616464726573730000000000006064820152608490fd5b68ffffffffffffffffff191668010000000000000001175f80516020614d9a833981519152555f61040e565b63f92ee8a960e01b8752600487fd5b9050155f6103e5565b303b1591506103dd565b8691506103d3565b8480fd5b50346103645780600319360112610364576020600554604051908152f35b503461036457602036600319011261036457610bf6610be9613aff565b610bf16146dd565b6146b2565b80f35b50346103645780600319360112610364576013546040516001600160a01b039091168152602090f35b5034610364576040366003190112610364576004356001600160401b038111610f7357610c53903690600401613e05565b906024356001600160401b038111610f7357610c73903690600401613e05565b91610c7c6146dd565b8051926001600160401b038411610f5f57610c98600d54613c0f565b601f8111610f11575b50602093601f8111600114610e915783948192939491610e86575b508160011b915f199060031b1c191617600d555b80516001600160401b038111610e7257610ceb600e54613c0f565b601f8111610e24575b506020601f8211600114610d7c57610d5d92827f9e771d8c51ac52b04ab2fe084b01eabd5d8e1c6fc207db7e2e8671c5a136fbd99593610d6b938891610d71575b508160011b915f199060031b1c191617600e555b604051938493604085526040850190613b7b565b908382036020850152613b7b565b0390a180f35b90508201515f610d35565b600e85527fbb7b4a454dc3493923482f07822329ed19e8244eff582cc204f8554c3620c3fd90601f198316865b818110610e0c575083610d6b93610d5d96937f9e771d8c51ac52b04ab2fe084b01eabd5d8e1c6fc207db7e2e8671c5a136fbd9989660019410610df4575b5050811b01600e55610d49565b8401515f1960f88460031b161c191690555f80610de7565b91926020600181928689015181550194019201610da9565b600e8552610e6c907fbb7b4a454dc3493923482f07822329ed19e8244eff582cc204f8554c3620c3fd601f840160051c810191602085106109b857601f0160051c019061408b565b5f610cf4565b634e487b7160e01b84526041600452602484fd5b90508301515f610cbc565b600d8452601f198116947fd7b6990105719101dabeb77144f2a3385c8033acd3af97e9423a695e81ad1eb590855b878110610ef957508260019495969710610ee1575b5050811b01600d55610cd0565b8501515f1960f88460031b161c191690555f80610ed4565b90916020600181928589015181550193019101610ebf565b600d8452610f59907fd7b6990105719101dabeb77144f2a3385c8033acd3af97e9423a695e81ad1eb5601f870160051c810191602088106109b857601f0160051c019061408b565b5f610ca1565b634e487b7160e01b83526041600452602483fd5b5080fd5b50346103645780600319360112610364576017546040516001600160a01b039091168152602090f35b503461036457604036600319011261036457610fcc610fbd613aff565b610fc5613b15565b9250613bd7565b9060018060a01b03165f52602052602060ff60405f2054166040519015158152f35b503461036457806003193601126103645761101e61100a613c68565b604051918291602083526020830190613b7b565b0390f35b50346103645780600319360112610364576007546040516001600160a01b039091168152602090f35b50346103645780600319360112610364576040519080600b549061106e82613c0f565b80855291600181169081156110e05750600114611096575b61101e8461100a81860382613c47565b600b81525f80516020614d1a833981519152939250905b8082106110c65750909150810160200161100a82611086565b9192600181602092548385880101520191019092916110ad565b60ff191660208087019190915292151560051b8501909201925061100a9150839050611086565b503461036457806003193601126103645760405190806018549061112a82613c0f565b80855291600181169081156110e057506001146111515761101e8461100a81860382613c47565b601881525f80516020614cba833981519152939250905b8082106111815750909150810160200161100a82611086565b919260018160209254838588010152019101909291611168565b5034610364576040366003190112610364576111b5613aff565b6001600160a01b03168152601560205260408120805460243592908310156103645760206111e38484613e33565b90549060031b1c604051908152f35b50346103645760203660031901126103645761101e61100a6004356140a1565b503461036457806003193601126103645760405190806019549061123582613c0f565b80855291600181169081156110e0575060011461125c5761101e8461100a81860382613c47565b601981525f80516020614e1a833981519152939250905b80821061128c5750909150810160200161100a82611086565b919260018160209254838588010152019101909291611273565b50346103645780600319360112610364576040519080600f54906112c982613c0f565b80855291600181169081156110e057506001146112f05761101e8461100a81860382613c47565b600f81525f80516020614dda833981519152939250905b8082106113205750909150810160200161100a82611086565b919260018160209254838588010152019101909291611307565b5034610364578060031936011261036457602060405162278d008152f35b503461036457806003193601126103645760405190806012549061137b82613c0f565b80855291600181169081156110e057506001146113a25761101e8461100a81860382613c47565b601281525f80516020614c1a833981519152939250905b8082106113d25750909150810160200161100a82611086565b9192600181602092548385880101520191019092916113b9565b503461036457608036600319011261036457611406613aff565b61140e613b15565b90604435606435926001600160401b038411610baa5736602385011215610baa57611446610bf6943690602481600401359101613dcf565b92611452838383613e74565b6149d1565b50346103645780600319360112610364576004546040516001600160a01b039091168152602090f35b50346116835760203660031901126116835761149a613e23565b6114a2614710565b601354604051634c6681e160e01b815233600482015290602090829060249082906001600160a01b03165afa908115611678575f91611793575b506301c9c3808110611781575f9060ff5f54936114f88561404e565b5f556115048533614777565b1691600383036116fd5750630393870090835f52600a60205260405f20600360ff198254161790555b81811061169b5760018060a01b036013541682820391821161168757803b156116835760405163a59d02cd60e01b815233600482015260248101929092525f908290604490829084905af1801561167857611663575b5033808552601460209081526040808720869055858752601c825280872080546001600160a01b031916841790559186526015905284208054946801000000000000000086101561164f5750846115e09160018697018155613e33565b81549060031b9085821b915f19901b191617905560405191825260208201524260408201527fc60a5c3110a02ecfb1d3e6b142398b2967f11d9396f1f42100e2ca3274edc9a360603392a360015f80516020614d3a833981519152819055604080519182526020820192909252f35b634e487b7160e01b81526041600452602490fd5b6116709194505f90613c47565b5f925f611583565b6040513d5f823e3d90fd5b5f80fd5b634e487b7160e01b5f52601160045260245ffd5b60405162461bcd60e51b815260206004820152603460248201527f4e66744d616e61676572206d696e74426f6f737465724e46543a2046697368636044820152730c2d6ca40e0deeecae440dcdee840cadcdeeaced60631b6064820152608490fd5b6004830361172957506311e1a30090835f52600a60205260405f20600460ff198254161790555b61152d565b600583036117545750632faf080090835f52600a60205260405f20600560ff1982541617905561152d565b9060068303611724575f848152600a60205260409020805460ff191660061790556359682f00915061152d565b6350de287360e11b5f5260045260245ffd5b90506020813d6020116117bd575b816117ae60209383613c47565b8101031261168357515f6114dc565b3d91506117a1565b34611683575f366003190112611683576016546040516001600160a01b039091168152602090f35b34611683575f366003190112611683576006546040516001600160a01b039091168152602090f35b346116835760403660031901126116835761182e613aff565b60243590811515809203611683576001600160a01b031690811561189a5761185533613bd7565b825f5260205260405f2060ff1981541660ff83161790556040519081527f17307eab39ab6107e8899845ad3d59bd9653f200f220920489ca2b5937696c3160203392a3005b50630b61174360e31b5f5260045260245ffd5b34611683576040366003190112611683576004356024356118cc6146dd565b816002558060035560405191825260208201527f606bc42962399672a7f4089c08b1af4d207c5ff123b0c5e3e35aa03decb13fb860403392a2005b34611683575f36600319011261168357611922600e54613c0f565b156119325761101e61100a613d1f565b6040515f5f80516020614dfa8339815191525461194e81613c0f565b80845290600181169081156119e6575060011461197c575b50906119778161101e930382613c47565b61100a565b5f80516020614dfa8339815191525f9081527ff4bad0a69248f59680a4f2b3000328cec71a413447c96781cfe5996daa8c456e939250905b8082106119cc57509091508101602001611977611966565b9192600181602092548385880101520191019092916119b4565b60ff191660208086019190915291151560051b840190910191506119779050611966565b34611683575f3660031901126116835760206040516305f5e1008152f35b34611683575f366003190112611683576040515f601054611a4881613c0f565b8084529060018116908115611abb5750600114611a70575b61101e8361100a81850382613c47565b60105f9081525f80516020614d5a833981519152939250905b808210611aa15750909150810160200161100a611a60565b919260018160209254838588010152019101909291611a89565b60ff191660208086019190915291151560051b8401909101915061100a9050611a60565b34611683576020366003190112611683576001600160a01b03611b00613aff565b165f526009602052602060405f2054604051908152f35b34611683575f366003190112611683575f80516020614c5a833981519152546040516001600160a01b039091168152602090f35b34611683575f366003190112611683576040515f601154611b6b81613c0f565b8084529060018116908115611abb5750600114611b925761101e8361100a81850382613c47565b60115f9081525f80516020614c7a833981519152939250905b808210611bc35750909150810160200161100a611a60565b919260018160209254838588010152019101909291611bab565b34611683575f36600319011261168357602060405165b5e620f480008152f35b34611683575f366003190112611683576020600354604051908152f35b34611683575f366003190112611683576020604051633b9aca008152f35b34611683576020366003190112611683576004356001600160401b03811161168357611c68903690600401613e05565b611c706146dd565b80516001600160401b038111611dd657611c8b600154613c0f565b601f8111611d88575b50806020601f8211600114611d06575f91611cfb575b508160011b915f199060031b1c1916176001555b7f8aed2472df7eda2618a927a1e73256d01e814a5b03b0fff4931cc2774e39b0c66040516020815280611cf633946020830190613b7b565b0390a2005b905082015183611caa565b60015f9081527fb10e2d527612073b26eecdfd717e6a320cf44b4afac2b0732d9fcbe2b7fa0cf69250601f198416905b818110611d7057509083600194939210611d58575b5050811b01600155611cbe565b8401515f1960f88460031b161c191690558380611d4b565b91926020600181928689015181550194019201611d36565b60015f52611dd0907fb10e2d527612073b26eecdfd717e6a320cf44b4afac2b0732d9fcbe2b7fa0cf6601f840160051c810191602085106109b857601f0160051c019061408b565b82611c94565b634e487b7160e01b5f52604160045260245ffd5b34611683575f366003190112611683576020600254604051908152f35b3461168357606036600319011261168357611e20613aff565b611e28613b15565b90611e31613b2b565b90611e3a6146dd565b611e45600f54613c0f565b601f81116123f5575b50604b600f55600f5f527f68747470733a2f2f7777772e6669736863616b652e6f72672f696d6167652f335f80516020614dda8339815191525564173539b7b760d91b7f8d1108e10bcb7c27dddfc02ed9d693a074039d026cf4ea4240b40f7d581ac80355611ebe601054613c0f565b601f81116123ac575b50604b60105560105f527f68747470733a2f2f7777772e6669736863616b652e6f72672f696d6167652f345f80516020614d5a8339815191525564173539b7b760d91b7f1b6847dc741a1b0cd08d278845f9d819d87b734759afb55fe2de5cb82a9ae67355611f37601154613c0f565b601f8111612363575b50604b60115560115f527f68747470733a2f2f7777772e6669736863616b652e6f72672f696d6167652f355f80516020614c7a8339815191525564173539b7b760d91b7f31ecc21a745e3968a04e9570e4425bc18fa8019c68028196b546d1669c200c6955611fb0601254613c0f565b601f811161231a575b50604b60125560125f527f68747470733a2f2f7777772e6669736863616b652e6f72672f696d6167652f365f80516020614c1a8339815191525564173539b7b760d91b7fbb8a6a4669ba250d26cd7a459eca9d215f8307e33aebe50379bc5a3617ec344555612029601854613c0f565b601f81116122d1575b50604d60185560185f525f80516020614dba8339815191525f80516020614cba833981519152556519973539b7b760d11b7fb13d2d76d1f4b7be834882e410b3e3a8afaf69f83600ae24db354391d2378d2f55612090601954613c0f565b601f8111612288575b50604d60195560195f525f80516020614dba8339815191525f80516020614e1a83398151915255651a173539b7b760d11b7f944998273e477b495144fb8794c914197f3ccb46be2900f4698fd0ef743c9696556120f7601a54613c0f565b601f811161223f575b50604d601a55601a5f525f80516020614dba8339815191525f80516020614cda83398151915255651a973539b7b760d11b7f057c384a7d1c54f3a1b2e5e67b2617b8224fdfd1ea7234eea573a6ff665ff63f5561215e601b54613c0f565b601f81116121f6575b50604d601b555f80516020614dba8339815191525f80516020614c9a83398151915255651b173539b7b760d11b7f3ad8aa4f87544323a9d1e5dd902f40c356527a7955687113db5f9a85ad579dc255601380546001600160a01b03199081166001600160a01b039384161790915560178054821693831693909317909255601680549092169216919091179055005b601b5f5261223990601f0160051c5f80516020614c9a833981519152017f3ad8aa4f87544323a9d1e5dd902f40c356527a7955687113db5f9a85ad579dc361408b565b83612167565b601a5f5261228290601f0160051c5f80516020614cda833981519152017f057c384a7d1c54f3a1b2e5e67b2617b8224fdfd1ea7234eea573a6ff665ff64061408b565b83612100565b60195f526122cb90601f0160051c5f80516020614e1a833981519152017f944998273e477b495144fb8794c914197f3ccb46be2900f4698fd0ef743c969761408b565b83612099565b60185f5261231490601f0160051c5f80516020614cba833981519152017fb13d2d76d1f4b7be834882e410b3e3a8afaf69f83600ae24db354391d2378d3061408b565b83612032565b60125f5261235d90601f0160051c5f80516020614c1a833981519152017fbb8a6a4669ba250d26cd7a459eca9d215f8307e33aebe50379bc5a3617ec344661408b565b83611fb9565b60115f526123a690601f0160051c5f80516020614c7a833981519152017f31ecc21a745e3968a04e9570e4425bc18fa8019c68028196b546d1669c200c6a61408b565b83611f40565b60105f526123ef90601f0160051c5f80516020614d5a833981519152017f1b6847dc741a1b0cd08d278845f9d819d87b734759afb55fe2de5cb82a9ae67461408b565b83611ec7565b600f5f5261243890601f0160051c5f80516020614dda833981519152017f8d1108e10bcb7c27dddfc02ed9d693a074039d026cf4ea4240b40f7d581ac80461408b565b83611e4e565b34611683575f366003190112611683576124566146dd565b5f80516020614c5a83398151915280546001600160a01b031981169091555f906001600160a01b03167f8be0079c531659141344cd1fd0a4f28419497f9722a3daafe3b4186f6b6457e08280a3005b34611683576020366003190112611683576124be613aff565b6001600160a01b038116156124e1576124d8602091613b9f565b54604051908152f35b6322718ad960e21b5f525f60045260245ffd5b346116835760403660031901126116835761250d613aff565b6017546001600160a01b031633036125ce576024355f908152601c60205260409020546001600160a01b039182169116819003612597575f52601460205260405f205460038110158061258c575b61256157005b5f52600a60205260405f20600a60ff8254160160ff81116116875760ff1660ff198254161790555f80f35b50600681111561255b565b60405162461bcd60e51b815260206004820152600f60248201526e125b9d985b1a59081d1bdad95b9259608a1b6044820152606490fd5b60405162461bcd60e51b815260206004820152603860248201527f4d6573736167654d616e616765723a206f6e6c79207374616b696e67206d616e60448201527f616765722063616e20646f2074686973206f70657261746500000000000000006064820152608490fd5b34611683575f366003190112611683576040515f600c5461265981613c0f565b8084529060018116908115611abb57506001146126805761101e8361100a81850382613c47565b600c5f9081525f80516020614bfa833981519152939250905b8082106126b15750909150810160200161100a611a60565b919260018160209254838588010152019101909291612699565b346116835760203660031901126116835760206126e9600435614748565b6040516001600160a01b039091168152f35b34611683575f366003190112611683576040515f60015461271b81613c0f565b8084529060018116908115611abb57506001146127425761101e8361100a81850382613c47565b60015f9081527fb10e2d527612073b26eecdfd717e6a320cf44b4afac2b0732d9fcbe2b7fa0cf6939250905b8082106127865750909150810160200161100a611a60565b91926001816020925483858801015201910190929161276e565b34611683576040366003190112611683576127b9613e23565b6024356001600160401b038111611683576127da60ff913690600401613e05565b916127e36146dd565b1660018114808015612a95575b15612a5d57156129385781516001600160401b038111611dd657612815600c54613c0f565b601f81116128fd575b506020601f82116001146128815790805f80516020614cfa83398151915293925f91612876575b508160011b915f199060031b1c191617600c555b6040519081526040602082015280611cf633946040830190613b7b565b905084015185612845565b601f19821690600c5f525f80516020614bfa833981519152915f5b8181106128e557509183915f80516020614cfa8339815191529594600194106128cd575b5050811b01600c55612859565b8601515f1960f88460031b161c1916905585806128c0565b9192602060018192868a01518155019401920161289c565b600c5f52612932905f80516020614bfa833981519152601f840160051c810191602085106109b857601f0160051c019061408b565b8361281e565b81516001600160401b038111611dd657612953600b54613c0f565b601f8111612a22575b506020601f82116001146129a65790805f80516020614cfa83398151915293925f9161299b575b508160011b915f199060031b1c191617600b55612859565b905084015185612983565b601f19821690600b5f525f80516020614d1a833981519152915f5b818110612a0a57509183915f80516020614cfa8339815191529594600194106129f2575b5050811b01600b55612859565b8601515f1960f88460031b161c1916905585806129e5565b9192602060018192868a0151815501940192016129c1565b600b5f52612a57905f80516020614d1a833981519152601f840160051c810191602085106109b857601f0160051c019061408b565b8361295c565b60405162461bcd60e51b815260206004820152601060248201526f496e76616c6964204e4654207479706560801b6044820152606490fd5b50600282146127f0565b3461168357602036600319011261168357612ab8613aff565b5f80516020614d9a8339815191525460ff8160401c168015612b4f575b612b405760059160018060a01b03166001600160601b0360a01b601754161760175568ffffffffffffffffff1916175f80516020614d9a833981519152557fc7f505b2f371ae2175ee4913f4499e1f2633a7b5936321eed1cdaeb6115181d2602060405160058152a1005b63f92ee8a960e01b5f5260045ffd5b5060056001600160401b0382161015612ad5565b34611683576040366003190112611683576004356001600160a01b0381169081900361168357602435612b946146dd565b612b9c614710565b8115612c6357478111612c0257817f884edad9ce6fa2440d8a54cc123490eb96d2768479d49ff9c7366125a942436460205f8080808785995af193612bdf61405c565b50604051908152a260015f80516020614d3a833981519152556040519015158152f35b60405162461bcd60e51b815260206004820152603360248201527f4e66744d616e616765722077697468647261774e6174697665546f6b656e3a206044820152722130b630b731b2903737ba1032b737bab3b41760691b6064820152608490fd5b60405162461bcd60e51b815260206004820152603860248201527f4e66744d616e616765722077697468647261774e6174697665546f6b656e3a2060448201527f726563697069656e742061646472657373206572726f722e00000000000000006064820152608490fd5b34611683575f3660031901126116835760205f54604051908152f35b34611683575f366003190112611683576040515f601b54612d0a81613c0f565b8084529060018116908115611abb5750600114612d315761101e8361100a81850382613c47565b601b5f9081525f80516020614c9a833981519152939250905b808210612d625750909150810160200161100a611a60565b919260018160209254838588010152019101909291612d4a565b34611683576020366003190112611683576001600160a01b03612d9d613aff565b165f526014602052602060405f2054604051908152f35b346116835760e0366003190112611683576004356001600160401b03811161168357612de4903690600401613e05565b6024356001600160401b03811161168357612e03903690600401613e05565b906044356001600160401b03811161168357612e23903690600401613e05565b906064356001600160401b03811161168357612e43903690600401613e05565b6084356001600160401b03811161168357612e62903690600401613e05565b9060a4356001600160401b03811161168357612e82903690600401613e05565b60c4359260ff841680940361168357612e99614710565b6001841492838015613467575b156133cb57600254801515806133c0575b1561334957841561333f57965b62278d0042019485421161168757156131e857600754604051636eb1769f60e11b815233600482015230602482015290602090829060449082906001600160a01b03165afa908115611678575f916131b6575b506002541161314b57335f5260086020528460405f20555f602060018060a01b036006541660446040518094819363a9059cbb60e01b8352336004840152633b9aca0060248401525af180156116785761311c575b505b6007546040516323b872dd60e01b602082015233602482015230604482015260648082018b90528152612fb4916001600160a01b0316612faf608483613c47565b614b05565b6007546004546001600160a01b03918216911660198a8102908b8204148b1517156116875760405163a9059cbb60e01b60208201526001600160a01b0392909216602483015260649081900460448084019190915282526130159082613c47565b61301e91614b05565b5f549861302a8a61404e565b5f556130368a33614777565b895f52600a60205260405f208760ff19825416179055604051978a8952602089016101409052610140890161306a91613b7b565b88810360408a015261307b91613b7b565b878103606089015261308c91613b7b565b868103608088015261309d91613b7b565b85810360a08701526130ae91613b7b565b84810360c08601526130bf91613b7b565b9360e0840152610100830152610120820152803392037f2f07f1d4b070b2c0047f7ddd468bfd61a682b1ad5553c708a1fa6023812e088891a260015f80516020614d3a833981519152819055604080519182526020820192909252f35b61313d9060203d602011613144575b6131358183613c47565b810190613e5c565b5089612f6c565b503d61312b565b60405162461bcd60e51b815260206004820152603c60248201527f4e66744d616e61676572206372656174654e46543a204d65726368616e74206160448201527f6c6c6f77616e6365206d757374206d6f7265207468616e2038302055000000006064820152608490fd5b90506020813d6020116131e0575b816131d160209383613c47565b8101031261168357518a612f17565b3d91506131c4565b600754604051636eb1769f60e11b815233600482015230602482015290602090829060449082906001600160a01b03165afa908115611678575f9161330d575b50600354116132a257335f5260096020528460405f20555f602060018060a01b036006541660446040518094819363a9059cbb60e01b83523360048401526305f5e10060248401525af1801561167857613283575b50612f6e565b61329b9060203d602011613144576131358183613c47565b508961327d565b60405162461bcd60e51b815260206004820152603760248201527f4e66744d616e61676572206372656174654e46543a205573657220616c6c6f7760448201527f616e6365206d757374206d6f7265207468616e203820550000000000000000006064820152608490fd5b90506020813d602011613337575b8161332860209383613c47565b8101031261168357518a613228565b3d915061331b565b5060035496612ec4565b60405162461bcd60e51b815260206004820152604360248201527f4e66744d616e61676572206372656174654e46543a204d65726368616e74566160448201527f6c756520616e64205573657256616c7565206d757374206265207365742066696064820152621c9cdd60ea1b608482015260a490fd5b506003541515612eb7565b60405162461bcd60e51b815260206004820152606260248201527f4e66744d616e61676572206372656174654e46543a20747970652063616e206f60448201527f6e6c7920657175616c203120616e6420322c2031207374616e6420666f72206d60648201527f65726368616e742c2032207374616e6420666f7220706572736f6e616c20757360848201526132b960f11b60a482015260c490fd5b5060028514612ea6565b34611683576134a061348236613b41565b9060405192613492602085613c47565b5f8452611452838383613e74565b005b3461168357602036600319011261168357602460206001600160a01b036134c7613aff565b16604051928380926370a0823160e01b82523060048301525afa8015611678575f906134f9575b602090604051908152f35b506020813d602011613524575b8161351360209383613c47565b8101031261168357602090516134ee565b3d9150613506565b34611683576020366003190112611683576001600160a01b0361354d613aff565b165f526008602052602060405f2054604051908152f35b34611683576020366003190112611683576004355f52600a602052602060ff60405f205416604051908152f35b34611683576134a06135a236613b41565b91613e74565b34611683575f366003190112611683576040515f601a546135c881613c0f565b8084529060018116908115611abb57506001146135ef5761101e8361100a81850382613c47565b601a5f9081525f80516020614cda833981519152939250905b8082106136205750909150810160200161100a611a60565b919260018160209254838588010152019101909291613608565b346116835760203660031901126116835761101e61100a6004356140a1565b34611683575f3660031901126116835761101e61100a613d1f565b346116835760403660031901126116835761368d613aff565b60243561369981614748565b3315158061374d575b8061372a575b6137175781906001600160a01b0384811691167f8c5be1e5ebec7d5bd14f71427d1e84f3dd0314c0f7b2291e5b200ac8c7c3b9255f80a45f9081525f80516020614d7a8339815191526020526040902080546001600160a01b0319166001600160a01b03909216919091179055005b63a9fbf51f60e01b5f523360045260245ffd5b5061373481613bd7565b335f908152602091909152604090205460ff16156136a8565b506001600160a01b0381163314156136a2565b346116835760203660031901126116835760206126e960043561378281614748565b505f9081525f80516020614d7a83398151915260205260409020546001600160a01b031690565b34611683575f366003190112611683576137c4600d54613c0f565b156137d45761101e61100a613c68565b6040515f5f80516020614c3a833981519152546137f081613c0f565b80845290600181169081156119e657506001146138185750906119778161101e930382613c47565b5f80516020614c3a8339815191525f9081527f37c58c799b6609234b945e882912ee9ad34948a1dfaa20a97485e1a7752bbf81939250905b80821061386857509091508101602001611977611966565b919260018160209254838588010152019101909291613850565b346116835760203660031901126116835760043563ffffffff60e01b811680910361168357602090632483248360e11b81149081156138c7575b506040519015158152f35b6380ac58cd60e01b8114915081156138f9575b81156138e8575b50826138bc565b6301ffc9a760e01b149050826138e1565b635b5e139f60e01b811491506138da565b346116835761391836613b41565b916139216146dd565b613929614710565b6001600160a01b0316908115613aa4576040516370a0823160e01b8152306004820152602081602481865afa80156116785784915f91613a6f575b5010613a145760405163a9059cbb60e01b81526001600160a01b0382166004820152602481018490526020816044815f875af18015611678576139f7575b506040519283526001600160a01b03169133907ff314360eddb258cb001ab9dd025a30d7be229f08113f1e5617a7f82a00e0e78f90602090a460015f80516020614d3a83398151915255602060405160018152f35b613a0f9060203d602011613144576131358183613c47565b6139a2565b60405162461bcd60e51b815260206004820152602d60248201527f4e66744d616e61676572207769746864726177546f6b656e3a2042616c616e6360448201526c32903737ba1032b737bab3b41760991b6064820152608490fd5b9150506020813d602011613a9c575b81613a8b60209383613c47565b810103126116835783905185613964565b3d9150613a7e565b60405162461bcd60e51b815260206004820152602d60248201527f4e66744d616e61676572207769746864726177546f6b656e3a746f6b656e206160448201526c32323932b9b99032b93937b91760991b6064820152608490fd5b600435906001600160a01b038216820361168357565b602435906001600160a01b038216820361168357565b604435906001600160a01b038216820361168357565b6060906003190112611683576004356001600160a01b038116810361168357906024356001600160a01b0381168103611683579060443590565b805180835260209291819084018484015e5f828201840152601f01601f1916010190565b6001600160a01b03165f9081527f80bb2b638cc20bc4d0a60d66940f3ab4a00c1d7b313497ca82fb0b4ab00793036020526040902090565b6001600160a01b03165f9081527f80bb2b638cc20bc4d0a60d66940f3ab4a00c1d7b313497ca82fb0b4ab00793056020526040902090565b90600182811c92168015613c3d575b6020831014613c2957565b634e487b7160e01b5f52602260045260245ffd5b91607f1691613c1e565b90601f801991011681019081106001600160401b03821117611dd657604052565b604051905f82600d5491613c7b83613c0f565b8083529260018116908115613d005750600114613ca1575b613c9f92500383613c47565b565b50600d5f90815290917fd7b6990105719101dabeb77144f2a3385c8033acd3af97e9423a695e81ad1eb55b818310613ce4575050906020613c9f92820101613c93565b6020919350806001915483858901015201910190918492613ccc565b60209250613c9f94915060ff191682840152151560051b820101613c93565b604051905f82600e5491613d3283613c0f565b8083529260018116908115613d005750600114613d5557613c9f92500383613c47565b50600e5f90815290917fbb7b4a454dc3493923482f07822329ed19e8244eff582cc204f8554c3620c3fd5b818310613d98575050906020613c9f92820101613c93565b6020919350806001915483858901015201910190918492613d80565b6001600160401b038111611dd657601f01601f191660200190565b929192613ddb82613db4565b91613de96040519384613c47565b829481845281830111611683578281602093845f960137010152565b9080601f8301121561168357816020613e2093359101613dcf565b90565b6004359060ff8216820361168357565b8054821015613e48575f5260205f2001905f90565b634e487b7160e01b5f52603260045260245ffd5b90816020910312611683575180151581036116835790565b9091906001600160a01b038316801561403b5782613e9181614acc565b9133151580613f88575b506001600160a01b03831695613eb59087613f4c57613b9f565b60018154019055815f527f80bb2b638cc20bc4d0a60d66940f3ab4a00c1d7b313497ca82fb0b4ab007930260205260405f20816001600160601b0360a01b825416179055857fddf252ad1be2c89b69c2b068fc378daa952ba7f163c4a11628f55a4df523b3ef5f80a4506001600160a01b0316808303613f3457505050565b6364283d7b60e01b5f5260045260245260445260645ffd5b5f8481525f80516020614d7a8339815191526020526040902080546001600160a01b0319169055613f7c85613b9f565b80545f19019055613b9f565b90915080613fd5575b15613f9e5783905f613e9b565b836001600160a01b038316613fbf57637e27328960e01b5f5260045260245ffd5b63177e802f60e01b5f523360045260245260445ffd5b506001600160a01b03821633148015614019575b80613f9157505f8481525f80516020614d7a83398151915260205260409020546001600160a01b03163314613f91565b5061402382613bd7565b335f908152602091909152604090205460ff16613fe9565b633250574960e11b5f525f60045260245ffd5b5f1981146116875760010190565b3d15614086573d9061406d82613db4565b9161407b6040519384613c47565b82523d5f602084013e565b606090565b818110614096575050565b5f815560010161408b565b6001600160a01b036140b282614acc565b1615614655575f52600a60205260ff60405f205416600181145f146141725750604051600c54815f6140e383613c0f565b80835292600181169081156141535750600114614107575b613e2092500382613c47565b50600c5f90815290915f80516020614bfa8339815191525b818310614137575050906020613e20928201016140fb565b602091935080600191548385880101520191019091839261411f565b60209250613e2094915060ff191682840152151560051b8201016140fb565b600281036141fb5750604051600b54815f61418c83613c0f565b808352926001811690811561415357506001146141af57613e2092500382613c47565b50600b5f90815290915f80516020614d1a8339815191525b8183106141df575050906020613e20928201016140fb565b60209193508060019154838588010152019101909183926141c7565b600381036142845750604051600f54815f61421583613c0f565b8083529260018116908115614153575060011461423857613e2092500382613c47565b50600f5f90815290915f80516020614dda8339815191525b818310614268575050906020613e20928201016140fb565b6020919350806001915483858801015201910190918392614250565b6004810361430d5750604051601054815f61429e83613c0f565b808352926001811690811561415357506001146142c157613e2092500382613c47565b5060105f90815290915f80516020614d5a8339815191525b8183106142f1575050906020613e20928201016140fb565b60209193508060019154838588010152019101909183926142d9565b600581036143965750604051601154815f61432783613c0f565b8083529260018116908115614153575060011461434a57613e2092500382613c47565b5060115f90815290915f80516020614c7a8339815191525b81831061437a575050906020613e20928201016140fb565b6020919350806001915483858801015201910190918392614362565b6006810361441f5750604051601254815f6143b083613c0f565b808352926001811690811561415357506001146143d357613e2092500382613c47565b5060125f90815290915f80516020614c1a8339815191525b818310614403575050906020613e20928201016140fb565b60209193508060019154838588010152019101909183926143eb565b600d81036144a85750604051601854815f61443983613c0f565b8083529260018116908115614153575060011461445c57613e2092500382613c47565b5060185f90815290915f80516020614cba8339815191525b81831061448c575050906020613e20928201016140fb565b6020919350806001915483858801015201910190918392614474565b600e81036145315750604051601954815f6144c283613c0f565b808352926001811690811561415357506001146144e557613e2092500382613c47565b5060195f90815290915f80516020614e1a8339815191525b818310614515575050906020613e20928201016140fb565b60209193508060019154838588010152019101909183926144fd565b600f81036145ba5750604051601a54815f61454b83613c0f565b8083529260018116908115614153575060011461456e57613e2092500382613c47565b50601a5f90815290915f80516020614cda8339815191525b81831061459e575050906020613e20928201016140fb565b6020919350806001915483858801015201910190918392614586565b60100361464157604051601b54815f6145d283613c0f565b808352926001811690811561415357506001146145f557613e2092500382613c47565b50601b5f90815290915f80516020614c9a8339815191525b818310614625575050906020613e20928201016140fb565b602091935080600191548385880101520191019091839261460d565b60405161464f602082613c47565b5f815290565b60405162461bcd60e51b815260206004820152602f60248201527f4552433732314d657461646174613a2055524920717565727920666f72206e6f60448201526e3732bc34b9ba32b73a103a37b5b2b760891b6064820152608490fd5b6001600160a01b038116156146ca57613c9f9061497d565b631e4fbdf760e01b5f525f60045260245ffd5b5f80516020614c5a833981519152546001600160a01b031633036146fd57565b63118cdaa760e01b5f523360045260245ffd5b60025f80516020614d3a83398151915254146147395760025f80516020614d3a83398151915255565b633ee5aeb560e01b5f5260045ffd5b61475181614acc565b906001600160a01b03821615614765575090565b637e27328960e01b5f5260045260245ffd5b90602090604051906147898383613c47565b5f82526001600160a01b03841693841561403b576147a682614acc565b6001600160a01b03811680151591908490889084614941575b6147c886613b9f565b805460010190555f8381527f80bb2b638cc20bc4d0a60d66940f3ab4a00c1d7b313497ca82fb0b4ab00793028a526040812080546001600160a01b031916841790557fddf252ad1be2c89b69c2b068fc378daa952ba7f163c4a11628f55a4df523b3ef9080a45061492e573b61483f575b50505050565b9161487c91819495936040519384928392630a85bd0160e11b84523360048501525f60248501526044840152608060648401526084830190613b7b565b03815f885af15f91816148ee575b506148b757505061489961405c565b805191826148b45783633250574960e11b5f5260045260245ffd5b01fd5b909291506001600160e01b03191663757a42ff60e11b016148dc57505f808080614839565b633250574960e11b5f5260045260245ffd5b9091508381813d8311614927575b6149068183613c47565b8101031261168357516001600160e01b03198116810361168357905f61488a565b503d6148fc565b6339e3563760e11b5f525f60045260245ffd5b5f8381525f80516020614d7a8339815191526020526040902080546001600160a01b031916905561497184613b9f565b80545f190190556147bf565b5f80516020614c5a83398151915280546001600160a01b039283166001600160a01b0319821681179092559091167f8be0079c531659141344cd1fd0a4f28419497f9722a3daafe3b4186f6b6457e05f80a3565b9291813b6149df5750505050565b604051630a85bd0160e11b81523360048201526001600160a01b0394851660248201526044810191909152608060648201529216919060209082908190614a2a906084830190613b7b565b03815f865af15f9181614a87575b50614a665750614a4661405c565b80519081614a615782633250574960e11b5f5260045260245ffd5b602001fd5b6001600160e01b03191663757a42ff60e11b016148dc57505f808080614839565b9091506020813d602011614ac4575b81614aa360209383613c47565b8101031261168357516001600160e01b03198116810361168357905f614a38565b3d9150614a96565b5f9081527f80bb2b638cc20bc4d0a60d66940f3ab4a00c1d7b313497ca82fb0b4ab007930260205260409020546001600160a01b031690565b5f80614b2d9260018060a01b03169360208151910182865af1614b2661405c565b9083614b9b565b8051908115159182614b55575b5050614b435750565b635274afe760e01b5f5260045260245ffd5b614b689250602080918301019101613e5c565b155f80614b3a565b60ff5f80516020614d9a8339815191525460401c1615614b8c57565b631afcd79f60e31b5f5260045ffd5b90614bbf5750805115614bb057805190602001fd5b630a12f52160e11b5f5260045ffd5b81511580614bf0575b614bd0575090565b639996b31560e01b5f9081526001600160a01b0391909116600452602490fd5b50803b15614bc856fedf6966c971051c3d54ec59162606531493a51404a002842f56009d7e5cf4a8c7bb8a6a4669ba250d26cd7a459eca9d215f8307e33aebe50379bc5a3617ec344480bb2b638cc20bc4d0a60d66940f3ab4a00c1d7b313497ca82fb0b4ab00793009016d09d72d40fdae2fd8ceac6b6234c7706214fd39c1cd1e609a0528c19930031ecc21a745e3968a04e9570e4425bc18fa8019c68028196b546d1669c200c683ad8aa4f87544323a9d1e5dd902f40c356527a7955687113db5f9a85ad579dc1b13d2d76d1f4b7be834882e410b3e3a8afaf69f83600ae24db354391d2378d2e057c384a7d1c54f3a1b2e5e67b2617b8224fdfd1ea7234eea573a6ff665ff63ec837f8e8f6dc2319b0a6ea1224339706be17cdfb378eb073dcfe2b7ebb50d36a0175b7a638427703f0dbe7bb9bbf987a2551717b34e79f33b5b1008d1fa01db99b779b17422d0df92223018b32b4d1fa46e071723d6817e2486d003becc55f001b6847dc741a1b0cd08d278845f9d819d87b734759afb55fe2de5cb82a9ae67280bb2b638cc20bc4d0a60d66940f3ab4a00c1d7b313497ca82fb0b4ab0079304f0c57e16840df040f15088dc2f81fe391c3923bec73e23a9662efc9c229c6a0068747470733a2f2f7777772e6669736863616b652e6f72672f696d6167652f318d1108e10bcb7c27dddfc02ed9d693a074039d026cf4ea4240b40f7d581ac80280bb2b638cc20bc4d0a60d66940f3ab4a00c1d7b313497ca82fb0b4ab0079301944998273e477b495144fb8794c914197f3ccb46be2900f4698fd0ef743c9695a264697066735822122003c0a6738313832bd25e1c8bea74ea9eaf130fb9a71c182224d51b5c45cf7d0464736f6c634300081a0033","linkReferences":{}},"methodIdentifiers":{"_customName()":"e97c46b2","_customSymbol()":"0b8e58c9","_nextTokenId()":"4a60f620","approve(address,uint256)":"095ea7b3","balanceOf(address)":"70a08231","basicMineAmt()":"94399817","basicNftJson()":"d1c64640","boosterAddress()":"a99c308b","createNFT(string,string,string,string,string,string,uint8)":"463d5059","epicSalmonNftJson()":"8a1899c9","epicSalmonNftJson_Used()":"1db1c6e6","fccTokenAddr()":"a73dd74c","feManagerAddress()":"ee653473","getActiveMinerBoosterNft(address)":"47586b9c","getApproved(uint256)":"081812fc","getMerchantNTFDeadline(address)":"39795078","getMinerBoosterNftType(uint256)":"1510f4f7","getTokenBalance(address)":"3aecd0e3","getUserNTFDeadline(address)":"8dce8b13","inActiveMinerBoosterNft(address,uint256)":"685fbb51","initialize(address,address,address,address)":"f8c8765e","initializeV5(address)":"5a023693","isApprovedForAll(address,address)":"e985e9c5","legendaryTunaNftJson()":"b98191fa","legendaryTunaNftJson_Used()":"492bcb68","merchantNftDeadline(address)":"1c2347a8","merchantValue()":"748dada1","minedAmt()":"f7859c28","minerActiveNft(address)":"07053663","minerHistoryBoosterNft(address,uint256)":"ccc885fd","mintBoosterNFT(uint8)":"ab15cff2","name()":"06fdde03","nftMintType(uint256)":"2ac8693b","nftOwner(uint256)":"fd731837","nftUpgradeInit(address,address,address)":"73df1f0f","owner()":"8da5cb5b","ownerOf(uint256)":"6352211e","proMineAmt()":"80c7fb97","proNftJson()":"680d737f","rareShrimpNftJson()":"8eb7fb32","rareShrimpNftJson_Used()":"c57aa7d7","redemptionPoolAddress()":"b6648e47","renounceOwnership()":"715018a6","safeTransferFrom(address,address,uint256)":"42842e0e","safeTransferFrom(address,address,uint256,bytes)":"b88d4fde","setApprovalForAll(address,bool)":"a22cb465","setUriPrefix(string)":"7ec4a659","setValues(uint256,uint256)":"9c3dfaf6","stakingManagerAddress()":"ea7da6ea","supportsInterface(bytes4)":"01ffc9a7","symbol()":"95d89b41","tokenURI(uint256)":"c87b56dd","tokenUsdtAddr()":"dd62df73","totalMineAmt()":"88e40a5a","transferFrom(address,address,uint256)":"23b872dd","transferOwnership(address)":"f2fde38b","uncommonFishcakeNftJson()":"bc757ceb","uncommonFishcakeNftJson_Used()":"d13aaedc","updateNameAndSymbol(string,string)":"eaf9d194","updateNftJson(uint8,string)":"5e7cc26e","uri(uint256)":"0e89341c","uriPrefix()":"62b99ad4","userNftDeadline(address)":"0ddf45df","userValue()":"8678d9d4","validTime()":"bbe44917","withdrawNativeToken(address,uint256)":"536c6bfa","withdrawToken(address,address,uint256)":"01e33667"},"storageLayout":{"storage":[{"astId":56431,"contract":"src/contracts/core/token/NftManagerV5.sol:NftManagerV5","label":"_nextTokenId","offset":0,"slot":"0","type":"t_uint256"},{"astId":56433,"contract":"src/contracts/core/token/NftManagerV5.sol:NftManagerV5","label":"uriPrefix","offset":0,"slot":"1","type":"t_string_storage"},{"astId":56435,"contract":"src/contracts/core/token/NftManagerV5.sol:NftManagerV5","label":"merchantValue","offset":0,"slot":"2","type":"t_uint256"},{"astId":56437,"contract":"src/contracts/core/token/NftManagerV5.sol:NftManagerV5","label":"userValue","offset":0,"slot":"3","type":"t_uint256"},{"astId":56464,"contract":"src/contracts/core/token/NftManagerV5.sol:NftManagerV5","label":"redemptionPoolAddress","offset":0,"slot":"4","type":"t_contract(IRedemptionPool)63445"},{"astId":56466,"contract":"src/contracts/core/token/NftManagerV5.sol:NftManagerV5","label":"minedAmt","offset":0,"slot":"5","type":"t_uint256"},{"astId":56469,"contract":"src/contracts/core/token/NftManagerV5.sol:NftManagerV5","label":"fccTokenAddr","offset":0,"slot":"6","type":"t_contract(IERC20)43717"},{"astId":56472,"contract":"src/contracts/core/token/NftManagerV5.sol:NftManagerV5","label":"tokenUsdtAddr","offset":0,"slot":"7","type":"t_contract(IERC20)43717"},{"astId":56476,"contract":"src/contracts/core/token/NftManagerV5.sol:NftManagerV5","label":"merchantNftDeadline","offset":0,"slot":"8","type":"t_mapping(t_address,t_uint256)"},{"astId":56480,"contract":"src/contracts/core/token/NftManagerV5.sol:NftManagerV5","label":"userNftDeadline","offset":0,"slot":"9","type":"t_mapping(t_address,t_uint256)"},{"astId":56484,"contract":"src/contracts/core/token/NftManagerV5.sol:NftManagerV5","label":"nftMintType","offset":0,"slot":"10","type":"t_mapping(t_uint256,t_uint8)"},{"astId":56486,"contract":"src/contracts/core/token/NftManagerV5.sol:NftManagerV5","label":"basicNftJson","offset":0,"slot":"11","type":"t_string_storage"},{"astId":56488,"contract":"src/contracts/core/token/NftManagerV5.sol:NftManagerV5","label":"proNftJson","offset":0,"slot":"12","type":"t_string_storage"},{"astId":56490,"contract":"src/contracts/core/token/NftManagerV5.sol:NftManagerV5","label":"_customName","offset":0,"slot":"13","type":"t_string_storage"},{"astId":56492,"contract":"src/contracts/core/token/NftManagerV5.sol:NftManagerV5","label":"_customSymbol","offset":0,"slot":"14","type":"t_string_storage"},{"astId":56494,"contract":"src/contracts/core/token/NftManagerV5.sol:NftManagerV5","label":"uncommonFishcakeNftJson","offset":0,"slot":"15","type":"t_string_storage"},{"astId":56496,"contract":"src/contracts/core/token/NftManagerV5.sol:NftManagerV5","label":"rareShrimpNftJson","offset":0,"slot":"16","type":"t_string_storage"},{"astId":56498,"contract":"src/contracts/core/token/NftManagerV5.sol:NftManagerV5","label":"epicSalmonNftJson","offset":0,"slot":"17","type":"t_string_storage"},{"astId":56500,"contract":"src/contracts/core/token/NftManagerV5.sol:NftManagerV5","label":"legendaryTunaNftJson","offset":0,"slot":"18","type":"t_string_storage"},{"astId":56503,"contract":"src/contracts/core/token/NftManagerV5.sol:NftManagerV5","label":"feManagerAddress","offset":0,"slot":"19","type":"t_contract(IFishcakeEventManager)63310"},{"astId":56507,"contract":"src/contracts/core/token/NftManagerV5.sol:NftManagerV5","label":"minerActiveNft","offset":0,"slot":"20","type":"t_mapping(t_address,t_uint256)"},{"astId":56512,"contract":"src/contracts/core/token/NftManagerV5.sol:NftManagerV5","label":"minerHistoryBoosterNft","offset":0,"slot":"21","type":"t_mapping(t_address,t_array(t_uint256)dyn_storage)"},{"astId":56514,"contract":"src/contracts/core/token/NftManagerV5.sol:NftManagerV5","label":"boosterAddress","offset":0,"slot":"22","type":"t_address"},{"astId":56517,"contract":"src/contracts/core/token/NftManagerV5.sol:NftManagerV5","label":"stakingManagerAddress","offset":0,"slot":"23","type":"t_contract(IStakingManager)63512"},{"astId":56519,"contract":"src/contracts/core/token/NftManagerV5.sol:NftManagerV5","label":"uncommonFishcakeNftJson_Used","offset":0,"slot":"24","type":"t_string_storage"},{"astId":56521,"contract":"src/contracts/core/token/NftManagerV5.sol:NftManagerV5","label":"rareShrimpNftJson_Used","offset":0,"slot":"25","type":"t_string_storage"},{"astId":56523,"contract":"src/contracts/core/token/NftManagerV5.sol:NftManagerV5","label":"epicSalmonNftJson_Used","offset":0,"slot":"26","type":"t_string_storage"},{"astId":56525,"contract":"src/contracts/core/token/NftManagerV5.sol:NftManagerV5","label":"legendaryTunaNftJson_Used","offset":0,"slot":"27","type":"t_string_storage"},{"astId":56529,"contract":"src/contracts/core/token/NftManagerV5.sol:NftManagerV5","label":"nftOwner","offset":0,"slot":"28","type":"t_mapping(t_uint256,t_address)"}],"types":{"t_address":{"encoding":"inplace","label":"address","numberOfBytes":"20"},"t_array(t_uint256)dyn_storage":{"encoding":"dynamic_array","label":"uint256[]","numberOfBytes":"32","base":"t_uint256"},"t_contract(IERC20)43717":{"encoding":"inplace","label":"contract IERC20","numberOfBytes":"20"},"t_contract(IFishcakeEventManager)63310":{"encoding":"inplace","label":"contract IFishcakeEventManager","numberOfBytes":"20"},"t_contract(IRedemptionPool)63445":{"encoding":"inplace","label":"contract IRedemptionPool","numberOfBytes":"20"},"t_contract(IStakingManager)63512":{"encoding":"inplace","label":"contract IStakingManager","numberOfBytes":"20"},"t_mapping(t_address,t_array(t_uint256)dyn_storage)":{"encoding":"mapping","key":"t_address","label":"mapping(address => uint256[])","numberOfBytes":"32","value":"t_array(t_uint256)dyn_storage"},"t_mapping(t_address,t_uint256)":{"encoding":"mapping","key":"t_address","label":"mapping(address => uint256)","numberOfBytes":"32","value":"t_uint256"},"t_mapping(t_uint256,t_address)":{"encoding":"mapping","key":"t_uint256","label":"mapping(uint256 => address)","numberOfBytes":"32","value":"t_address"},"t_mapping(t_uint256,t_uint8)":{"encoding":"mapping","key":"t_uint256","label":"mapping(uint256 => uint8)","numberOfBytes":"32","value":"t_uint8"},"t_string_storage":{"encoding":"bytes","label":"string","numberOfBytes":"32"},"t_uint256":{"encoding":"inplace","label":"uint256","numberOfBytes":"32"},"t_uint8":{"encoding":"inplace","label":"uint8","numberOfBytes":"1"}}},"id":93}