{
    "abi": [
        {
            "type": "constructor",
            "inputs": [
                {
                    "name": "_fccTokenAddr",
                    "type": "address",
                    "internalType": "address"
                },
                {
                    "name": "_tokenUsdtAddr",
                    "type": "address",
                    "internalType": "address"
                },
                {
                    "name": "_redemptionPoolAddress",
                    "type": "address",
                    "internalType": "address"
                }
            ],
            "stateMutability": "nonpayable"
        },
        {
            "type": "receive",
            "stateMutability": "payable"
        },
        {
            "type": "function",
            "name": "_nextTokenId",
            "inputs": [],
            "outputs": [
                {
                    "name": "",
                    "type": "uint256",
                    "internalType": "uint256"
                }
            ],
            "stateMutability": "view"
        },
        {
            "type": "function",
            "name": "approve",
            "inputs": [
                {
                    "name": "to",
                    "type": "address",
                    "internalType": "address"
                },
                {
                    "name": "tokenId",
                    "type": "uint256",
                    "internalType": "uint256"
                }
            ],
            "outputs": [],
            "stateMutability": "nonpayable"
        },
        {
            "type": "function",
            "name": "balanceOf",
            "inputs": [
                {
                    "name": "owner",
                    "type": "address",
                    "internalType": "address"
                }
            ],
            "outputs": [
                {
                    "name": "",
                    "type": "uint256",
                    "internalType": "uint256"
                }
            ],
            "stateMutability": "view"
        },
        {
            "type": "function",
            "name": "basicMineAmt",
            "inputs": [],
            "outputs": [
                {
                    "name": "",
                    "type": "uint256",
                    "internalType": "uint256"
                }
            ],
            "stateMutability": "view"
        },
        {
            "type": "function",
            "name": "createNFT",
            "inputs": [
                {
                    "name": "_businessName",
                    "type": "string",
                    "internalType": "string"
                },
                {
                    "name": "_description",
                    "type": "string",
                    "internalType": "string"
                },
                {
                    "name": "_imgUrl",
                    "type": "string",
                    "internalType": "string"
                },
                {
                    "name": "_businessAddress",
                    "type": "string",
                    "internalType": "string"
                },
                {
                    "name": "_website",
                    "type": "string",
                    "internalType": "string"
                },
                {
                    "name": "_social",
                    "type": "string",
                    "internalType": "string"
                },
                {
                    "name": "_type",
                    "type": "uint8",
                    "internalType": "uint8"
                }
            ],
            "outputs": [
                {
                    "name": "",
                    "type": "bool",
                    "internalType": "bool"
                },
                {
                    "name": "",
                    "type": "uint256",
                    "internalType": "uint256"
                }
            ],
            "stateMutability": "nonpayable"
        },
        {
            "type": "function",
            "name": "fccTokenAddr",
            "inputs": [],
            "outputs": [
                {
                    "name": "",
                    "type": "address",
                    "internalType": "contract IERC20"
                }
            ],
            "stateMutability": "view"
        },
        {
            "type": "function",
            "name": "getApproved",
            "inputs": [
                {
                    "name": "tokenId",
                    "type": "uint256",
                    "internalType": "uint256"
                }
            ],
            "outputs": [
                {
                    "name": "",
                    "type": "address",
                    "internalType": "address"
                }
            ],
            "stateMutability": "view"
        },
        {
            "type": "function",
            "name": "getMerchantNTFDeadline",
            "inputs": [
                {
                    "name": "_account",
                    "type": "address",
                    "internalType": "address"
                }
            ],
            "outputs": [
                {
                    "name": "",
                    "type": "uint256",
                    "internalType": "uint256"
                }
            ],
            "stateMutability": "view"
        },
        {
            "type": "function",
            "name": "getTokenBalance",
            "inputs": [
                {
                    "name": "tokenAddress",
                    "type": "address",
                    "internalType": "address"
                }
            ],
            "outputs": [
                {
                    "name": "",
                    "type": "uint256",
                    "internalType": "uint256"
                }
            ],
            "stateMutability": "view"
        },
        {
            "type": "function",
            "name": "getUserNTFDeadline",
            "inputs": [
                {
                    "name": "_account",
                    "type": "address",
                    "internalType": "address"
                }
            ],
            "outputs": [
                {
                    "name": "",
                    "type": "uint256",
                    "internalType": "uint256"
                }
            ],
            "stateMutability": "view"
        },
        {
            "type": "function",
            "name": "initialize",
            "inputs": [
                {
                    "name": "_initialOwner",
                    "type": "address",
                    "internalType": "address"
                }
            ],
            "outputs": [],
            "stateMutability": "nonpayable"
        },
        {
            "type": "function",
            "name": "isApprovedForAll",
            "inputs": [
                {
                    "name": "owner",
                    "type": "address",
                    "internalType": "address"
                },
                {
                    "name": "operator",
                    "type": "address",
                    "internalType": "address"
                }
            ],
            "outputs": [
                {
                    "name": "",
                    "type": "bool",
                    "internalType": "bool"
                }
            ],
            "stateMutability": "view"
        },
        {
            "type": "function",
            "name": "merchantNftDeadline",
            "inputs": [
                {
                    "name": "",
                    "type": "address",
                    "internalType": "address"
                }
            ],
            "outputs": [
                {
                    "name": "",
                    "type": "uint256",
                    "internalType": "uint256"
                }
            ],
            "stateMutability": "view"
        },
        {
            "type": "function",
            "name": "merchantValue",
            "inputs": [],
            "outputs": [
                {
                    "name": "",
                    "type": "uint256",
                    "internalType": "uint256"
                }
            ],
            "stateMutability": "view"
        },
        {
            "type": "function",
            "name": "minedAmt",
            "inputs": [],
            "outputs": [
                {
                    "name": "",
                    "type": "uint256",
                    "internalType": "uint256"
                }
            ],
            "stateMutability": "view"
        },
        {
            "type": "function",
            "name": "name",
            "inputs": [],
            "outputs": [
                {
                    "name": "",
                    "type": "string",
                    "internalType": "string"
                }
            ],
            "stateMutability": "view"
        },
        {
            "type": "function",
            "name": "nftMintType",
            "inputs": [
                {
                    "name": "",
                    "type": "uint256",
                    "internalType": "uint256"
                }
            ],
            "outputs": [
                {
                    "name": "",
                    "type": "uint8",
                    "internalType": "uint8"
                }
            ],
            "stateMutability": "view"
        },
        {
            "type": "function",
            "name": "owner",
            "inputs": [],
            "outputs": [
                {
                    "name": "",
                    "type": "address",
                    "internalType": "address"
                }
            ],
            "stateMutability": "view"
        },
        {
            "type": "function",
            "name": "ownerOf",
            "inputs": [
                {
                    "name": "tokenId",
                    "type": "uint256",
                    "internalType": "uint256"
                }
            ],
            "outputs": [
                {
                    "name": "",
                    "type": "address",
                    "internalType": "address"
                }
            ],
            "stateMutability": "view"
        },
        {
            "type": "function",
            "name": "proMineAmt",
            "inputs": [],
            "outputs": [
                {
                    "name": "",
                    "type": "uint256",
                    "internalType": "uint256"
                }
            ],
            "stateMutability": "view"
        },
        {
            "type": "function",
            "name": "redemptionPoolAddress",
            "inputs": [],
            "outputs": [
                {
                    "name": "",
                    "type": "address",
                    "internalType": "contract IRedemptionPool"
                }
            ],
            "stateMutability": "view"
        },
        {
            "type": "function",
            "name": "renounceOwnership",
            "inputs": [],
            "outputs": [],
            "stateMutability": "nonpayable"
        },
        {
            "type": "function",
            "name": "safeTransferFrom",
            "inputs": [
                {
                    "name": "from",
                    "type": "address",
                    "internalType": "address"
                },
                {
                    "name": "to",
                    "type": "address",
                    "internalType": "address"
                },
                {
                    "name": "tokenId",
                    "type": "uint256",
                    "internalType": "uint256"
                }
            ],
            "outputs": [],
            "stateMutability": "nonpayable"
        },
        {
            "type": "function",
            "name": "safeTransferFrom",
            "inputs": [
                {
                    "name": "from",
                    "type": "address",
                    "internalType": "address"
                },
                {
                    "name": "to",
                    "type": "address",
                    "internalType": "address"
                },
                {
                    "name": "tokenId",
                    "type": "uint256",
                    "internalType": "uint256"
                },
                {
                    "name": "data",
                    "type": "bytes",
                    "internalType": "bytes"
                }
            ],
            "outputs": [],
            "stateMutability": "nonpayable"
        },
        {
            "type": "function",
            "name": "setApprovalForAll",
            "inputs": [
                {
                    "name": "operator",
                    "type": "address",
                    "internalType": "address"
                },
                {
                    "name": "approved",
                    "type": "bool",
                    "internalType": "bool"
                }
            ],
            "outputs": [],
            "stateMutability": "nonpayable"
        },
        {
            "type": "function",
            "name": "setUriPrefix",
            "inputs": [
                {
                    "name": "_uriPrefix",
                    "type": "string",
                    "internalType": "string"
                }
            ],
            "outputs": [],
            "stateMutability": "nonpayable"
        },
        {
            "type": "function",
            "name": "setValues",
            "inputs": [
                {
                    "name": "_merchantValue",
                    "type": "uint256",
                    "internalType": "uint256"
                },
                {
                    "name": "_userValue",
                    "type": "uint256",
                    "internalType": "uint256"
                }
            ],
            "outputs": [],
            "stateMutability": "nonpayable"
        },
        {
            "type": "function",
            "name": "supportsInterface",
            "inputs": [
                {
                    "name": "interfaceId",
                    "type": "bytes4",
                    "internalType": "bytes4"
                }
            ],
            "outputs": [
                {
                    "name": "",
                    "type": "bool",
                    "internalType": "bool"
                }
            ],
            "stateMutability": "view"
        },
        {
            "type": "function",
            "name": "symbol",
            "inputs": [],
            "outputs": [
                {
                    "name": "",
                    "type": "string",
                    "internalType": "string"
                }
            ],
            "stateMutability": "view"
        },
        {
            "type": "function",
            "name": "tokenURI",
            "inputs": [
                {
                    "name": "tokenId",
                    "type": "uint256",
                    "internalType": "uint256"
                }
            ],
            "outputs": [
                {
                    "name": "",
                    "type": "string",
                    "internalType": "string"
                }
            ],
            "stateMutability": "view"
        },
        {
            "type": "function",
            "name": "tokenUsdtAddr",
            "inputs": [],
            "outputs": [
                {
                    "name": "",
                    "type": "address",
                    "internalType": "contract IERC20"
                }
            ],
            "stateMutability": "view"
        },
        {
            "type": "function",
            "name": "totalMineAmt",
            "inputs": [],
            "outputs": [
                {
                    "name": "",
                    "type": "uint256",
                    "internalType": "uint256"
                }
            ],
            "stateMutability": "view"
        },
        {
            "type": "function",
            "name": "transferFrom",
            "inputs": [
                {
                    "name": "from",
                    "type": "address",
                    "internalType": "address"
                },
                {
                    "name": "to",
                    "type": "address",
                    "internalType": "address"
                },
                {
                    "name": "tokenId",
                    "type": "uint256",
                    "internalType": "uint256"
                }
            ],
            "outputs": [],
            "stateMutability": "nonpayable"
        },
        {
            "type": "function",
            "name": "transferOwnership",
            "inputs": [
                {
                    "name": "newOwner",
                    "type": "address",
                    "internalType": "address"
                }
            ],
            "outputs": [],
            "stateMutability": "nonpayable"
        },
        {
            "type": "function",
            "name": "uri",
            "inputs": [
                {
                    "name": "uri_",
                    "type": "uint256",
                    "internalType": "uint256"
                }
            ],
            "outputs": [
                {
                    "name": "",
                    "type": "string",
                    "internalType": "string"
                }
            ],
            "stateMutability": "view"
        },
        {
            "type": "function",
            "name": "uriPrefix",
            "inputs": [],
            "outputs": [
                {
                    "name": "",
                    "type": "string",
                    "internalType": "string"
                }
            ],
            "stateMutability": "view"
        },
        {
            "type": "function",
            "name": "userNftDeadline",
            "inputs": [
                {
                    "name": "",
                    "type": "address",
                    "internalType": "address"
                }
            ],
            "outputs": [
                {
                    "name": "",
                    "type": "uint256",
                    "internalType": "uint256"
                }
            ],
            "stateMutability": "view"
        },
        {
            "type": "function",
            "name": "userValue",
            "inputs": [],
            "outputs": [
                {
                    "name": "",
                    "type": "uint256",
                    "internalType": "uint256"
                }
            ],
            "stateMutability": "view"
        },
        {
            "type": "function",
            "name": "validTime",
            "inputs": [],
            "outputs": [
                {
                    "name": "",
                    "type": "uint256",
                    "internalType": "uint256"
                }
            ],
            "stateMutability": "view"
        },
        {
            "type": "function",
            "name": "withdrawNativeToken",
            "inputs": [
                {
                    "name": "_recipient",
                    "type": "address",
                    "internalType": "address payable"
                },
                {
                    "name": "_amount",
                    "type": "uint256",
                    "internalType": "uint256"
                }
            ],
            "outputs": [
                {
                    "name": "",
                    "type": "bool",
                    "internalType": "bool"
                }
            ],
            "stateMutability": "nonpayable"
        },
        {
            "type": "function",
            "name": "withdrawToken",
            "inputs": [
                {
                    "name": "_tokenAddr",
                    "type": "address",
                    "internalType": "address"
                },
                {
                    "name": "_account",
                    "type": "address",
                    "internalType": "address"
                },
                {
                    "name": "_value",
                    "type": "uint256",
                    "internalType": "uint256"
                }
            ],
            "outputs": [
                {
                    "name": "",
                    "type": "bool",
                    "internalType": "bool"
                }
            ],
            "stateMutability": "nonpayable"
        },
        {
            "type": "event",
            "name": "Approval",
            "inputs": [
                {
                    "name": "owner",
                    "type": "address",
                    "indexed": true,
                    "internalType": "address"
                },
                {
                    "name": "approved",
                    "type": "address",
                    "indexed": true,
                    "internalType": "address"
                },
                {
                    "name": "tokenId",
                    "type": "uint256",
                    "indexed": true,
                    "internalType": "uint256"
                }
            ],
            "anonymous": false
        },
        {
            "type": "event",
            "name": "ApprovalForAll",
            "inputs": [
                {
                    "name": "owner",
                    "type": "address",
                    "indexed": true,
                    "internalType": "address"
                },
                {
                    "name": "operator",
                    "type": "address",
                    "indexed": true,
                    "internalType": "address"
                },
                {
                    "name": "approved",
                    "type": "bool",
                    "indexed": false,
                    "internalType": "bool"
                }
            ],
            "anonymous": false
        },
        {
            "type": "event",
            "name": "BatchMetadataUpdate",
            "inputs": [
                {
                    "name": "_fromTokenId",
                    "type": "uint256",
                    "indexed": false,
                    "internalType": "uint256"
                },
                {
                    "name": "_toTokenId",
                    "type": "uint256",
                    "indexed": false,
                    "internalType": "uint256"
                }
            ],
            "anonymous": false
        },
        {
            "type": "event",
            "name": "CreateNFT",
            "inputs": [
                {
                    "name": "creator",
                    "type": "address",
                    "indexed": true,
                    "internalType": "address"
                },
                {
                    "name": "_tokenId",
                    "type": "uint256",
                    "indexed": false,
                    "internalType": "uint256"
                },
                {
                    "name": "_businessName",
                    "type": "string",
                    "indexed": false,
                    "internalType": "string"
                },
                {
                    "name": "_description",
                    "type": "string",
                    "indexed": false,
                    "internalType": "string"
                },
                {
                    "name": "_imgUrl",
                    "type": "string",
                    "indexed": false,
                    "internalType": "string"
                },
                {
                    "name": "_businessAddress",
                    "type": "string",
                    "indexed": false,
                    "internalType": "string"
                },
                {
                    "name": "_webSite",
                    "type": "string",
                    "indexed": false,
                    "internalType": "string"
                },
                {
                    "name": "_social",
                    "type": "string",
                    "indexed": false,
                    "internalType": "string"
                },
                {
                    "name": "_value",
                    "type": "uint256",
                    "indexed": false,
                    "internalType": "uint256"
                },
                {
                    "name": "_deadline",
                    "type": "uint256",
                    "indexed": false,
                    "internalType": "uint256"
                },
                {
                    "name": "_type",
                    "type": "uint8",
                    "indexed": false,
                    "internalType": "uint8"
                }
            ],
            "anonymous": false
        },
        {
            "type": "event",
            "name": "Initialized",
            "inputs": [
                {
                    "name": "version",
                    "type": "uint64",
                    "indexed": false,
                    "internalType": "uint64"
                }
            ],
            "anonymous": false
        },
        {
            "type": "event",
            "name": "MetadataUpdate",
            "inputs": [
                {
                    "name": "_tokenId",
                    "type": "uint256",
                    "indexed": false,
                    "internalType": "uint256"
                }
            ],
            "anonymous": false
        },
        {
            "type": "event",
            "name": "OwnershipTransferred",
            "inputs": [
                {
                    "name": "previousOwner",
                    "type": "address",
                    "indexed": true,
                    "internalType": "address"
                },
                {
                    "name": "newOwner",
                    "type": "address",
                    "indexed": true,
                    "internalType": "address"
                }
            ],
            "anonymous": false
        },
        {
            "type": "event",
            "name": "Received",
            "inputs": [
                {
                    "name": "receiver",
                    "type": "address",
                    "indexed": true,
                    "internalType": "address"
                },
                {
                    "name": "_value",
                    "type": "uint256",
                    "indexed": false,
                    "internalType": "uint256"
                }
            ],
            "anonymous": false
        },
        {
            "type": "event",
            "name": "SetValidTime",
            "inputs": [
                {
                    "name": "setter",
                    "type": "address",
                    "indexed": true,
                    "internalType": "address"
                },
                {
                    "name": "_time",
                    "type": "uint256",
                    "indexed": false,
                    "internalType": "uint256"
                }
            ],
            "anonymous": false
        },
        {
            "type": "event",
            "name": "SetValues",
            "inputs": [
                {
                    "name": "_setterAddress",
                    "type": "address",
                    "indexed": true,
                    "internalType": "address"
                },
                {
                    "name": "_merchantValue",
                    "type": "uint256",
                    "indexed": false,
                    "internalType": "uint256"
                },
                {
                    "name": "_userValue",
                    "type": "uint256",
                    "indexed": false,
                    "internalType": "uint256"
                }
            ],
            "anonymous": false
        },
        {
            "type": "event",
            "name": "Transfer",
            "inputs": [
                {
                    "name": "from",
                    "type": "address",
                    "indexed": true,
                    "internalType": "address"
                },
                {
                    "name": "to",
                    "type": "address",
                    "indexed": true,
                    "internalType": "address"
                },
                {
                    "name": "tokenId",
                    "type": "uint256",
                    "indexed": true,
                    "internalType": "uint256"
                }
            ],
            "anonymous": false
        },
        {
            "type": "event",
            "name": "UriPrefixSet",
            "inputs": [
                {
                    "name": "setterAddress",
                    "type": "address",
                    "indexed": true,
                    "internalType": "address"
                },
                {
                    "name": "urlPrefix",
                    "type": "string",
                    "indexed": false,
                    "internalType": "string"
                }
            ],
            "anonymous": false
        },
        {
            "type": "event",
            "name": "Withdraw",
            "inputs": [
                {
                    "name": "withdrawer",
                    "type": "address",
                    "indexed": true,
                    "internalType": "address"
                },
                {
                    "name": "_amount",
                    "type": "uint256",
                    "indexed": false,
                    "internalType": "uint256"
                }
            ],
            "anonymous": false
        },
        {
            "type": "event",
            "name": "WithdrawUToken",
            "inputs": [
                {
                    "name": "withdrawer",
                    "type": "address",
                    "indexed": true,
                    "internalType": "address"
                },
                {
                    "name": "_tokenAddr",
                    "type": "address",
                    "indexed": true,
                    "internalType": "address"
                },
                {
                    "name": "_account",
                    "type": "address",
                    "indexed": true,
                    "internalType": "address"
                },
                {
                    "name": "_value",
                    "type": "uint256",
                    "indexed": false,
                    "internalType": "uint256"
                }
            ],
            "anonymous": false
        },
        {
            "type": "error",
            "name": "ERC721IncorrectOwner",
            "inputs": [
                {
                    "name": "sender",
                    "type": "address",
                    "internalType": "address"
                },
                {
                    "name": "tokenId",
                    "type": "uint256",
                    "internalType": "uint256"
                },
                {
                    "name": "owner",
                    "type": "address",
                    "internalType": "address"
                }
            ]
        },
        {
            "type": "error",
            "name": "ERC721InsufficientApproval",
            "inputs": [
                {
                    "name": "operator",
                    "type": "address",
                    "internalType": "address"
                },
                {
                    "name": "tokenId",
                    "type": "uint256",
                    "internalType": "uint256"
                }
            ]
        },
        {
            "type": "error",
            "name": "ERC721InvalidApprover",
            "inputs": [
                {
                    "name": "approver",
                    "type": "address",
                    "internalType": "address"
                }
            ]
        },
        {
            "type": "error",
            "name": "ERC721InvalidOperator",
            "inputs": [
                {
                    "name": "operator",
                    "type": "address",
                    "internalType": "address"
                }
            ]
        },
        {
            "type": "error",
            "name": "ERC721InvalidOwner",
            "inputs": [
                {
                    "name": "owner",
                    "type": "address",
                    "internalType": "address"
                }
            ]
        },
        {
            "type": "error",
            "name": "ERC721InvalidReceiver",
            "inputs": [
                {
                    "name": "receiver",
                    "type": "address",
                    "internalType": "address"
                }
            ]
        },
        {
            "type": "error",
            "name": "ERC721InvalidSender",
            "inputs": [
                {
                    "name": "sender",
                    "type": "address",
                    "internalType": "address"
                }
            ]
        },
        {
            "type": "error",
            "name": "ERC721NonexistentToken",
            "inputs": [
                {
                    "name": "tokenId",
                    "type": "uint256",
                    "internalType": "uint256"
                }
            ]
        },
        {
            "type": "error",
            "name": "InvalidInitialization",
            "inputs": []
        },
        {
            "type": "error",
            "name": "NotInitializing",
            "inputs": []
        },
        {
            "type": "error",
            "name": "OwnableInvalidOwner",
            "inputs": [
                {
                    "name": "owner",
                    "type": "address",
                    "internalType": "address"
                }
            ]
        },
        {
            "type": "error",
            "name": "OwnableUnauthorizedAccount",
            "inputs": [
                {
                    "name": "account",
                    "type": "address",
                    "internalType": "address"
                }
            ]
        },
        {
            "type": "error",
            "name": "ReentrancyGuardReentrantCall",
            "inputs": []
        }
    ],
    "bytecode": {
        "object": "0x61016034620001ec576001600160401b0390601f62002f3538819003918201601f1916830192919084841183851017620001f1578160609284926040968752833981010312620001ec57620000548162000207565b916200007081620000686020850162000207565b930162000207565b9362278d0060805265b5e620f4800060a052633b9aca0060c0526305f5e10060e052600060045560018060a01b0380610120951685528061014094168452610100951685527ff0c57e16840df040f15088dc2f81fe391c3923bec73e23a9662efc9c229c6a009081549060ff82851c16620001db57808083160362000196575b5050505191612d1893846200021d85396080518481816108860152818161123e015281816112e30152818161170f0152611b02015260a05184610c54015260c051848181610cad015261131b015260e051848181610ba90152611b3a01525183818161091e01526113fa0152518281816109630152818161134b0152611b6a0152518181816102c101528181611294015281816113a4015281816114410152611ab30152f35b6001600160401b0319909116811790915581519081527fc7f505b2f371ae2175ee4913f4499e1f2633a7b5936321eed1cdaeb6115181d290602090a1388080620000f0565b835163f92ee8a960e01b8152600490fd5b600080fd5b634e487b7160e01b600052604160045260246000fd5b51906001600160a01b0382168203620001ec5756fe60806040526004361015610047575b361561001957600080fd5b6040513481527f88a5966d370b9919b20f3e2c13ff65706f196a4e32cc2c12bf57088f8852587460203392a2005b60003560e01c806301e336671461209b57806301ffc9a71461201357806306fdde0314611f69578063081812fc14611f1e578063095ea7b314611e375780630ddf45df14610bcc5780630e89341c146102f05780631c2347a814611db757806323b872dd14611e205780632ac8693b14611df15780633979507814611db75780633aecd0e314611d3357806342842e0e14611d0b578063463d5059146111385780634a60f6201461111a578063536c6bfa14610fad57806362b99ad414610f915780636352211e14610f6157806370a0823114610f0c578063715018a614610ea2578063748dada114610e845780637ec4a65914610cd057806380c7fb9714610c955780638678d9d414610c7757806388e40a5a14610c3c5780638da5cb5b14610c065780638dce8b1314610bcc5780639439981714610b9157806395d89b4114610a8c5780639c3dfaf614610a32578063a22cb46514610992578063a73dd74c1461094d578063b6648e4714610908578063b88d4fde146108a9578063bbe449171461086e578063c4d66de814610327578063c87b56dd146102f0578063dd62df73146102ab578063e985e9c51461025d578063f2fde38b146102325763f7859c280361000e573461022d57600036600319011261022d576020600454604051908152f35b600080fd5b3461022d57602036600319011261022d5761025b61024e612287565b610256612951565b612920565b005b3461022d57604036600319011261022d57610276612287565b61028761028161229d565b91612369565b9060018060a01b0316600052602052602060ff604060002054166040519015158152f35b3461022d57600036600319011261022d576040517f00000000000000000000000000000000000000000000000000000000000000006001600160a01b03168152602090f35b3461022d57602036600319011261022d5761032361030f60043561288b565b60405191829160208352602083019061230b565b0390f35b3461022d57602036600319011261022d57610340612287565b600080516020612ca383398151915254906001600160401b0382168015908161085e575b6001149081610854575b15908161084b575b506108395760016001600160401b0319831617600080516020612ca38339815191525560ff8260401c161561080c575b6001600160a01b038116156107a157604051916103c2836123bd565b600b83526a546865576562546872656560a81b6020840152604051916103e7836123bd565b60038352621515d560ea1b60208401526103ff612bd3565b610407612bd3565b83516001600160401b03811161067b5761042f600080516020612c0383398151915254612469565b601f811161072b575b506020601f821160011461069c578192939495600092610691575b50508160011b916000199060031b1c191617600080516020612c03833981519152555b82516001600160401b03811161067b577f80bb2b638cc20bc4d0a60d66940f3ab4a00c1d7b313497ca82fb0b4ab0079301906104b28254612469565b601f8111610617575b506020601f821160011461058d57908061050f94939260ff97600092610582575b50508160011b916000199060031b1c19161790555b6104f9612bd3565b610501612bd3565b61050a81612920565b612b7d565b6304c4b400600255627a120060035560401c161561052957005b68ff000000000000000019600080516020612ca38339815191525416600080516020612ca3833981519152557fc7f505b2f371ae2175ee4913f4499e1f2633a7b5936321eed1cdaeb6115181d2602060405160018152a1005b0151905087806104dc565b601f19821695836000527ff4bad0a69248f59680a4f2b3000328cec71a413447c96781cfe5996daa8c456e9660005b8181106105ff575096600192849261050f97969560ff9a106105e6575b505050811b0190556104f1565b015160001960f88460031b161c191690558780806105d9565b838301518955600190980197602093840193016105bc565b826000527ff4bad0a69248f59680a4f2b3000328cec71a413447c96781cfe5996daa8c456e601f830160051c81019160208410610671575b601f0160051c01905b81811061066557506104bb565b60008155600101610658565b909150819061064f565b634e487b7160e01b600052604160045260246000fd5b015190508580610453565b600080516020612c03833981519152600052600080516020612cc38339815191529060005b601f1984168110610713575060019394959683601f198116106106fa575b505050811b01600080516020612c0383398151915255610476565b015160001960f88460031b161c191690558580806106df565b9091602060018192858b0151815501930191016106c1565b600080516020612c03833981519152600052601f820160051c600080516020612cc3833981519152016020831061078c575b601f820160051c600080516020612cc38339815191520181106107805750610438565b6000815560010161075d565b50600080516020612cc383398151915261075d565b60405162461bcd60e51b815260206004820152603a60248201527f4e66744d616e6167657220696e697469616c697a653a205f696e697469616c4f60448201527f776e65722063616e2774206265207a65726f20616464726573730000000000006064820152608490fd5b68ffffffffffffffffff1982166801000000000000000117600080516020612ca3833981519152556103a6565b60405163f92ee8a960e01b8152600490fd5b90501583610376565b303b15915061036e565b604084901c60ff16159150610364565b3461022d57600036600319011261022d5760206040517f00000000000000000000000000000000000000000000000000000000000000008152f35b3461022d57608036600319011261022d576108c2612287565b6108ca61229d565b606435916001600160401b03831161022d573660238401121561022d576108fe61025b933690602481600401359101612414565b9160443591612760565b3461022d57600036600319011261022d576040517f00000000000000000000000000000000000000000000000000000000000000006001600160a01b03168152602090f35b3461022d57600036600319011261022d576040517f00000000000000000000000000000000000000000000000000000000000000006001600160a01b03168152602090f35b3461022d57604036600319011261022d576109ab612287565b6024359081151580920361022d576001600160a01b0316908115610a19576109d233612369565b82600052602052604060002060ff1981541660ff83161790556040519081527f17307eab39ab6107e8899845ad3d59bd9653f200f220920489ca2b5937696c3160203392a3005b604051630b61174360e31b815260048101839052602490fd5b3461022d57604036600319011261022d57600435602435610a51612951565b816002558060035560405191825260208201527f606bc42962399672a7f4089c08b1af4d207c5ff123b0c5e3e35aa03decb13fb860403392a2005b3461022d57600036600319011261022d576040517f80bb2b638cc20bc4d0a60d66940f3ab4a00c1d7b313497ca82fb0b4ab00793018054826000610acf83612469565b9283835260209460019186600182169182600014610b6f575050600114610b13575b5050610aff925003836123d8565b61032360405192828493845283019061230b565b8592506000527ff4bad0a69248f59680a4f2b3000328cec71a413447c96781cfe5996daa8c456e906000915b858310610b57575050610aff93508201018580610af1565b80548389018501528794508693909201918101610b3f565b9250935050610aff94915060ff191682840152151560051b8201018580610af1565b3461022d57600036600319011261022d5760206040517f00000000000000000000000000000000000000000000000000000000000000008152f35b3461022d57602036600319011261022d576001600160a01b03610bed612287565b1660005260066020526020604060002054604051908152f35b3461022d57600036600319011261022d57600080516020612c23833981519152546040516001600160a01b039091168152602090f35b3461022d57600036600319011261022d5760206040517f00000000000000000000000000000000000000000000000000000000000000008152f35b3461022d57600036600319011261022d576020600354604051908152f35b3461022d57600036600319011261022d5760206040517f00000000000000000000000000000000000000000000000000000000000000008152f35b3461022d5760208060031936011261022d576001600160401b0360043581811161022d57610d0290369060040161244b565b610d0a612951565b805191821161067b576001610d1f8154612469565b601f8111610e30575b508392601f8111600114610d9d579081610d8d93927f8aed2472df7eda2618a927a1e73256d01e814a5b03b0fff4931cc2774e39b0c695600091610d92575b50600019600383901b1c191690821b1790555b604051918291858352339583019061230b565b0390a2005b905083015187610d67565b92601f1984169082600052600080516020612c438339815191529160005b87828210610e1c575050948392610d8d959492827f8aed2472df7eda2618a927a1e73256d01e814a5b03b0fff4931cc2774e39b0c69810610e03575b5050811b019055610d7a565b85015160001960f88460031b161c191690558780610df7565b868401518555938501939283019201610dbb565b81600052600080516020612c43833981519152601f850160051c810191868610610e7a575b601f0160051c019082905b828110610e6e575050610d28565b60008155018290610e60565b9091508190610e55565b3461022d57600036600319011261022d576020600254604051908152f35b3461022d57600036600319011261022d57610ebb612951565b600080516020612c2383398151915280546001600160a01b031981169091556000906001600160a01b03167f8be0079c531659141344cd1fd0a4f28419497f9722a3daafe3b4186f6b6457e08280a3005b3461022d57602036600319011261022d57610f25612287565b6001600160a01b03811615610f4857610f3f602091612330565b54604051908152f35b6040516322718ad960e21b815260006004820152602490fd5b3461022d57602036600319011261022d576020610f7f6004356129ba565b6040516001600160a01b039091168152f35b3461022d57600036600319011261022d5761032361030f6124a3565b3461022d57604036600319011261022d576004356001600160a01b0381169081900361022d57602435610fde612951565b610fe661298a565b81156110af5747811161104e57817f884edad9ce6fa2440d8a54cc123490eb96d2768479d49ff9c7366125a9424364602060008080808785995af19361102a612730565b50604051908152a26001600080516020612c63833981519152556040519015158152f35b60405162461bcd60e51b815260206004820152603360248201527f4e66744d616e616765722077697468647261774e6174697665546f6b656e3a206044820152722130b630b731b2903737ba1032b737bab3b41760691b6064820152608490fd5b60405162461bcd60e51b815260206004820152603860248201527f4e66744d616e616765722077697468647261774e6174697665546f6b656e3a2060448201527f726563697069656e742061646472657373206572726f722e00000000000000006064820152608490fd5b3461022d57600036600319011261022d576020600054604051908152f35b3461022d5760e036600319011261022d576004356001600160401b03811161022d5761116890369060040161244b565b6024356001600160401b03811161022d5761118790369060040161244b565b906044356001600160401b03811161022d576111a790369060040161244b565b916064356001600160401b03811161022d576111c790369060040161244b565b6084356001600160401b03811161022d576111e690369060040161244b565b60a4356001600160401b03811161022d5761120590369060040161244b565b9160c4359560ff8716870361022d5761121c61298a565b600160ff88161494858015611cfe575b15611c62578515611c5957600254955b7f00000000000000000000000000000000000000000000000000000000000000004201421161195d5715611a8957604051636eb1769f60e11b81523360048201523060248201526001600160a01b03906020816044817f000000000000000000000000000000000000000000000000000000000000000086165afa9081156119a257600091611a57575b50600254116119ec573360008181526005602090815260408083207f0000000000000000000000000000000000000000000000000000000000000000420190555163a9059cbb60e01b815260048101939093527f00000000000000000000000000000000000000000000000000000000000000006024840152919283916044918391907f0000000000000000000000000000000000000000000000000000000000000000165af180156119a2576119cd575b505b6040516323b872dd60e01b81523360048201523060248201526044810187905260208160648160007f00000000000000000000000000000000000000000000000000000000000000006001600160a01b03165af180156119a2576119ae575b5085604b810204604b148615171561195d5760405163a9059cbb60e01b81527f00000000000000000000000000000000000000000000000000000000000000006001600160a01b031660048201526064604b88020460248201526020818060448101038160007f00000000000000000000000000000000000000000000000000000000000000006001600160a01b03165af180156119a257611973575b5060005496600019881461195d5760018801600055331561194457876000527f80bb2b638cc20bc4d0a60d66940f3ab4a00c1d7b313497ca82fb0b4ab0079302806020528860018060a01b03604060002054168015159283611905575b6114dc33612330565b60018154019055826000526020526040600020336bffffffffffffffffffffffff60a01b82541617905533907fddf252ad1be2c89b69c2b068fc378daa952ba7f163c4a11628f55a4df523b3ef600080a46118ec57876000526007602052604060002060ff199060ff8b168282541617905561155a60ff8b16612a14565b604051809260009060015461156e81612469565b91600182169182156118cf575050600114611883575b509060208261159e856005956115b99751948592016122e8565b0164173539b7b760d91b815203601a198101845201826123d8565b886000527f0542a41881ee128a365a727b282c86fa859579490b9bb45aab8503648c8e79006020526040600020908051906001600160401b03821161067b576116028354612469565b601f811161183f575b50602090601f831160011461176e57966116dd60409d976116cf611707988f9c967f2f07f1d4b070b2c0047f7ddd468bfd61a682b1ad5553c708a1fa6023812e08889e997ff8e1a15aba9398e019f0b49df1a4fde98ee17ae345cb5f6b5e2c27f5033e8ce78f60ff9f906116f99c856116c1966116eb9d602095600092611763575b50508160011b916000199060031b1c19161790555b604051908152a16040519e8f610140918152816020820152019061230b565b8d810360408f01529061230b565b908b820360608d015261230b565b9089820360808b015261230b565b9087820360a089015261230b565b9085820360c087015261230b565b9460e08401527f00000000000000000000000000000000000000000000000000000000000000004201610100840152166101208201528033930390a26001600080516020612c6383398151915255815190600182526020820152f35b01519050388061168d565b908360005260206000209160005b601f1985168110611827575060409d976116cf611707988f9c967f2f07f1d4b070b2c0047f7ddd468bfd61a682b1ad5553c708a1fa6023812e08889e997ff8e1a15aba9398e019f0b49df1a4fde98ee17ae345cb5f6b5e2c27f5033e8ce78f60ff9f98906116f99c6001866116eb9d6020956116dd9d6116c19a601f1981161061180e575b505050811b0190556116a2565b015160001960f88460031b161c19169055388080611801565b9192602060018192868501518155019401920161177c565b836000526020600020601f840160051c81016020851061187c575b601f830160051c8201811061187057505061160b565b6000815560010161185a565b508061185a565b90506001600052600080516020612c438339815191526000905b8282106118b35750508101602090810190611584565b602091929350806001915483858901015201910184929161189d565b166020808601919091528215159092028401820192506115849050565b6040516339e3563760e11b815260006004820152602490fd5b6000838152600080516020612c838339815191526020526040902080546001600160a01b031916905561193782612330565b80546000190190556114d3565b604051633250574960e11b815260006004820152602490fd5b634e487b7160e01b600052601160045260246000fd5b6119949060203d60201161199b575b61198c81836123d8565b810190612557565b5088611476565b503d611982565b6040513d6000823e3d90fd5b6119c69060203d60201161199b5761198c81836123d8565b50886113d9565b6119e59060203d60201161199b5761198c81836123d8565b5088611378565b60405162461bcd60e51b815260206004820152603c60248201527f4e66744d616e61676572206372656174654e46543a204d65726368616e74206160448201527f6c6c6f77616e6365206d757374206d6f7265207468616e2038302055000000006064820152608490fd5b90506020813d602011611a81575b81611a72602093836123d8565b8101031261022d57518a6112c6565b3d9150611a65565b604051636eb1769f60e11b81523360048201523060248201526001600160a01b03906020816044817f000000000000000000000000000000000000000000000000000000000000000086165afa9081156119a257600091611c27575b5060035411611bbc573360008181526006602090815260408083207f0000000000000000000000000000000000000000000000000000000000000000420190555163a9059cbb60e01b815260048101939093527f00000000000000000000000000000000000000000000000000000000000000006024840152919283916044918391907f0000000000000000000000000000000000000000000000000000000000000000165af180156119a257611b9d575b5061137a565b611bb59060203d60201161199b5761198c81836123d8565b5088611b97565b60405162461bcd60e51b815260206004820152603b60248201527f4e66744d616e61676572206372656174654e46543a204d65726368616e74206160448201527f6c6c6f77616e6365206d757374206d6f7265207468616e2038205500000000006064820152608490fd5b90506020813d602011611c51575b81611c42602093836123d8565b8101031261022d57518a611ae5565b3d9150611c35565b6003549561123c565b60405162461bcd60e51b815260206004820152606260248201527f4e66744d616e61676572206372656174654e46543a20747970652063616e206f60448201527f6e6c7920657175616c203120616e6420322c2031207374616e6420666f72206d60648201527f65726368616e742c2032207374616e6420666f7220706572736f6e616c20757360848201526132b960f11b60a482015260c490fd5b50600260ff89161461122c565b3461022d5761025b611d1c366122b3565b9060405192611d2a846123a2565b60008452612760565b3461022d5760208060031936011261022d576024816001600160a01b03611d58612287565b16604051928380926370a0823160e01b82523060048301525afa9081156119a257600091611d8a575b50604051908152f35b90508181813d8311611db0575b611da181836123d8565b8101031261022d575182611d81565b503d611d97565b3461022d57602036600319011261022d576001600160a01b03611dd8612287565b1660005260056020526020604060002054604051908152f35b3461022d57602036600319011261022d576004356000526007602052602060ff60406000205416604051908152f35b3461022d5761025b611e31366122b3565b9161256f565b3461022d57604036600319011261022d57611e50612287565b602435611e5c816129ba565b33151580611f0b575b80611eeb575b611ed3576001600160a01b039283169282918491167f8c5be1e5ebec7d5bd14f71427d1e84f3dd0314c0f7b2291e5b200ac8c7c3b925600080a46000908152600080516020612c838339815191526020526040902080546001600160a01b0319169091179055005b60405163a9fbf51f60e01b8152336004820152602490fd5b50611ef581612369565b3360005260205260ff6040600020541615611e6b565b506001600160a01b038116331415611e65565b3461022d57602036600319011261022d57600435611f3b816129ba565b50600052600080516020612c83833981519152602052602060018060a01b0360406000205416604051908152f35b3461022d57600036600319011261022d57604051600080516020612c038339815191528054826000611f9a83612469565b9283835260209460019186600182169182600014610b6f575050600114611fc9575050610aff925003836123d8565b859250600052600080516020612cc3833981519152906000915b858310611ffb575050610aff93508201018580610af1565b80548389018501528794508693909201918101611fe3565b3461022d57602036600319011261022d5760043563ffffffff60e01b811680910361022d57602090632483248360e11b8114908115612058575b506040519015158152f35b6380ac58cd60e01b81149150811561208a575b8115612079575b508261204d565b6301ffc9a760e01b14905082612072565b635b5e139f60e01b8114915061206b565b3461022d576120a9366122b3565b90916120b3612951565b6120bb61298a565b6001600160a01b0390811690811561222c576040516370a0823160e01b8152306004820152602094908581602481875afa80156119a25785916000916121fb575b50106121a05760405163a9059cbb60e01b81526001600160a01b03821660048201526024810185905285816044816000885af180156119a257612183575b5060405193845216917ff314360eddb258cb001ab9dd025a30d7be229f08113f1e5617a7f82a00e0e78f843392a46001600080516020612c638339815191525560405160018152f35b61219990863d881161199b5761198c81836123d8565b508561213a565b60405162461bcd60e51b815260048101869052602d60248201527f4e66744d616e61676572207769746864726177546f6b656e3a2042616c616e6360448201526c32903737ba1032b737bab3b41760991b6064820152608490fd5b809250878092503d8311612225575b61221481836123d8565b8101031261022d57849051876120fc565b503d61220a565b60405162461bcd60e51b815260206004820152602d60248201527f4e66744d616e61676572207769746864726177546f6b656e3a746f6b656e206160448201526c32323932b9b99032b93937b91760991b6064820152608490fd5b600435906001600160a01b038216820361022d57565b602435906001600160a01b038216820361022d57565b606090600319011261022d576001600160a01b0390600435828116810361022d5791602435908116810361022d579060443590565b60005b8381106122fb5750506000910152565b81810151838201526020016122eb565b90602091612324815180928185528580860191016122e8565b601f01601f1916010190565b6001600160a01b031660009081527f80bb2b638cc20bc4d0a60d66940f3ab4a00c1d7b313497ca82fb0b4ab00793036020526040902090565b6001600160a01b031660009081527f80bb2b638cc20bc4d0a60d66940f3ab4a00c1d7b313497ca82fb0b4ab00793056020526040902090565b602081019081106001600160401b0382111761067b57604052565b604081019081106001600160401b0382111761067b57604052565b90601f801991011681019081106001600160401b0382111761067b57604052565b6001600160401b03811161067b57601f01601f191660200190565b929192612420826123f9565b9161242e60405193846123d8565b82948184528183011161022d578281602093846000960137010152565b9080601f8301121561022d5781602061246693359101612414565b90565b90600182811c92168015612499575b602083101461248357565b634e487b7160e01b600052602260045260246000fd5b91607f1691612478565b604051906000826001916001546124b981612469565b808452936020916001811690811561253357506001146124e4575b50506124e2925003836123d8565b565b9150926001600052600080516020612c43833981519152936000925b82841061251b57506124e294505050810160200138806124d4565b85548885018301529485019487945092810192612500565b915050602092506124e294915060ff191682840152151560051b82010138806124d4565b9081602091031261022d5751801515810361022d5790565b6001600160a01b038281169391841561194457826000958187527f80bb2b638cc20bc4d0a60d66940f3ab4a00c1d7b313497ca82fb0b4ab0079302958660205260409785898220541697889233151580612687575b50906125f67fddf252ad1be2c89b69c2b068fc378daa952ba7f163c4a11628f55a4df523b3ef93928561264857612330565b8054600101905585825260205289812080546001600160a01b0319168517905580a416928383036126275750505050565b6064945051926364283d7b60e01b8452600484015260248301526044820152fd5b6000888152600080516020612c838339815191526020526040902080546001600160a01b031916905561267a86612330565b8054600019019055612330565b91935091939450806126e1575b156126a557918791879493386125c4565b8887896126c2576024915190637e27328960e01b82526004820152fd5b905163177e802f60e01b81523360048201526024810191909152604490fd5b503388148015612714575b806126945750868352600080516020612c8383398151915260205233868a8520541614612694565b5061271e88612369565b33845260205260ff89842054166126ec565b3d1561275b573d90612741826123f9565b9161274f60405193846123d8565b82523d6000602084013e565b606090565b919061276d82828561256f565b803b61277a575b50505050565b6127bc60018060a01b0380921694604051938493630a85bd0160e11b96878652336004870152166024850152604484015260806064840152608483019061230b565b03906020816000938185885af19082908261283b575b505061280a57826127e1612730565b805191908261280357604051633250574960e11b815260048101839052602490fd5b9050602001fd5b6001600160e01b03191603612823575038808080612774565b60249060405190633250574960e11b82526004820152fd5b909192506020813d602011612883575b81612858602093836123d8565b8101031261287f5751906001600160e01b03198216820361287c57509038806127d2565b80fd5b5080fd5b3d915061284b565b6128936124a3565b906000526020906007825260ff604060002054168151151560001461290a57612466916128c1602592612a14565b9364173539b7b760d91b60405195836128e388955180928680890191016122e8565b84016128f7825180938680850191016122e8565b01918201520360058101845201826123d8565b505050604051612919816123a2565b6000815290565b6001600160a01b03811615612938576124e290612b7d565b604051631e4fbdf760e01b815260006004820152602490fd5b600080516020612c23833981519152546001600160a01b0316330361297257565b60405163118cdaa760e01b8152336004820152602490fd5b600080516020612c6383398151915260028154146129a85760029055565b604051633ee5aeb560e01b8152600490fd5b60008181527f80bb2b638cc20bc4d0a60d66940f3ab4a00c1d7b313497ca82fb0b4ab007930260205260409020546001600160a01b03169081156129fc575090565b60249060405190637e27328960e01b82526004820152fd5b806000917a184f03e93ff9f4daa797ed6e38ed64bf6a1f01000000000000000080821015612b6f575b506d04ee2d6d415b85acef810000000080831015612b60575b50662386f26fc1000080831015612b51575b506305f5e10080831015612b42575b5061271080831015612b33575b506064821015612b23575b600a80921015612b19575b6001908160216001860195612aae876123f9565b96612abc60405198896123d8565b808852612acb601f19916123f9565b01366020890137860101905b612ae3575b5050505090565b600019019083906f181899199a1a9b1b9c1cb0b131b232b360811b8282061a835304918215612b1457919082612ad7565b612adc565b9160010191612a9a565b9190606460029104910191612a8f565b60049193920491019138612a84565b60089193920491019138612a77565b60109193920491019138612a68565b60209193920491019138612a56565b604093508104915038612a3d565b600080516020612c2383398151915280546001600160a01b039283166001600160a01b0319821681179092559091167f8be0079c531659141344cd1fd0a4f28419497f9722a3daafe3b4186f6b6457e0600080a3565b60ff600080516020612ca38339815191525460401c1615612bf057565b604051631afcd79f60e31b8152600490fdfe80bb2b638cc20bc4d0a60d66940f3ab4a00c1d7b313497ca82fb0b4ab00793009016d09d72d40fdae2fd8ceac6b6234c7706214fd39c1cd1e609a0528c199300b10e2d527612073b26eecdfd717e6a320cf44b4afac2b0732d9fcbe2b7fa0cf69b779b17422d0df92223018b32b4d1fa46e071723d6817e2486d003becc55f0080bb2b638cc20bc4d0a60d66940f3ab4a00c1d7b313497ca82fb0b4ab0079304f0c57e16840df040f15088dc2f81fe391c3923bec73e23a9662efc9c229c6a0037c58c799b6609234b945e882912ee9ad34948a1dfaa20a97485e1a7752bbf81a2646970667358221220934df1556de849764f21dd6633ca4bdb663bf57893d71ce76d238e137fa84e9364736f6c63430008180033",
        "linkReferences": {}
    },
    "methodIdentifiers": {
        "_nextTokenId()": "4a60f620",
        "approve(address,uint256)": "095ea7b3",
        "balanceOf(address)": "70a08231",
        "basicMineAmt()": "94399817",
        "createNFT(string,string,string,string,string,string,uint8)": "463d5059",
        "fccTokenAddr()": "a73dd74c",
        "getApproved(uint256)": "081812fc",
        "getMerchantNTFDeadline(address)": "39795078",
        "getTokenBalance(address)": "3aecd0e3",
        "getUserNTFDeadline(address)": "8dce8b13",
        "initialize(address)": "c4d66de8",
        "isApprovedForAll(address,address)": "e985e9c5",
        "merchantNftDeadline(address)": "1c2347a8",
        "merchantValue()": "748dada1",
        "minedAmt()": "f7859c28",
        "name()": "06fdde03",
        "nftMintType(uint256)": "2ac8693b",
        "owner()": "8da5cb5b",
        "ownerOf(uint256)": "6352211e",
        "proMineAmt()": "80c7fb97",
        "redemptionPoolAddress()": "b6648e47",
        "renounceOwnership()": "715018a6",
        "safeTransferFrom(address,address,uint256)": "42842e0e",
        "safeTransferFrom(address,address,uint256,bytes)": "b88d4fde",
        "setApprovalForAll(address,bool)": "a22cb465",
        "setUriPrefix(string)": "7ec4a659",
        "setValues(uint256,uint256)": "9c3dfaf6",
        "supportsInterface(bytes4)": "01ffc9a7",
        "symbol()": "95d89b41",
        "tokenURI(uint256)": "c87b56dd",
        "tokenUsdtAddr()": "dd62df73",
        "totalMineAmt()": "88e40a5a",
        "transferFrom(address,address,uint256)": "23b872dd",
        "transferOwnership(address)": "f2fde38b",
        "uri(uint256)": "0e89341c",
        "uriPrefix()": "62b99ad4",
        "userNftDeadline(address)": "0ddf45df",
        "userValue()": "8678d9d4",
        "validTime()": "bbe44917",
        "withdrawNativeToken(address,uint256)": "536c6bfa",
        "withdrawToken(address,address,uint256)": "01e33667"
    },
    "storageLayout": {
        "storage": [
            {
                "astId": 49383,
                "contract": "src/contracts/core/token/NftManager.sol:NftManager",
                "label": "_nextTokenId",
                "offset": 0,
                "slot": "0",
                "type": "t_uint256"
            },
            {
                "astId": 49385,
                "contract": "src/contracts/core/token/NftManager.sol:NftManager",
                "label": "uriPrefix",
                "offset": 0,
                "slot": "1",
                "type": "t_string_storage"
            },
            {
                "astId": 49387,
                "contract": "src/contracts/core/token/NftManager.sol:NftManager",
                "label": "merchantValue",
                "offset": 0,
                "slot": "2",
                "type": "t_uint256"
            },
            {
                "astId": 49389,
                "contract": "src/contracts/core/token/NftManager.sol:NftManager",
                "label": "userValue",
                "offset": 0,
                "slot": "3",
                "type": "t_uint256"
            },
            {
                "astId": 49419,
                "contract": "src/contracts/core/token/NftManager.sol:NftManager",
                "label": "minedAmt",
                "offset": 0,
                "slot": "4",
                "type": "t_uint256"
            },
            {
                "astId": 49429,
                "contract": "src/contracts/core/token/NftManager.sol:NftManager",
                "label": "merchantNftDeadline",
                "offset": 0,
                "slot": "5",
                "type": "t_mapping(t_address,t_uint256)"
            },
            {
                "astId": 49433,
                "contract": "src/contracts/core/token/NftManager.sol:NftManager",
                "label": "userNftDeadline",
                "offset": 0,
                "slot": "6",
                "type": "t_mapping(t_address,t_uint256)"
            },
            {
                "astId": 49437,
                "contract": "src/contracts/core/token/NftManager.sol:NftManager",
                "label": "nftMintType",
                "offset": 0,
                "slot": "7",
                "type": "t_mapping(t_uint256,t_uint8)"
            }
        ],
        "types": {
            "t_address": {
                "encoding": "inplace",
                "label": "address",
                "numberOfBytes": "20"
            },
            "t_mapping(t_address,t_uint256)": {
                "encoding": "mapping",
                "key": "t_address",
                "label": "mapping(address => uint256)",
                "numberOfBytes": "32",
                "value": "t_uint256"
            },
            "t_mapping(t_uint256,t_uint8)": {
                "encoding": "mapping",
                "key": "t_uint256",
                "label": "mapping(uint256 => uint8)",
                "numberOfBytes": "32",
                "value": "t_uint8"
            },
            "t_string_storage": {
                "encoding": "bytes",
                "label": "string",
                "numberOfBytes": "32"
            },
            "t_uint256": {
                "encoding": "inplace",
                "label": "uint256",
                "numberOfBytes": "32"
            },
            "t_uint8": {
                "encoding": "inplace",
                "label": "uint8",
                "numberOfBytes": "1"
            }
        }
    },
    "id": 73
}